:020000040800F2
:10000000081B0020B9020008617B000801560008A7
:10001000016C0008B911000825C4000800000000A8
:100020000000000000000000000000005D880008E3
:10003000AB130008000000000185000825B200088D
:10004000D3020008D3020008D3020008D30200083C
:10005000D3020008D3020008D30200088916000862
:10006000D3020008D3020008D302000831120008AE
:10007000411200085112000861120008D302000862
:1000800071120008D3020008D3020008D30200084E
:10009000D3020008D3020008D3020008D3020008EC
:1000A000D3020008F5B20008D3020008D30200080A
:1000B000D3020008D3020008D3020008D3020008CC
:1000C000D3020008D3020008D3020008D3020008BC
:1000D000D30200087DBF00088DBF00089DBF000847
:1000E00075160008D3020008D3020008D3020008E6
:1000F000D302000815B30008D3020008D302000899
:10010000D3020008D3020008D3020008D30200087B
:100110004DB400085DB4000805B30008D302000820
:10012000D30200088112000891120008D3020008CF
:10013000D3020008D3020008D3020008D30200084B
:10014000D3020008D3020008D3020008D30200083B
:10015000D3020008D3020008D3020008ADBF000894
:10016000D3020008D3020008D3020008D30200081B
:10017000D3020008D30200080000000000000000C5
:10018000D3020008D30200086DB40008D3020008AF
:10019000D3020008D302000800000000D3020008C8
:1001A000D3020008D3020008000000000000000095
:1001B000D30200080000000000000000D302000885
:1001C000D3020008D3020008D3020008D3020008BB
:1001D000D3020008D302000800F002F800F05CF837
:1001E0000AA090E8000C82448344AAF10107DA4592
:1001F00001D100F051F8AFF2090EBAE80F0013F088
:10020000010F18BFFB1A43F00103184714D3000075
:1002100034D300000A444FF0000C10F8013B13F0F7
:10022000070408BF10F8014B1D1108BF10F8015B4F
:10023000641E05D010F8016B641E01F8016BF9D142
:1002400013F0080F1EBF10F8014BAD1C0C1B09D199
:100250006D1E58BF01F801CBFAD505E014F8016B0B
:1002600001F8016B6D1EF9D59142D6D3704700009D
:100270000023002400250026103A28BF78C1FBD8AF
:10028000520728BF30C148BF0B6070471FB50DF043
:10029000FFF81FBD10B510BD00F0F1F81146FFF7D3
:1002A000F5FF0CF018FC00F00FF903B4FFF7F2FFB4
:1002B00003BC00F017F900000948804709480047CF
:1002C000FEE7FEE7FEE7FEE7FEE7FEE7FEE7FEE706
:1002D000FEE7FEE704480549054A064B7047000063
:1002E000E1B20008D901000808150020081B002011
:1002F000081700200817002053EA020C00F069805C
:100300002DE9F04B4FF00006002B1FBFB3FA83F529
:1003100003FA05F424FA05F65E4012BF1643B2FA5A
:1003200082F502FA05F4C5F120051EBF22FA05FC8C
:1003300044EA0C04203556EA044C4FEA144418BF32
:10034000641C4FF000084FF00009904271EB030C61
:1003500039D3002919BFB1FA81F701FA07F6B0FACB
:1003600080F700FA07F6C7F120071EBF20FA07FC46
:1003700046EA0C062037B6FBF4FCA7EB0507103F56
:1003800007F01F0BCBF120060CFA0BFB2CFA06F63C
:1003900044BFB3460026202FA4BF5E464FF0000B9B
:1003A0005BEA060C08BF4FF0010B19EB0B09ABFB26
:1003B000027C48EB0608C01B06FB02CC0BFB03CCFF
:1003C00071EB0C01C1E70B46024641464846BDE8C9
:1003D000F08B13B54FF000004FF00001AFF3008039
:1003E000BDE81C4070474FF000020429C0F01280A5
:1003F00010F0030C00F01B80CCF1040CBCF1020FD8
:1004000018BF00F8012BA8BF20F8022BA1EB0C01AC
:1004100000F00DB85FEAC17C24BF00F8012B00F8A2
:10042000012B48BF00F8012B70474FF0000200B5C8
:10043000134694469646203922BFA0E80C50A0E807
:100440000C50B1F12001BFF4F7AF090728BFA0E8B5
:100450000C5048BF0CC05DF804EB890028BF40F881
:10046000042B08BF704748BF20F8022B11F0804FC3
:1004700018BF00F8012B70477047704770477546EA
:1004800000F02CF8AE4605006946534620F0070000
:10049000854618B020B5FFF71DFFBDE820404FF09E
:1004A00000064FF000074FF000084FF0000B21F05E
:1004B0000701AC46ACE8C009ACE8C009ACE8C0092B
:1004C000ACE8C0098D46704710B50446AFF3008014
:1004D0002046BDE81040FFF7E8BE00000048704726
:1004E000A414002001491820ABBEFEE7260002003C
:1004F0007047000010B51B48807DC0B91A480078CD
:1005000078B300201849087041F2214005F01EFE22
:100510001448416801200CF021FB1248007C03289C
:100520001FD11048817B00200CF022FA19E00E4800
:100530000078B0B901200C4908700A48C07D00F26B
:10054000072141F2214005F0D7FF0648007C03282F
:1005500003D1002101200CF00BFA002108460CF019
:10056000FDFA10BD040E00201B04002070B52DED17
:100570000A8B0446462C00DD4624002C00DA0024B9
:100580003C2C26DD462C24DC20460CF086FD41EC7C
:100590001C0B9FED560B53EC102B0CF091FD41EC16
:1005A0001B0B9FED540B53EC102B0CF049FB41EC53
:1005B000190BA4F10A000CF070FD41EC1A0B53EC7E
:1005C000192B0CF07DFD41EC180B0CF039FDC5B278
:1005D00088E0322C26DD3C2C24DC20460CF05DFD2E
:1005E00041EC1C0B9FED410B53EC102B0CF068FD04
:1005F00041EC1B0B9FED410B53EC102B0CF020FB3F
:1006000041EC190BA4F10A000CF047FD41EC1A0B68
:1006100053EC192B0CF054FD41EC180B0CF010FDB1
:10062000C5B25FE0282C25DB322C23DC20460CF001
:1006300034FD41EC1C0B9FED2D0B53EC102B0CF0FB
:100640003FFD41EC1B0B9FED2F0B53EC102B0CF0DF
:10065000F7FA41EC190B601F0CF01FFD41EC1A0B6F
:1006600053EC192B0CF02CFD41EC180B0CF0E8FCB2
:10067000C5B237E01E2C25DB282C23DA20460CF0EF
:100680000CFD41EC1C0B9FED190B53EC102B0CF0E7
:1006900017FD41EC1B0B9FED1D0B53EC102B0CF0C9
:1006A000CFFA41EC190BE01E0CF0F7FC41EC1A0BF1
:1006B00053EC192B0CF004FD41EC180B0CF0C0FCB2
:1006C000C5B20FE020460CF0E8FC41EC190B9FEDA1
:1006D000110B53EC102B0CF0F3FC41EC180B0CF04D
:1006E000AFFCC5B22846BDEC0A8B70BD7B14AE478B
:1006F000E17A943F9A9999999999F93FCDCCCCCCCC
:10070000CCCCFC3F666666666666FE3F66666666DD
:1007100066660240000000000000044010B5044678
:1007200009F00EFB10BD10B504460A2C3CD2DFE8E0
:1007300004F03B050B11171D23292F35642141F2CD
:10074000014005F0D9FE2FE0652141F2014005F09E
:10075000D3FE29E0662141F2014005F0CDFE23E001
:10076000672141F2014005F0C7FE1DE0682141F21A
:10077000014005F0C1FE17E0692141F2014005F09A
:10078000BBFE11E06A2141F2014005F0B5FE0BE02D
:100790006B2141F2014005F0AFFE05E06C2141F212
:1007A000014005F0A9FE00BF00BF10BD10B5044612
:1007B00004B3032027490874012007F0D3F901206E
:1007C0000BF0AAFF01200BF08DFF022007F0D9F9F2
:1007D00041F288301F4948600846416801200CF00A
:1007E000BDF928201B4988730846817B00200CF046
:1007F000BFF82DE0022017490874002007F0B2F975
:1008000002200BF089FF01200BF06CFF002007F0A5
:10081000B8F91148007A8C2804D14CF250300D49B7
:1008200048600BE00C48007A1C2803D10B480949AA
:10083000486003E042F2107006494860054841688C
:1008400001200CF08BF90348817B01200CF090F81B
:1008500010BD0000040E0020AC0D0020A086010099
:1008600010B5044601201749087094B1002007F024
:1008700051FB4FF4D4714FF4A25005F03DFE00201F
:100880000AF0C4FD1048C07BD8B1012007F06AF916
:1008900017E0022007F03EFB40F2A9114FF4A250EE
:1008A00005F02AFE03200AF0B1FD00231A4619467E
:1008B00018460CF037F900200349C873152006F0DC
:1008C000A1F910BD16040020040E002010B5404808
:1008D0000078B0B13F48807D98B940203E4988619A
:1008E0003E480078401C3D490870084600780828BA
:1008F00007DD00200870364908704FF48000364943
:1009000088613448807D002854D0FFF7F3FD3448D7
:100910000088401C32490880084600880A2803DC09
:1009200040202D4988613DE02D4800880A2808DDD7
:100930002B480088142804DC4FF480002649886185
:1009400030E027480088142807DD254800881E2845
:1009500003DC40202049886124E0214800881E28CB
:1009600008DD1F480088282804DC4FF480001A495D
:10097000886117E01A480088282807DD1848008891
:10098000322803DC4020144988610BE014480088B9
:10099000322807DD124800883C2803DC4FF4800031
:1009A0000D4988610E48008850280FDD00200C4951
:1009B00008800BE00648007818B94FF4800006491B
:1009C0008861002006490880FFF794FD10BD0000F3
:1009D00016040020040E0020000002401F04002026
:1009E0002004002010B5FFF771FF10BD10B50549B8
:1009F00005480BF0F7FE0A22002103480BF046FFE2
:100A000010BD0000E50900086C0D002008490978B8
:100A1000884200D170470649087018B14021054A44
:100A2000916103E04FF48001024A916100BFF1E758
:100A3000100000200000024000B5524890F8390034
:100A4000012836D150480078401C4F4908700846AC
:100A50000078352814D008DC01280FD00E2814D0D7
:100A60001B280CD028281BD110E042280FD04F287B
:100A700007D05C280CD0822812D10DE000BF00BF47
:100A800000BF0120FFF7C2FF0BE000BF00BF00BFA7
:100A90000020FFF7BBFF04E000203B49087000E0A6
:100AA00000BF00BF0020374981F83A00374908707D
:100AB00066E0344890F83A0001282FD100203249EE
:100AC000087032480078401C3049087008460078A9
:100AD0001F2813D006DC012809D00B280DD01528BB
:100AE0001AD105E0292804D0332815D10AE000BF27
:100AF00000BF0120FFF78AFF0FE000BF0020FFF7D3
:100B000085FF0AE00020FFF781FF00201D4981F8E2
:100B10003A001E49087000E000BF31E01948008E1D
:100B20000A2826DB00201849087018490870154863
:100B3000008E60B1642805D0C82807D0B0F5967F34
:100B400009D100BF0120FFF761FF05E000BF0020D1
:100B5000FFF75CFF00E000BF00BF0A48008E0A38C4
:100B6000084908860846008E50B90020FFF74EFF5E
:100B700006E000200449087004490870FFF746FFAA
:100B800000BD0000640400201100002012000020BD
:100B900010B504460A2C3CD2DFE804F03B050B11EB
:100BA000171D23292F35C82141F2024005F0A4FC6E
:100BB0002FE0C92141F2024005F09EFC29E0CA2144
:100BC00041F2024005F098FC23E0CB2141F20240C3
:100BD00005F092FC1DE0CC2141F2024005F08CFCB6
:100BE00017E0CD2141F2024005F086FC11E0CE2154
:100BF00041F2024005F080FC0BE0CF2141F20240BF
:100C000005F07AFC05E0D02141F2024005F074FCC9
:100C100000BF00BF10BD000000B585B014216846BC
:100C2000FFF703FC01229102564802F0FDFB00226F
:100C30004021554802F0F8FB01224FF4407153481F
:100C400002F0F2FB01224FF440714F4802F0ECFB3E
:100C50004FF48060009001200190029000200390EA
:100C60006946484802F0DCFA4020009001200190DB
:100C70000290002003906946434802F0D1FA3020E8
:100C800000901120019000200290022003906946FC
:100C90003E4802F0C5FA4FF4005000901120019038
:100CA00000200290022003906946394802F0B8FA09
:100CB0004FF48050009011200190002002900220FB
:100CC00003906946324802F0ABFA1C2000900020E5
:100CD00001900120029069462D4802F0A1FA0320FC
:100CE000009000200190012002906946284802F0FF
:100CF00097FA4FF48050009000200190012002905C
:100D00006946224802F08CFA4FF4407000900120AE
:100D1000019002900020039069461C4802F080FA7E
:100D20004FF4407000900120019002900020039049
:100D30006946154802F074FA4FF400400090012013
:100D400001900020029003906946124802F068FA70
:100D50004FF400400F49183108604FF440400090B4
:100D6000012001900290002003906946084802F09B
:100D700057FA4FF08040064918310860400008607B
:100D800005B000BD00100240000002400008024013
:100D9000000C02400004024070B5ACB000260025F3
:100DA0000024982106A8FFF740FB18216846FFF7AA
:100DB0003CFB06A80BF07AF9C5B2062D01DA2CB07F
:100DC00070BD0024C4E006A8005DAA287BD106A956
:100DD000201D085CEE2877D19DF81D00FF28FAD170
:100DE00001205E49087006A908190622694600F02C
:100DF000E5F99DF803000D2812D2DFE800F0A10705
:100E0000122F3C454E576B747D8893000120544946
:100E100081F837004FF4077141F2504005F06CFB48
:100E20008EE041F2504005F091F900204C4981F8E4
:100E3000370081F838000846807A28B10B2081F805
:100E40002000012081F839004548807D28B100202C
:100E500043498875C87581F8380071E04048807D45
:100E600000B1ACE73E4890F8370018B101203C498A
:100E700081F8380064E03A4890F8370018B1002053
:100E8000374981F838005BE0354890F8370018B1F1
:100E90000120334981F8200052E0314890F83700B2
:100EA00018B103202E4981F8200049E02C4890F821
:100EB000370070B12A480078012806D11920284946
:100EC00081F8200005E041E03BE01820244981F84A
:100ED000200035E0224890F8370018B10B20204957
:100EE00081F820002CE01E4890F8370018B10C2043
:100EF0001B4981F8200023E0194890F8370028B1F9
:100F0000012017494877072081F8200018E014488D
:100F100090F8370028B1012011494877052081F861
:100F200020000DE00E4890F8370048B10C48807D55
:100F300028B100200A498875C87581F8380000BFBB
:100F400000BF18216846FFF770FA38E7601CC4B28A
:100F5000681FA0423FF737AF00BF30E716040020FC
:100F6000040E002070B5C6B0002500244FF4807137
:100F700006A8FFF75AFA18216846FFF756FA002626
:100F800006A80BF027F8C5B20B2D01DA46B070BDEC
:100F9000002460E006A8005DAA285AD106A9081915
:100FA0000A2100F019F9064606A904F10A00095CB5
:100FB00006AA401C105C01EB0020B04249D106A9F2
:100FC00008190C22694600F0F9F89DF8070020B9CD
:100FD0000020244981F84D001DE00120214981F8BD
:100FE0004D0021480078012803D108201E49C8750A
:100FF00006E01D480078022802D109201A49C87568
:10100000012019498875002007F0D8FA00201649F8
:10101000C877887708779DF80100062809D2DFE8AD
:1010200000F008030405060704E003E002E000BF47
:1010300000E000BF00BF00200A4981F8360001200F
:1010400081F835000F216846FFF7EFF904F10C0035
:10105000C4B2601CC4B2A5F10B00A0429ADC00BF70
:1010600094E7000064040020040E00202DE9FE4FE8
:1010700004460D4616469846DDE90C9A1AA207CAA0
:101080008DE80700052C03DC062D01DC642E01DD54
:10109000BDE8FE8F8DF801508DF802608DF8034099
:1010A0004FEA19208DF8040009F0FF008DF80500C3
:1010B0008DF806804FEA1A208DF807000AF0FF002D
:1010C0008DF808000921684600F086F80746F8B256
:1010D0008DF80900380A8DF80A000B2168460AF0DD
:1010E000CDFF00BFD4E70000AA010001000001000D
:1010F00000000000FEB505460F46144614A207CABC
:101100008DE807008DF8017000208DF802008DF841
:101110000350200A8DF80400E0B28DF8050002208B
:101120008DF8060000208DF807008DF808000921D1
:10113000684600F051F80646F0B28DF80900300A12
:101140008DF80A000B2168460AF098FFFEBD0000EA
:10115000AA0100010000020000000000FEB50446E4
:101160000D4616461F46134A07CA8DE807000B2195
:1011700068460AF083FF02208DF80600052000F083
:1011800015F90B2168460AF079FF052000F00EF9E9
:1011900002208DF801000B2168460AF06FFF052040
:1011A00000F004F901208DF806000B2168460AF0D2
:1011B00065FFFEBDBCD4000800BFFEE710B50346C6
:1011C0000C46002100BF03E0585C6054481C81B20B
:1011D0009142F9DB104610BD70B502460D46FF2165
:1011E000FF23002409E012F8010B80EA03040748FA
:1011F000005D80EA01030648015D281EA5F1010695
:10120000B5B2F0D143EA012070BD00001300002008
:101210001301002010B503460C46002100BF02E078
:101220006354481C81B29142FADB104610BD0000A5
:1012300010B5024801F022FD10BD00002409002075
:1012400010B5024801F01AFD10BD0000A40A0020EC
:1012500010B5024801F012FD10BD0000C4080020C6
:1012600010B5024801F00AFD10BD000084090020FD
:1012700010B5024801F002FD10BD0000440A002034
:1012800010B5024801F0FAFC10BD0000040B00206C
:1012900010B5024801F0F2FC10BD0000E409002086
:1012A0000146087810381823B0FBF3F20848805C38
:1012B000C865032A05D908686FF30900001D886511
:1012C00003E008686FF309008865886D70470000C7
:1012D0009AD40008014600208A6A8B69CBB932B1E2
:1012E000012A0DD0022A03D0032A10D10EE000BF3C
:1012F000CB6A03F08073B3F1807F00D1012007E057
:10130000CB6AB3F1C07F00D1012001E000E000BF53
:1013100034E08B69B3F5005F1AD132B1012A07D0EE
:10132000022A03D0032A11D10AE000BF01200EE0F7
:10133000CB6A03F08073B3F1807F00D1012006E017
:10134000CB6AB3F1C07F00D1012000E000BF15E0FF
:1013500032B1012A05D0022A04D0032A0CD103E0BD
:1013600000BF00BF012008E0CB6A03F08073B3F137
:10137000807F00D1012000E000BF00BF704730B582
:101380000468246824F4802405682C600468636081
:101390008468402C04D10468A2600468E16003E022
:1013A0000468A1600468E26030BD704770B504460F
:1013B000002507E004F0CCFC40F2DE3000F006F837
:1013C000681C85B2A542F5DB70BD0000002100223B
:1013D000054B1B685A6203E0034A1268526A91B2D5
:1013E0008142F9DB70470000F405002010B5044687
:1013F0007B48807F00287DD17948C07D0028FAD1C4
:101400000D2C61D1764840780D2859D2DFE800F0E4
:101410005808090A0B1A1B0C573946070D0000BF64
:1014200000BF00BF00BF00BF00BF02200BF074F977
:1014300001200BF057F9002006F0A3FB01206949B9
:1014400008703DE000BF0120664908706448C07B19
:1014500048B902200BF060F901200BF043F900209D
:1014600006F08FFB0CE0002101200BF081FA022036
:101470000BF052F901200BF035F9012006F081FB49
:101480001EE001205749087002200BF045F90120A9
:101490000BF028F9002006F074FB11E001205149FF
:1014A000087002200BF038F901200BF01BF9012025
:1014B00006F067FB002101200BF05AFA00E010BD96
:1014C00000BF0220464908740E2C61D14448407880
:1014D0000D2859D2DFE800F05808090A0B1B1C0C34
:1014E000573A47070D0000BF00BF00BF00BF00BF55
:1014F00000BF00E071E001203A4908700BF00CF9E0
:1015000002200BF0EFF8002006F03BFB3CE000BFB0
:101510000120344908703248C07B48B901200BF0E3
:10152000FBF802200BF0DEF8002006F02AFB0CE0AE
:10153000002101200BF01CFA01200BF0EDF8022035
:101540000BF0D0F8012006F01CFB1DE001200BF091
:10155000E3F802200BF0C6F8002006F012FB012091
:101560002049087010E001201E4908700BF0D4F8E3
:1015700002200BF0B7F8012006F003FB0021012048
:101580000BF0F6F900E09AE700BF01201449087457
:101590000F2C22D112484078052807D010484078F7
:1015A000062803D00E4840780A2816D10C48C07B84
:1015B000012812D10B4908700948817B00200BF0EB
:1015C000D7F901200BF0A8F801200BF08BF80220CE
:1015D00006F0D7FA03200249087400BF6FE7000045
:1015E000040E00201604002010B5054905480BF034
:1015F000F9F83722002103480BF048F910BD00002C
:10160000B36700082C0C002010B5054905480BF005
:10161000E9F83222002103480BF038F910BD000030
:10162000A96700080C0C002010B504F05DF810BD8F
:1016300070B506460C46154608E03046721C96B258
:1016400003F0E0FF04F8010B681E85B2002DF4D111
:1016500070BD70B506460C46154608E014F8011B2F
:101660003046731C9EB203F0FCFF681E85B2002D4D
:10167000F4D170BD10B54FF4806001F0C3FD4FF49C
:10168000006001F0BFFD10BD704772B600BFFEE7FD
:1016900010B504461A2C02D01B2C08D103E00120FF
:1016A00008F05CFC03E0022008F058FC00BF00BF1B
:1016B00010BD000010B5002201B909E0012901D1D7
:1016C0000A0205E0022901D10A0201E04FF440724A
:1016D0000E4B1B6823F440730C4C236023461B689D
:1016E0001343236023461B6823F0780323602346BB
:1016F0001B68022444EAC0042343044C23602346AD
:101700001B6843F48033236010BD0000103C02408E
:101710001C48006800F40070B0B11A48006820F45A
:1017200000701849086000BF0846006840F4006077
:1017300008600846006820F40060086000BF0846A2
:10174000006840F4007008600E48006800F4806093
:10175000B0B10C48006820F480600A49086000BFFE
:101760000846006840F4805008600846006820F48D
:101770008050086000BF0846006840F48060086040
:1017800070470000003C02400A4A126822F440728E
:10179000084B1A601A46126842F004021A601A4690
:1017A00012684FF4803343EA00231A43014B1A6056
:1017B00070470000103C0240074A126822F4407251
:1017C000054B1A601A4612681A601A46126842F0EF
:1017D00001021A6001707047103C024010B50A49BE
:1017E000096821F44071084C21602146096841F4E0
:1017F000407121602146096841F0010121600260C9
:10180000BFF36F8F436010BD103C0240084A12685E
:1018100022F44072064B1A601A46126842F4807233
:101820001A601A46126842F001021A60018070477D
:10183000103C0240084A126822F44072064B1A60BB
:101840001A46126842F400721A601A46126842F090
:1018500001021A6001607047103C02402A4800688B
:1018600000F0100040B12948C06940F0100027493D
:10187000C8611020244908602348006800F0200057
:1018800040B12248C06940F008002049C8612020CA
:101890001D4908601C48006800F0400040B11B482A
:1018A000C06940F004001949C86140201649086029
:1018B0001548006800F0800040B11448C06940F04D
:1018C00002001249C86180200F4908600E48006874
:1018D00000F4807048B10D48C06940F001000B4928
:1018E000C8614FF48070084908600748006800F03C
:1018F000020040B10548C06940F020000349C861BA
:1019000002200149086070470C3C0240AC0B0020EB
:1019100070B50446002500201449C86101F08AFD15
:10192000054609E0601C38B124B101F083FD401B7D
:10193000A04201D9032070BD0D48006800F480303A
:101940000028EFD10A48006800F0010010B1012022
:10195000074908600648006800F4F97018B1FFF7FD
:101960007DFF0120E7E70020E5E70000AC0B002049
:101970000C3C024010B50446074890F8370000B10F
:1019800010BD0548407C032800D1F9E700F03CF980
:1019900000F05AFB00BFF3E7040E002001461C488C
:1019A000814201D2002070471A48814201D20120B1
:1019B000F9E71948814201D20220F4E71748814231
:1019C00001D20320EFE71648814201D20420EAE762
:1019D0001448814201D20520E5E71348814201D233
:1019E0000620E0E71148814201D20720DBE71048DA
:1019F000814201D20820D6E70E48814201D2092057
:101A0000D1E70D48814201D20A20CCE70B20CAE77A
:101A1000004000080080000800C000080000010825
:101A20000000020800000408000006080000080882
:101A300000000A0800000C0800000E0870B50346FC
:101A40000C46154600221E4600BF07E0304606F051
:101A500002FF44F82200361D501C82B2AA42F5DB78
:101A600070BD2DE9F04F87B00446884691460020AE
:101A70000190254604EB0906824600900027834624
:101A8000B5F1006F02D3B6F1016F04D34FF0FF3010
:101A900007B0BDE8F08F01F07DFB2846FFF77EFF21
:101AA00082463046FFF77AFFA0EB0A00401C009008
:101AB000012003900020029002200690CDF810A093
:101AC0000098059001A902A801F0B8FA10B16FF0D2
:101AD0000100DDE72F460FE058F82BC062460023D7
:101AE0003946022001F00AFB18B90BF1010B3F1D2A
:101AF00002E06FF00200CBE7B742EDD301F0F4FA59
:101B00000020C5E72948C07D00284BD12748007E2A
:101B1000032806D1012025494877052081F82000B7
:101B200040E02248007E022804D10B201F4981F8A2
:101B3000200037E01D48C07C10B91C48007D18B358
:101B40001A48007E012805D118494877072081F8F6
:101B5000200027E01548007E052804D116201349EF
:101B600081F820001EE01148007E06281AD10F4897
:101B70000078022809D10D4890F82200012811D1DF
:101B800018200A4981F820000CE008480078012854
:101B900008D1064890F82200012803D119200349F2
:101BA00081F820000020014908767047040E0020CB
:101BB00000B5044890F8370000B100BDFFF7A2FF60
:101BC00000BFFAE7040E002010B5054905480AF0E9
:101BD00009FE1E22002103480AF058FE10BD000035
:101BE000B11B00084C0D002010B5054905480AF04E
:101BF000F9FD1922002103480AF048FE10BD00003B
:101C0000751900084C0C002010B5FE48407E401CA1
:101C1000FC4948760846407E142801DD00200876FD
:101C2000F848007E012812D10020F7490870F748D3
:101C30000078401CF549087008460078032825DB29
:101C40000120F34988740020F04908701EE000204C
:101C5000EE490870EC480078401CEB4908700846D3
:101C60000078032812DB00200870E949887481F8A5
:101C700021000120E74908700020E54981F8220091
:101C80000846C07F10B9002088778862E048807CD1
:101C900018B30120E0490870E048007800281BD004
:101CA0000120DF4908700020DC4908700120D84974
:101CB000487481F8210002200AF078FFD448407867
:101CC000052803D101200AF08DFF02E000200AF070
:101CD00089FF01200AF0A2FF6EE0CF4800780028BB
:101CE00036D00120CE4908700020C94981F824006F
:101CF000C94908700AF05AFFC548407BA8B9C448D2
:101D0000007F90B10020C249087706F057FCC04818
:101D10004078052803D102200AF064FF02E0002089
:101D20000AF060FF01200AF079FFB94840780528E1
:101D30000BD10220B649487400200AF037FF022078
:101D40000AF050FF01200AF069FF0020AD494882E7
:101D50000120B2490870AE48C07D012817D0AC48B8
:101D6000C07D022813D0AA48C07D03280FD0A84800
:101D7000C07D04280BD0A648C07D0B2807D0A448FE
:101D8000C07D0C2803D0A248C07D0D2804D10020BE
:101D90009F49C87588750FE09D48C07D082803D00D
:101DA0009B48C07D092807D19948407C012803D170
:101DB00000209749C8758875954890F8210000283B
:101DC00013D09448007800287DD0914890F82200E4
:101DD000012869D193480078401C92490870084650
:101DE0000078012802D106F03BFB27E18D480078FE
:101DF000032802D106F034FB20E18A480078052848
:101E000002D106F01DFB19E186480078072802D1AF
:101E100006F016FB12E183480078092802D106F08B
:101E20002FFB0BE17F4800780B2802D106F028FB3E
:101E300004E17C4800780E28D7D10020754908704D
:101E40007048808840F2EE21884214DD6D48808819
:101E500040F2B63188420EDA6A484088B0F5FA7F1F
:101E600009DD68484088B0F52F7F04DA0120684911
:101E700081F82400E2E00B206549C87501208875CF
:101E8000002081F824000846407B0028ADD00020C7
:101E9000487306F093FB5E48C17A01200AF08BFD7F
:101EA00001200AF04BFDC9E0594890F822000228B1
:101EB0009BD15D480078401C5B490870084600785B
:101EC000012804D100E0B4E006F0CAFA4BE056481D
:101ED0000078032802D106F0C3FA44E052480078A3
:101EE000052802D106F0ACFA3DE04F4800780728FB
:101EF00002D106F0A5FA36E04B480078092802D155
:101F000006F0BEFA2FE0484800780B2802D106F010
:101F1000B7FA28E0444800780D2802D106F0B8FA54
:101F200021E0414800780F2802D106F0B1FA1AE00A
:101F30003D480078112802D106F09AFA13E03A4899
:101F40000078132802D106F093FA0CE036480078A6
:101F5000152802D106F07CFA05E0334800781728EE
:101F600001D106F075FA304800781A2866D10020B1
:101F7000284908702348008A40F2EE2188422ADD71
:101F80002048008A40F2B631884224DA1D48808910
:101F9000B0F5FA7F1FDD1B488089B0F52F7F1ADA74
:101FA0001848C08940F2EE21884214DD1548C089E6
:101FB00040F2B63188420EDA12484089B0F5FA7F15
:101FC00009DD10484089B0F52F7F04DA012010495F
:101FD00081F8240032E00C200D49C8750120887575
:101FE000002081F824000846407B50B1002048734F
:101FF00006F0E4FA0648C17A01200AF0DCFC012070
:1020000014E01BE0D40F00202C0200202B02002043
:10201000040E0020280200202A02002029020020AD
:10202000160400202E0200202F0200200AF086FC59
:1020300004E00020024908700249087010BD000049
:102040002E0200202F0200201048007F062818D200
:10205000DFE800F01703070B0F1306200C49087682
:102060000FE005200A4908760BE0012008490876B0
:1020700007E003200649087603E0022004490876B9
:1020800000BF00BF0020014908777047D40F00202F
:10209000040E00202DE9F0470027B8460024002553
:1020A0000026FC4890F8370008B1BDE8F087F948F1
:1020B00090F82200012803D1F748B0F8008002E030
:1020C000F5480588C488F34890F8240000287CD09F
:1020D000F048807D002877D1EE48407C0128FAD175
:1020E000EC480078012871D1EA4890F822000128D4
:1020F0006DD1E9484089404505DAE7484089A8EBB9
:10210000000087B200E00027322F6DDDE148407B00
:1021100001280AD10020DF4948730846C17A01200E
:102120000AF049FC01200AF009FC0120D94908778E
:10213000C87AFEF71BFA8146484606F03FFAD648B1
:10214000408A40450CDAD448C089404502DAD2487A
:10215000B0F80E80D048408AA8EB000087B200E0BB
:102160000027142F3BDDCB484668CB48C089CA49BD
:10217000498A411A3239C848408AA8EB000014380D
:102180007043B0FBF1F00A21B0FBF1F0C149886265
:102190000A20B6FBF0F0896A884204D20A20B6FB16
:1021A000F0F0BC498862BB4890F8360080B1BB486B
:1021B0000078401CB949087008460078322803DDD1
:1021C0000020B44981F83600B3E2CAE26EE124E0AF
:1021D0000020B24908700120AE498877A9E20020AA
:1021E000AC4988628877A4E20020AA4908770846AB
:1021F000407B10B9002006F0E1F90020A549886273
:1022000088770846807D0028DED00846C07D0828F3
:10221000DAD100208875C8758BE29E4890F82200BC
:102220000228D1D19C488089A84204DA9A48808942
:10223000281A87B200E00027142F67DD9548407BFD
:1022400001280AD10020934948730846C17A012029
:102250000AF0B1FB01200AF071FB01208D490877DB
:10226000C87AFEF783F98146484606F0A7F98A48FE
:10227000808AA8420ADA8848008AA84201DA864899
:10228000058A8548808A281A87B200E00027142F23
:1022900037DD804846688048008A7F49898A411A2C
:1022A00032397D48808A281A14387043B0FBF1F027
:1022B0000A21B0FBF1F0774988620A20B6FBF0F002
:1022C000896A884204D20A20B6FBF0F0714988621C
:1022D000704890F8360068B170480078401C6F492B
:1022E00008700846007832281FDD0020694981F80F
:1022F00036001AE000206949087001206549887796
:1023000013E000206349887788620EE0614890F806
:10231000330050B900205F49887788620877084603
:10232000407B10B9002006F049F95A48007D00288A
:1023300077D15B49087058484089A04204DA564872
:102340004089201A87B200E00027142F70DD012099
:10235000504981F833000846407B012809D100200C
:1023600048730846C17A01200AF025FB01200AF0D3
:10237000E5FA012047490877C87AFEF7F7F8814661
:10238000484606F01BF94448408AA0420ADA42480F
:10239000C089A04201DA4048C4893F48408A201AD7
:1023A00087B200E00027142F3DDD3A4846683A48DE
:1023B000C0893949498A411A32393748408A201A36
:1023C00014387043B0FBF1F00A21B0FBF1F0314951
:1023D00088620A20B6FBF0F0896A884204D20A209B
:1023E000B6FBF0F02B4988622A4890F8360068B1B5
:1023F0002A480078401C294908700846007832288D
:102400000ADD0020234981F8360005E00020234939
:10241000087001201F49887701201E4981F8330088
:1024200087E11AE004E000201A498862887780E199
:10243000184890F833000128F2D100201549087798
:102440000846407B10B9002006F0B8F8002011497A
:102450008862887781F833006BE10F484089A04299
:1024600004DA0D484089201A87B200E00027142FB3
:1024700018DD0B480078401C0949087008460078B0
:102480004628CDDD1920034981F8200000200449A9
:1024900008704EE1040E0020D40F0020300200200E
:1024A000310200200020FE49087042E1FD4800781A
:1024B0000228B5D1FB4890F82200012800D14446FB
:1024C000F9484089A04204DAF7484089201A87B2C7
:1024D00000E00027142F67DDF248407B01280AD175
:1024E0000020F04948730846C17A01200AF063FAD7
:1024F00001200AF023FA0120EA490877C87AFEF79A
:1025000035F88146484606F059F8E748408AA04227
:102510000ADAE548C089A04201DAE348C489E24802
:10252000408A201A87B200E00027142F37DDDD48EB
:102530004668DD48C089DC49498A411A3239DA489F
:10254000408A201A14387043B0FBF1F00A21B0FB26
:10255000F1F0D44988620A20B6FBF0F0896A88421B
:1025600004D20A20B6FBF0F0CE498862CD4890F83C
:10257000360068B1CD480078401CCC490870084648
:102580000078322821DD0020C64981F836001CE0A1
:102590000020C64908700120C249887715E0002054
:1025A000C0498862887710E0BE4890F8320060B970
:1025B0000020BC4908770846407B10B9002005F090
:1025C000FDFF0020B74988628877B648C07C0028A4
:1025D00071D1B7490870B4488089A84204DAB2487A
:1025E0008089281A87B200E00027142F69DD0120B6
:1025F000AC4981F832000846407B012809D100200F
:1026000048730846C17A01200AF0D5F901200AF082
:1026100095F9A449C87AFDF7A9FF8146484605F017
:10262000CDFFA148808AA8420ADA9F48008AA842C2
:1026300001DA9D48058A9C48808A281A87B200E002
:102640000027142F38DD974846689748008A964936
:10265000898A411A32399448808A281A143870437A
:10266000B0FBF1F00A21B0FBF1F08E4988620A203C
:10267000B6FBF0F0896A884204D20A20B6FBF0F07B
:1026800088498862874890F8360068B187480078A2
:10269000401C8649087008460078322849DD002031
:1026A000804981F8360044E000208049087001200C
:1026B0007C4988773DE01CE000207A498877886271
:1026C00037E0784890F83200012832D1002075496F
:1026D00081F83200084690F8330030BB002088773C
:1026E000886208770846407BF8B9002005F066FF4D
:1026F0001FE06D488089A84204DA6B488089281A57
:1027000087B200E00027142F10DD69480078401CD4
:10271000674908700846007832280ADD18206149A8
:1027200081F8200000206249087002E00020604922
:1027300008705C4890F8220001286FD15A484089FF
:10274000404542DA58484089A8EB0000142814DDBF
:102750005448007830B901205249C8758875002066
:102760008877E0E14F48407C0228FAD14D49C8758E
:102770000120887500208877D5E14A48C07D01286E
:1027800003D04848C07D022804D100204549C875BF
:10279000887588774348407C01280CD14148C07D2A
:1027A000082803D03F48C07D092804D100203D49B6
:1027B000C875887588773B48C07D0D28D1D1002029
:1027C0003849C87588758877ADE13648C07D0128DD
:1027D00003D03448C07D022804D100203149C87597
:1027E000887588772F48407C01280CD12D48C07D02
:1027F000082803D02B48C07D092804D1002029498E
:10280000C875887588772748C07D0D28A9D1002014
:102810002449C8758875887785E1FFE7214890F8D5
:10282000220002289DD120484089A04273DA1E4828
:102830004089201A142814DD1A48007830B9012084
:102840001849C875887500208877B2E01548407C23
:10285000022805D11349C8750120887500208877A2
:10286000A7E01048C07D012803D00E48C07D022893
:1028700003D100200B49C87588750A4800780128E3
:102880001DD00848C07D092823D10648407C012876
:102890001FD1044890F8320068B90020014909E0CE
:1028A00031020020040E0020D40F0020300200204E
:1028B00032020020C87500209C49887509E09B48B9
:1028C00090F83300012804D100209849C875887514
:1028D00088779648C07D0D286BD1944800780228EF
:1028E00009D1924890F83200C0BB00208F49C875CA
:1028F000887588775DE08D480078012859D18B482C
:1029000090F83300012854D100208849C875887593
:1029100088774EE0FFE78548C07D012803D08348D3
:10292000C07D022804D100208049C8758875887749
:102930007E480078012812D07C48C07D092818D133
:102940007A48407C012814D1784890F8320080B948
:1029500000207649C875887588770AE029E07348B1
:1029600090F83300012804D100207049C87588759B
:1029700088776E48C07D0D281BD16C4800780228EE
:1029800009D16A4890F8320098B900206749C875A3
:10299000887588770DE065480078012809D163487B
:1029A00090F83300012804D100206049C87588756B
:1029B00088775F488089A84267DA5D488089281A4D
:1029C000142816DD5948007838B903205749C875CE
:1029D0000120887500208877A5E05448407C0228B3
:1029E00006D104205149C8750120887500208877D8
:1029F00099E04E48C07D032803D04C48C07D042890
:102A000003D100204949C8758875484800780228D4
:102A100010D04648C07D082816D14448407C012883
:102A200012D1424890F8330070B900203F49C87570
:102A3000887509E03D4890F83200012804D1002053
:102A40003A49C875887588773848C07D0D286AD19D
:102A500036480078012809D1344890F83300B8BBD3
:102A600000203249C875887588775CE02F48007867
:102A7000022858D12D4890F83200012853D1002067
:102A80002A49C875887588774DE02848C07D032895
:102A900003D02648C07D042804D100202349C875EE
:102AA0008875887721480078022812D01F48C07D99
:102AB000082818D11D48407C012814D11B4890F8E3
:102AC000330080B900201949C875887588770AE0F5
:102AD00029E0164890F83200012804D1002013495B
:102AE000C875887588771148C07D0D281BD10F489F
:102AF0000078012809D10D4890F8330098B90020DA
:102B00000A49C875887588770DE00848007802285A
:102B100009D1064890F83200012804D10020034969
:102B2000C8758875887700BFFFF7BFBA040E00200C
:102B3000D40F002010B50549054809F053FE0A22BC
:102B40000021034809F0A2FE10BD000095200008F6
:102B50006C0C002010B504461148007C03281ED1DF
:102B6000012010490870092C0BD10D48807B401DB5
:102B70000B4988730846807B28280BDD2820887342
:102B800008E00748807B052804DD0548807B401F5E
:102B9000034988730248817B002009F0E9FE10BDDB
:102BA000040E00201604002070B50446A56D00F048
:102BB00041FC064694F83500022808D08020606564
:102BC00000BF002084F8340000BF012070BD2068E1
:102BD000006820F01600216808602068406920F035
:102BE000800021684861206C08B9A06C28B1206879
:102BF000006820F00800216808602068006820F064
:102C000001002168086010E000F014FC801B05281A
:102C10000BD920206065032084F8350000BF002018
:102C200084F8340000BF0320D0E72068006800F07B
:102C300001000028E8D194F85C103F208840A8608B
:102C4000012084F8350000BF002084F8340000BF64
:102C500000BFBBE7014691F83500022803D0802071
:102C6000486501207047052081F835000868006834
:102C700020F001000A6810600020F3E7F8B5044670
:102C8000002000908C4800684FF41651B0FBF1F71B
:102C9000A56D2E6894F85C1008208840304098B1EB
:102CA0002068006800F0040070B12068006820F01F
:102CB00004002168086094F85C1008208840A8602F
:102CC000606D40F00100606594F85C100120884060
:102CD000304068B12068406900F0800040B194F84D
:102CE0005C1001208840A860606D40F002006065C3
:102CF00094F85C1004208840304068B12068006877
:102D000000F0020040B194F85C1004208840A860F4
:102D1000606D40F00400606594F85C1010208840FD
:102D2000304078B32068006800F0080050B394F891
:102D30005C1010208840A8602068006800F48020A3
:102D400080B12068006800F4002028B9206CC8B168
:102D50002046216C884715E0A06C98B12046A16CF4
:102D600088470FE02068006800F4807028B9206868
:102D7000006820F0080021680860206C10B120462F
:102D8000216C884794F85C1020208840304000284F
:102D900065D02068006800F0100000285FD094F82B
:102DA0005C1020208840A86094F83500052828D1C0
:102DB0002068006820F016002168086020684069DB
:102DC00020F0800021684861206C08B9A06C28B10F
:102DD0002068006820F008002168086094F85C1002
:102DE0003F208840A860012084F8350000BF002003
:102DF00084F8340000BF206D10B12046216D884753
:102E0000F8BD2068006800F4802080B12068006868
:102E100000F4002028B9606C10B12046616C88472E
:102E20001DE0E06BD8B12046E16B884717E02068D1
:102E3000006800F4807068B92068006820F0100015
:102E400021680860012084F8350000BF002084F864
:102E5000340000BFE06B10B12046E16B8847606D25
:102E600038B3606D00F00100F0B1052084F8350042
:102E70002068006820F001002168086000BF009809
:102E8000401C0090B84200D905E02068006800F0BE
:102E900001000028F3D100BF012084F8350000BFF5
:102EA000002084F8340000BFE06C10B12046E16CD3
:102EB000884700BFA4E700000C0000202DE9F04186
:102EC0000446002500F0B6FA074614B90120BDE813
:102ED000F081606A00B100BF022084F8350000BFB5
:102EE000002084F8340000BF2068006820F0010052
:102EF000216808600AE000F09DFAC01B052805D98A
:102F000020206065032084F83500E0E72068006831
:102F100000F001000028EED1206805682148054036
:102F2000D4E901010843E168084321690843616964
:102F30000843A1690843E1690843216A084305433E
:102F4000606A042803D1D4E90B01084305432068D3
:102F500005602068456925F00705606A0543606AD9
:102F600004280DD1A06A0543E06A48B12046FEF767
:102F7000B1F928B140206065012084F83500A6E74A
:102F8000206845612046FEF78BF9064694F85C10F0
:102F90003F208840B06000206065012084F8350043
:102FA000002094E73F8010E02DE9F04704460D46ED
:102FB00016461F464FF00008D4F8589000BF94F80A
:102FC0003400012802D10220BDE8F087012084F8F6
:102FD000340000BF94F83500012825D1022084F880
:102FE0003500002060653B46324629462046FEF704
:102FF000C6F994F85C103F208840C9F808002068A2
:10300000006840F0160021680860206C28B1206834
:10301000006840F00800216808602068006840F0FF
:1030200001002168086006E000BF002084F8340039
:1030300000BF4FF002084046C6E700002DE9F0410E
:1030400004460E460127002500BF2548007E0128C2
:1030500002D10220BDE8F08101202149087600BF9D
:103060004CF25030FEF754FC0746002F31D1401E81
:103070003060206801280FD1207C6168FEF784FB56
:103080004CF25030FEF744FC07461648006820F02A
:103090000400144908601AE0A56812E0217C284663
:1030A000FEF708FB4CF25030FEF732FC07460D48A5
:1030B000006820F07A000B4908600FB1356005E028
:1030C0006D1CD4E902100844A842E7D800BFFEF7FF
:1030D0001FFB00BF00200249087600BF3846B9E751
:1030E000AC0B0020103C02400348006840F0004058
:1030F0000149086000207047103C02402DE9F04172
:1031000006460F4614461D464FF0010800BF1F48F3
:10311000007E012802D10220BDE8F08101201B4978
:10312000087600BF4CF25030FEF7F2FB8046B8F153
:10313000000F23D126B9E1B23846FEF73DFB12E07D
:10314000012E04D1A1B23846FEF760FB0BE0022E3F
:1031500004D121463846FEF76DFB04E022462B469B
:103160003846FEF73BFB4CF25030FEF7D1FB804671
:103170000748006820F001000549086000BF0020F2
:103180000249087600BF4046C6E70000AC0B0020AD
:10319000103C024000200949096801F0004159B182
:1031A0000749064A0C3A116006491160034909684B
:1031B00001F0004101B1012070470000103C0240C5
:1031C00023016745AB89EFCDB0F5806F0BD0B0F52B
:1031D000006F11D10A49497809B9012100E00021A5
:1031E000074A517009E00649097809B9012100E050
:1031F0000021034A117000E000BF00BF70470000CB
:103200003702002010B5044604480068204020B171
:10321000024804602046FFF7D7FF10BD143C014070
:10322000F8B502460B460025002400200021D1E01D
:10323000012606FA01F51E6806EA0504AC4274D1BF
:103240001E7906F00306012E04D01E7906F003064F
:10325000022E13D190684F000326BE40B0434F00AA
:10326000DE68BE4030439060506801268E40B04317
:103270001E79C6F300168E40304350601E7906F06A
:103280000306032E09D0D0684F000326BE40B0438A
:103290004F009E68BE403043D0601E7906F00306A2
:1032A000022E13D1CF0802F1200656F827004E0750
:1032B000F70E0F26BE40B0434F07FF0E1E69BE40FB
:1032C0003043CF0802F1200646F8270010684F006F
:1032D0000326BE40B0431E7906F003064F00BE40F1
:1032E000304310605E6806F44036002E71D000BF97
:1032F00000260096394E366846F48046374F3E60C9
:103300003E46366806F48046009600BF00BF344E45
:103310008F0856F827008E07370F0F26BE40B043A0
:10332000304EB24202D100261FE052E02E4EB24291
:1033300001D1012619E02D4EB24201D1022614E03E
:103340002B4EB24201D103260FE02A4EB24201D1E8
:1033500004260AE0284EB24201D1052605E0274E98
:10336000B24201D1062600E007268F073F0FBE407C
:1033700030431B4E8F0846F82700214E3068A0438B
:103380005E6806F4801606B120431D4E3060361D7F
:103390003068A0435E6806F4001606B12043184E5C
:1033A000361D3060164E361F3068A0435E6806F446
:1033B000003606B12043124E361F3060361F30688B
:1033C000A0435E6806F4803606B120430C4E083EEA
:1033D0003060491C1029FFF42BAFF8BD443802407F
:1033E000083801400000024000040240000802408A
:1033F000000C02400010024000140240001802407D
:10340000083C0140024613690B400BB1012000E06B
:103410000020704710B5426921EA020302EA010464
:1034200043EA0443836110BD0AB1816101E00B04EA
:103430008361704701480068704700000000002069
:103440000348006803490978084401490860704747
:10345000000000200800002010B50D48006840F46E
:1034600000700B4908600846006840F480600860FE
:103470000846006840F480700860032000F0DAF825
:103480000F2000F007F800F05FF8002010BD0000EA
:10349000003C02402DE9F04188B004460027B846C0
:1034A00000BF002001902348006840F0100021492F
:1034B00008600846006800F01000019000BF00BFDF
:1034C00002A903A800F08CF9069F1FB900F0B0F91B
:1034D000054602E000F0ACF945001748B5FBF0F0F6
:1034E000A0F1010815481649086040F2E731144878
:1034F000C160C0F80480002101618160816100F039
:10350000C3FC064696B90E4800F09AFD06466EB911
:10351000362000F03DF8102C07D20022214636203C
:1035200000F04AF80748046000E00126304608B081
:10353000BDE8F0814038024040420F0000100040DA
:10354000640B00200400002008B500BF002000909C
:103550000E48006840F480400C4908600846006846
:1035600000F48040009000BF00BF00BF002000902A
:10357000081F006840F08050091F08600846006876
:1035800000F08050009000BF00BF08BD44380240EA
:103590000146084600280DDB00BF00BF00F01F03F6
:1035A00001229A4043099B0003F1E023C3F8002164
:1035B00000BF00BF00BF70472DE9F05F80460D4699
:1035C0001646002709F072F8074639462A46334660
:1035D00001F00700C0F1070ABAF1040F02D94FF059
:1035E000040A01E0C0F1070AD14600F1040ABAF169
:1035F000070F02D24FF0000A01E0A0F1030AD446FF
:103600004FF0010A0AFA09FAAAF1010A0AEA020AC3
:103610000AFA0CFA4FF0010B0BFA0CFBABF1010BA1
:103620000BEA030B4AEA0B042146404609F046F830
:10363000BDE8F09F00BF00F00702064B19684FF687
:10364000FF031940044B0B4343EA0221014B19606D
:1036500000BF70470CED00E00000FA0570B50446AD
:103660000D460CB9012070BD5848006800F00700F5
:10367000A84209D255490D700846006800F00700BD
:10368000A84201D00120EEE7207800F002000228D5
:103690001DD1207800F00400042805D14C480068B2
:1036A00040F4E0504A490860207800F008000828FB
:1036B00005D14748006840F46040454908604448E7
:1036C000006820F0F000A1680843414908602078B4
:1036D00000F00100A8B36068012807D13C48083811
:1036E0000068C0F34040B8B90120BCE76068022818
:1036F00002D06068032807D1354808380068C0F355
:10370000406048B90120AEE7314808380068C0F38E
:10371000400008B90120A6E72D48006820F003000A
:10372000616808432A490860FFF784FE064609E0FD
:10373000FFF780FE801B41F28831884202D90320C6
:1037400091E707E02248006800F00C006168B0EBE8
:10375000810FEDD11D48006800F00700A84209D98B
:103760001A490D700846006800F00700A84201D011
:10377000012078E7207800F00400042807D11448DD
:10378000006820F4E050E16808431149086020789F
:1037900000F00800082808D10D48006820F46040B7
:1037A000216940EAC1000A49086000F061F808494F
:1037B0000968C1F30311074A515CC8400649086013
:1037C00006480068FFF766FE00204CE7003C024018
:1037D00008380240A2D400080C0000200400002099
:1037E0000F2202600D4A126802F0030242600B4A87
:1037F000126802F0F0028260084A126802F4E05295
:10380000C260064A126802F46042D2080261044AA9
:10381000126802F007020A60704700000838024090
:10382000003C024001480068704700000C00002086
:1038300000B5FFF7F7FF04490968C1F38221034A85
:10384000515CC84000BD000008380240B2D40008F6
:1038500000B5FFF7E7FF04490968C1F34231034AA5
:10386000515CC84000BD000008380240B2D40008D6
:103870002DE9F047002400250026A14625480068D0
:1038800000F00C0020B1042805D008283AD105E04A
:10389000DFF8849039E0DFF8849036E01D48001F9F
:1038A000006800F03F041B48001F006800F480001F
:1038B00078B11A481749091F0968C1F38811A0FB9C
:1038C00001700146224600233846FCF715FD0546E7
:1038D0000EE011480F49091F0968C1F38811A0FBC8
:1038E00001700146224600233846FCF705FD0546D7
:1038F0000848001F0068C0F30140401C4600B5FBAB
:10390000F6F902E0DFF8109000BF00BF4846BDE8BE
:10391000F0870000083802400024F40000127A000A
:10392000F8B504460CB90120F8BD207800F001007C
:10393000002874D0F748006800F00C0004280DD06F
:10394000F448006800F00C00082813D1F148001F6B
:10395000006800F48000B0F5800F0BD1ED48083806
:103960000068C0F34040002859D06068002856D154
:103970000120D9E700BF6068B0F5803F08D1E54875
:103980000838006840F48030E249083908601EE0D9
:103990006068B0F5A02F0DD1DE480838006840F40B
:1039A0008020DC49083908600846006840F480300F
:1039B00008600CE0D7480838006820F48030D5490A
:1039C000083908600846006820F48020086000BFBD
:1039D000606890B1FFF72EFD054606E0FFF72AFD6F
:1039E000401B642801D903209EE7CA4808380068B4
:1039F000C0F340400028F1D011E0FFF71BFD054661
:103A000006E0FFF717FD401B642801D903208BE770
:103A1000C04808380068C0F340400028F1D1207841
:103A200000F0020002285FD1BA48006800F00C00E4
:103A300058B1B848006800F00C0008281CD1B548FF
:103A4000001F006800F48000B0B9B2480838006870
:103A5000C0F3400020B1E068012801D0012063E7F5
:103A6000AC480838006820F0F800216940EAC1003D
:103A7000A8490839086037E0E06800B30120A6498A
:103A80000860FFF7D7FC054606E0FFF7D3FC401BB4
:103A9000022801D9032047E79E4808380068C0F390
:103AA00040000028F1D09B480838006820F0F8005A
:103AB000216940EAC10097490839086014E00020F4
:103AC00095490860FFF7B6FC054606E0FFF7B2FC33
:103AD000401B022801D9032026E78E4808380068D9
:103AE000C0F340000028F1D1207800F00800082839
:103AF0002CD16069A8B1012088490860FFF79AFCC1
:103B0000054606E0FFF796FC401B022801D903207A
:103B10000AE780486C300068C0F340000028F1D00C
:103B200014E000207D490860FFF784FC054606E0AC
:103B3000FFF780FC401B022801D90320F4E67548FA
:103B40006C300068C0F340000028F1D1207800F00C
:103B50000400042870D100276E483830006800F057
:103B6000805090B900BF002000906A48383000684B
:103B700040F080506749383108600846006800F01E
:103B80008050009000BF00BF01276548006800F426
:103B90008070B0B96248006840F480706049086085
:103BA000FFF748FC054606E0FFF744FC401B0228EF
:103BB00001D90320B8E65A48006800F48070002854
:103BC000F2D000BFA068012808D1524868300068D0
:103BD00040F001004F49683108601DE0A0680528E9
:103BE0000DD14C486830006840F004004949683104
:103BF00008600846006840F0010008600CE0454895
:103C00006830006820F001004249683108600846C9
:103C1000006820F00400086000BFA068A8B1FFF7AA
:103C200009FC054609E0FFF705FC401B41F288311D
:103C3000884202D9032077E626E0364868300068DB
:103C4000C0F340000028EED013E0FFF7F3FB054679
:103C500008E0FFF7EFFB401B41F28831884201D9B1
:103C6000032061E62B4868300068C0F3400000285C
:103C7000EFD1012F07D127483830006820F080505D
:103C800024493831086000BFA069002850D021487D
:103C9000006800F00C00082860D0A069022848D114
:103CA00000201D490866FFF7C5FB054606E0FFF743
:103CB000C1FB401B022801D9032035E6154808380E
:103CC0000068C0F340600028F1D1D4E9070108433F
:103CD000616A40EA81110122A06AC2EB500041EA08
:103CE00000412C20005D41EA00613020005D41EA86
:103CF00000700849091F0860012007490866FFF79E
:103D000099FB05460EE0FFF795FB401B022809D9F9
:103D1000032009E60838024000004742800E47426F
:103D20000070004028480068C0F340600028EAD0D6
:103D300048E0002025490866FFF77CFB054606E0C1
:103D4000FFF778FB401B022801D90320ECE51E4851
:103D50000068C0F340600028F2D133E0A069012878
:103D600000D1E1E51848001D0668A069012827D0A8
:103D700006F48001E069814222D106F03F01206A09
:103D800081421DD147F6C0703040616AB0EB811F9F
:103D900016D106F440310122A06AC2EB5000B1EB0B
:103DA000004F0DD106F070612C20005DB1EB006F6B
:103DB00006D106F0E0413020005DB1EB007F01D07C
:103DC0000120B1E50020AFE5003802400000474285
:103DD0007047704730B502460B4600BF92F83C0072
:103DE000012801D1022030BD012082F83C0000BF33
:103DF000022082F83D00106844681068816824F051
:103E000070041868044310684460184D1068A84294
:103E10001BD01068B0F1804F17D0154D1068A84224
:103E200013D0144D1068A8420FD0134D1068A8424B
:103E30000BD0124D1068A84207D0114D1068A8424F
:103E400003D0104D1068A84205D121F080015868B8
:103E5000014310688160012082F83D0000BF00200E
:103E600082F83C0000BF00BFBDE700000000014039
:103E70000004004000080040000C00400004014025
:103E8000004001400018004010B504460CB9012064
:103E900010BD94F83D0028B9002084F83C0020466D
:103EA00000F026F8022084F83D00211D206807F06C
:103EB00039FA012084F8460000BF84F83E00012151
:103EC0003F200155402001554120015500BF00BF52
:103ED000012084F84200432001554420015545202B
:103EE000015500BF012084F83D000020D0E700000C
:103EF00038B504462749206888420FD100BF00200A
:103F000000902548006840F02000234908600846DA
:103F1000006800F02000009000BF3AE01F492068D0
:103F200088421AD100BF002000901B48001D006885
:103F300040F400301849091D08600846006800F484
:103F40000030009000BF00BF002211461920FFF78B
:103F500033FB1920FFF71CFB1BE011492068884246
:103F600017D100BF002000900B48006840F480701B
:103F7000094908600846006800F48070009000BF9E
:103F800000BF002211462D20FFF716FB2D20FFF762
:103F9000FFFA38BD001400404038024000440140A0
:103FA00000200040014691F83D00012801D0012089
:103FB0007047022081F83D001A4B086898421BD0D8
:103FC0000868B0F1804F17D0174B0868984213D09B
:103FD000164B086898420FD0154B086898420BD0D2
:103FE000144B0868984207D0134B0868984203D0D6
:103FF000124B086898420CD10868806800F00702EC
:10400000062A0CD00868006840F001000B681860B0
:1040100005E00868006840F001000B6818600020A7
:10402000C6E7000000000140000400400008004016
:10403000000C004000040140004001400018004016
:10404000014691F83D00012801D00120704702206F
:1040500081F83D000868C06840F001000B68D86036
:104060001A4B086898421BD00868B0F1804F17D0EF
:10407000174B0868984213D0164B086898420FD027
:10408000154B086898420BD0144B0868984207D02B
:10409000134B0868984203D0124B086898420CD121
:1040A0000868806800F00702062A0CD008680068DB
:1040B00040F001000B68186005E00868006840F0F7
:1040C00001000B6818600020C0E7000000000140FC
:1040D0000004004000080040000C004000040140C3
:1040E0000040014000180040704770B50446206849
:1040F000C5682068066906F00200022819D105F09B
:104100000200022815D1401F216808610120207794
:104110002068806900F0030018B12046FFF7E4FF33
:1041200005E0204600F097F8204600F095F80020C2
:10413000207706F00400042819D105F004000428B3
:1041400015D1C0432168086102202077206880696A
:1041500000F4407018B12046FFF7C6FF05E0204686
:1041600000F079F8204600F077F80020207706F07C
:104170000800082819D105F00800082815D1C04307
:1041800021680861042020772068C06900F00300DE
:1041900018B12046FFF7A8FF05E0204600F05BF8C5
:1041A000204600F059F80020207706F01000102873
:1041B00019D105F01000102815D1C04321680861FD
:1041C000082020772068C06900F4407018B12046AC
:1041D000FFF78AFF05E0204600F03DF8204600F09A
:1041E0003BF80020207706F0010048B105F00100FF
:1041F00030B16FF0010021680861204600F02EF810
:1042000006F08000802809D105F08000802805D1C3
:10421000C043216808612046FFF7DAFD06F0400040
:10422000402809D105F04000402805D1C04321684D
:104230000861204600F03AF806F02000202809D155
:1042400005F02000202805D1C043216808612046E0
:10425000FFF7BFFD70BD70477047000010B5044602
:104260000E492068884204D1FFF7EAF808F03CFBC9
:1042700013E00B492068884202D1FCF7DDFB0CE01B
:1042800008492068884208D10748C06A401C06498E
:10429000C8620846806A401C886210BD0010004059
:1042A0000044014000200040640400207047704733
:1042B00070B50446002520684069C0F3C01594F825
:1042C0004100212817D1B5B100BF00BF21681431CA
:1042D00051E8001F21F080002168143141E80002FC
:1042E000002AF3D100BFA06B10B1A06BFEF75CFCFD
:1042F000204607F0A7F920684069C0F3801594F8BC
:104300004200222817D1B5B100BF00BF2168143187
:1043100051E8001F21F040002168143141E80002FB
:10432000002AF3D100BFE06B10B1E06BFEF73CFC5C
:10433000204607F041F9002070BD70472DE9F84F85
:104340000446206805682068C668206847694FF001
:104350000009CA4605F00F09B9F1000F0AD105F0AE
:10436000200038B106F0200020B1204607F07DF98A
:10437000BDE8F88FB9F1000F7CD007F0010018B943
:1043800006F49070002875D005F0010030B106F4F5
:10439000807018B1606C40F00100606405F00400AA
:1043A00030B107F0010018B1606C40F002006064A9
:1043B00005F0020030B107F0010018B1606C40F068
:1043C0000400606405F0080048B106F0200010B950
:1043D00007F0010018B1606C40F008006064606C88
:1043E000002846D005F0200028B106F0200010B1CA
:1043F000204607F03AF920684069C0F3801A606CE3
:1044000000F0080010B9BAF1000F2DD0204607F0D7
:10441000D3F82068406900F04000402820D100BF58
:1044200000BF2168143151E8001F21F040002168CD
:10443000143141E80002002AF3D100BFE06B50B113
:104440007748E16B0865E06BFEF704FC88B1E06B30
:10445000016D88470DE02046FFF76FFF09E009E096
:104460002046FFF76AFF04E02046FFF766FF0020C2
:1044700060647DE7206B012878D105F010000028EA
:1044800074D006F010000028FAD000BF0020009081
:1044900020680068009020684068009000BF00BF5E
:1044A0002068406900F04000402860D1E06B00685F
:1044B00040681FFA80F8B8F1000F56D0A08D404533
:1044C00053DDA4F82E80E06BC069B0F5807F43D047
:1044D00000BF00BF21680C3151E8001F21F480703B
:1044E00021680C3141E80002002AF3D100BF00BF6F
:1044F00000BF2168143151E8001F21F0010021683C
:10450000143141E80002002AF3D100BF00BF00BF10
:104510002168143151E8001F21F040002168143156
:1045200041E80002002AF3D100BF202084F84200B5
:104530000020206300BF00BF21680C3151E8001F3C
:1045400021F0100021680C3141E80002002AF3D16B
:1045500000BFE06BFEF728FB02206063A08DE28DB8
:10456000801A81B22046FFF7A2FE01E742E0A08D4B
:10457000E18D401A1FFA80F8E08DD0B3B8F1000F3A
:1045800037D000BF00BF21680C3151E8001F21F473
:10459000907021680C3141E80002002AF3D100BF7D
:1045A00000BF00BF2168143151E8001F21F0010055
:1045B0002168143141E80002002AF3D100BF202015
:1045C00084F842000020206300BF00BF21680C3146
:1045D00051E8001F21F0100021680C3141E8000271
:1045E000002AF3D100BF0220606341462046FFF756
:1045F0005EFEBDE605F0800030B106F0800018B127
:10460000204607F037FAB3E605F0400030B106F077
:10461000400018B1204607F005F8A9E600BFA7E65C
:104620007DB4000810B504460CB9012010BDA06986
:1046300000B100E000BF94F8410028B9002084F8E0
:104640004000204600F02AF8242084F84100206829
:10465000C06820F400502168C860204607F084F844
:104660002068006920F49040216808612068406952
:1046700020F02A00216848612068C06840F400509A
:104680002168C86000206064202084F8410084F81C
:1046900042000020606300BFC8E7000010B586B08C
:1046A0000446142101A8FBF7C0FEFE492068884299
:1046B00058D100BF00200090FB48006840F4002063
:1046C000F94908600846006800F40020009000BF27
:1046D00000BF00BF00200090F3481038006840F091
:1046E0000100F149103908600846006800F0010037
:1046F000009000BF00BF4FF4C05001900220029014
:1047000000200390032004900B20059001A9E748A6
:10471000FEF786FDE648E74908604005486000214D
:10472000E4488160C1604FF4806101610021416112
:1047300081614FF48071C161002101624162FEF725
:10474000BDFB08B1FCF7A1FF00BFDA48E06384635A
:1047500000BF002211463420FEF72EFF3420FEF762
:1047600017FF59E2D4492068884259D100BF002080
:104770000090CD48006840F48010CB49086008469E
:10478000006800F48010009000BF00BF00BF002050
:104790000090C5481038006840F00200C249103946
:1047A00008600846006800F00200009000BF00BFEB
:1047B0004FF44070019002200290002003900320EB
:1047C00004900B20059001A9BC48FEF729FDB848CC
:1047D0003038BB490860C00548600021B848816096
:1047E000C1604FF4806101610021416181614FF43A
:1047F0008071C161002101624162FEF75FFB08B177
:10480000FCF743FF00BFAE48E063846300BF0022B3
:1048100011463520FEF7D0FE3520FEF7B9FEFBE14C
:10482000A849206888425AD100BF002000909E48C5
:10483000006840F080409C4908600846006800F02D
:104840008040009000BF00BF00BF0020009096484D
:104850001038006840F0100093491039086008468D
:10486000006800F01000009000BF00BF4FF4C0705F
:104870000190022002900020039003200490082061
:10488000059001A99048FEF7CBFC894818308F4964
:1048900008604FF02060486000218C488160C16052
:1048A0004FF4806101610021416181614FF48071A9
:1048B000C161002101624162FEF700FB08B1FCF713
:1048C000E4FE00BF8148E063846300BF002211461C
:1048D0005220FEF771FE5220FEF75AFE9CE17C4901
:1048E000206888425AD100BF002000906E48001D09
:1048F000006840F010006C49091D08600846006817
:1049000000F01000009000BF00BF00BF002000902A
:1049100065481038006840F00200634910390860AB
:104920000846006800F00200009000BF00BFC020F1
:1049300001900220029000200390032004900720A1
:10494000059001A95D48FEF76BFC6248624908606A
:104950004FF00060486000215F488160C1604FF403
:10496000806101610021416181614FF48071C16109
:10497000002101624162FEF7A1FA08B1FCF785FE51
:1049800000BF5548E063846300BF00221146252024
:10499000FEF712FE2520FEF7FBFD3DE14F492068A2
:1049A000884259D100BF002000903F48006840F481
:1049B00000303D4908600846006800F4003000906F
:1049C00000BF00BF00BF00200090374810380068CB
:1049D00040F008003449103908600846006800F0CB
:1049E0000800009000BF00BF6020019002200290EC
:1049F00000200390032004900720059001A9384867
:104A0000FEF70EFC2A484830364908604FF0006037
:104A10004860002133488160C1604FF480610161CA
:104A20000021416181614FF48071C1610021016207
:104A30004162FEF743FA08B1FCF727FE00BF2948A0
:104A4000E063846300BF002211462620FEF7B4FD18
:104A50002620FEF79DFDDFE02349206888427CD1B7
:104A600000BF002000901048006840F480200E49EC
:104A700008600846006800F48020009000BF00BF76
:104A800000BF0020009008481038006840F008007F
:104A90000549103908600846006800F008000090D9
:104AA00000BF23E0004C00404038024000000240BC
:104AB00040600240C4080020005000400004024052
:104AC00024090020007800400010024084090020E2
:104AD0000010014040640240E4090020004400400E
:104AE000000C0240440A00200048004000BF4FF480
:104AF0004070019002200290002003900320049057
:104B00000720059001A94548FEF78AFB444845491E
:104B100008604FF000604860002142488160C16039
:104B20004FF4806101610021416181614FF4807126
:104B3000C161002101624162FEF7C0F908B1FCF7D2
:104B4000A4FD00BF3748E063846300BF0022114624
:104B50002720FEF731FD272000E002E0FEF718FDD8
:104B60005AE031492068884256D100BF00200090A9
:104B70002E48006840F020002C4908600846006874
:104B800000F02000009000BF00BF00BF0020009098
:104B900026481438006840F004002449143908609D
:104BA0000846006800F00400009000BF00BFC0206D
:104BB000019002200290002003900320049008201E
:104BC000059001A91A48FEF72BFB1A481A490860FC
:104BD00080054860002118488160C1604FF4806101
:104BE00001610021416181614FF48071C161002147
:104BF00001624162FEF762F908B1FCF746FD00BFB1
:104C00000D48E063846300BF002211464720FEF791
:104C1000D3FC4720FEF7BCFC06B010BD000C0240E0
:104C200028600240A40A00200014014044380240D9
:104C30000008024028640240040B002070B50446BE
:104C40000D46164694F8420020280BD105B10EB946
:104C5000012070BD0020206332462946204606F020
:104C6000A5FEF6E70220F4E7704770472DE9F84FFC
:104C700004460E46174699464FF0000A94F8410044
:104C8000202850D106B117B90120BDE8F88F0020C7
:104C90006064212084F84100FEF7CCFB8246A784A3
:104CA000E784A068B0F5805F04D1206910B90025C1
:104CB000B04602E035464FF000081EE053460022A1
:104CC00080212046CDF8009006F004FF20B120207E
:104CD00084F841000320D8E745B9B8F80000C0F3D4
:104CE00008002168486008F1020803E0287821687C
:104CF00048606D1CE08C401EE084E08C0028DDD113
:104D00005346002240212046CDF8009006F0E2FEF6
:104D100020B1202084F841000320B6E7202084F849
:104D200041000020B1E70220AFE7704710B504460C
:104D3000054890F8370000B110BD00F043F800F0CE
:104D4000DDF800BFF8E70000040E002010B50446AF
:104D500000F04CFC10BD00001048807D28B1002000
:104D60000E4981F83800887770470C4890F8370072
:104D700088B10A4890F8380028B101200849087025
:104D80000649887707E00648007820B100200449EA
:104D900008700249887700BFE6E70000040E002093
:104DA0001E02002010B50549054807F01BFD1E2214
:104DB0000021034807F06AFD10BD00002D4D0008DA
:104DC0008C0C002010B547480078012803D14548D5
:104DD0004078052800D010BD4248C07D0B2803D084
:104DE0004048C07D0C2800D1F5E74FF480613E4873
:104DF000FEF708FB002842D13C4908703C48007887
:104E0000401C3B490870084600780F2800DAE2E7AA
:104E100000203749087037480078002860D000200B
:104E2000344908702F48407C012808D106202D49BC
:104E3000C875012088750020C8778877CBE7294896
:104E4000407C02284CD12748C07D082806D100208C
:104E5000294908702349C877887741E026480078B7
:104E600030B90120244908701E49C877887737E097
:104E70000020214908701B49C877887730E000205E
:104E80001B49087019480078401C184908700846EA
:104E900000780A2800DA9EE70120164908701348B6
:104EA000007837281CDD0F48C07D062806D1002079
:104EB0000C49C87588750D49087011E00948C07D16
:104EC00008280AD10748407C022809D1002005495A
:104ED000C87588750549087002E00020034908700C
:104EE00000BF78E7040E0020000802403A020020CC
:104EF000390200203B0200203C02002010B5494846
:104F00000078022803D147484078052800D010BD1A
:104F10004448C07D0B2803D04248C07D0C2800D1F6
:104F2000F5E74FF400614048FEF76CFA002842D1E3
:104F30003E4908703E480078401C3D4908700846CC
:104F400000780F2800DAE2E7002039490870394874
:104F50000078002864D00020364908703148407C31
:104F6000012808D107202F49C87501208875002025
:104F7000C8778877CBE72B48407C022850D1294856
:104F8000C07D092806D100202B4908702549C87723
:104F9000887745E02848007830B901202649087014
:104FA0002049C87788773BE00020234908701D49D5
:104FB000C877887734E000201D4908701B480078C6
:104FC000401C1A490870084600780A2800DA9EE753
:104FD00001201849087015480078372820DD11484D
:104FE000C07D072808D100200E49C87588750F4973
:104FF00008701149087013E00A48C07D09280CD1D7
:105000000848407C02280BD100200649C8758875E5
:10501000064908700849087002E00020034908703A
:1050200000BF74E7040E0020000802403E0200208A
:105030003D0200203F0200204002002070B5002405
:10504000594890F83000012802D05748807F28B195
:105050000020564908705649087070BD0121554816
:10506000FEF7D0F985004FF480515348FEF7CAF996
:1050700045EA400502214F48FEF7C4F90543ECB26A
:10508000072C5DDA0020494908704748C07C002899
:1050900052D147480078401CC0B2454908703C28AE
:1050A00049DD4148807F38B10D203F49C875012056
:1050B000887500208877D0E700203D4908700120DE
:1050C000394981F82E00072C26D2DFE804F01D199B
:1050D000100C080421000120334948701DE008200D
:1050E0003149487019E002202F49487015E0052029
:1050F0002D4948704FF480402E49183108600CE06B
:1051000007202949487008E006202749487004E034
:105110000B202549487000E000BF00BF0020274950
:10512000087021484078264948701C2000F0E8FCAF
:1051300001202449087035E000201D49087031E045
:1051400000201B4908701848C07C40B317480078FD
:10515000401CC0B215490870782823DD1248807FB2
:1051600038B10120104988750D20C8750020887756
:1051700073E70D48C07D082800D16EE700200A497A
:1051800081F82E00094908700D4948701A20064917
:1051900081F82000400707491831086002E000202C
:1051A0000249087000BF58E7040E002045020020A5
:1051B00046020020000C0240000802404802002085
:1051C000400E00201604002070B500245A4890F8C4
:1051D0003100012802D05848807F28B1002057496B
:1051E00008705749087070BD08215648FEF70AF943
:1051F000850004215348FEF705F945EA40051021D2
:105200005048FEF7FFF80543ECB2072C5DDA0020AA
:105210004A4908704848007D002852D14848007823
:10522000401CC0B2464908703C2849DD4248807F96
:1052300038B1002040498877012088750D20C87555
:10524000D1E701203C4981F82F00072C26D2DFE866
:1052500004F01D19100C0804210001203649487083
:105260001DE008203449487019E002203249487096
:1052700015E00520304948704FF40040314918319D
:1052800008600CE007202C49487008E006202A49F5
:10529000487004E00B202849487000E000BF00BFC0
:1052A00000202949087024484178284841721D206F
:1052B00000F026FC012026490870002020490870D3
:1052C00038E000201E49087034E000201C490870B6
:1052D0001948007D58B319480078401CC0B21749DE
:1052E0000870782826DD1448807F38B100201249E4
:1052F0008877012088750D20C87574E70E48C07D39
:10530000092800D16FE700200B4981F82F00002108
:105310000E4841721B20084981F8200000200749EF
:1053200008704FF0004007491831086002E0002083
:105330000249087000BF56E7040E00204A02002010
:105340004B020020000C02404C020020400E0020C6
:105350001604002010B50549054807F043FA0A2253
:105360000021034807F092FA10BD00004D4D0008DF
:10537000AC0C002030B585B000240025142168460F
:10538000FBF753F8444890F82E00012802D0424819
:10539000807F30B10020414908704149087005B054
:1053A00030BD3E480078401CC0B23C4908700A2815
:1053B00000DAF4E700203949087039480078401CC9
:1053C000374908706A461021002002F0B7FC0E2110
:1053D0006846FBF701FF04469DF80F009DF80E108C
:1053E00000EB0120A04238D100202D490870012097
:1053F000294981F830009DF801002A4908609DF88C
:10540000020048609DF8030088609DF804000128B0
:1054100003D10A202449487009E09DF8080018B912
:105420000C202149487002E009201F4948701A48A1
:10543000C07C90B91848807F38B100201649887721
:10544000012088750D20C875A9E71C2000F058FBC5
:105450000120164908701049C874114800780928BD
:1054600000DA9CE70C48C07C01280ED10A48807FF6
:1054700038B1002008498877012088750D20C8754B
:105480008DE71A20044981F820000020024981F8A4
:105490003000C87400BF82E7040E00204D020020D7
:1054A0004E0200208C0D0020400E0020160400202B
:1054B00030B585B00024002514216846FAF7B5FF01
:1054C000444890F82F00012802D04248807F30B134
:1054D0000020414908704149087005B030BD3E4880
:1054E0000078401CC0B23C4908700A2800DAF4E792
:1054F00000203949087039480078401C3749087045
:105500006A461021002002F057FB0E216846FBF787
:1055100063FE04469DF80F009DF80E1000EB01207D
:10552000A04238D100202D4908700120294981F876
:1055300031009DF801002A4908609DF8020048608A
:105540009DF8030088609DF80400012803D10A211A
:105550002448417209E09DF8080018B90C2121483F
:10556000417202E009211F4841721A48007D90B93A
:105570001848807F38B10020164988770120887547
:105580000D20C875A9E71D2000F0BAFA01201649C0
:1055900008701049087511480078092800DA9CE75E
:1055A0000C48007D01280ED10A48807F38B10020C8
:1055B00008498877012088750D20C8758DE71B2064
:1055C000044981F820000020024981F83100087563
:1055D00000BF82E7040E00204F020020500200208E
:1055E0009C0D0020400E00201604002010B5FFF78F
:1055F00025FDFFF7E9FDFFF7BDFEFFF759FF10BDE1
:1056000000BFFEE770B50446002603F08FFB254679
:10561000E11704EB11610912A02202EB4101C8B2AB
:1056200007F016F800F082F8E11704EB1161091297
:10563000A4EB0121C8B207F00BF800F077F803F0F3
:1056400075FBA12007F004F800F070F8002003F0CB
:10565000CFF8064603F084FB0120FBF7A7FE304697
:1056600070BD70B504460E4603F060FB2546E11799
:1056700004EB11610912A02202EB4101C8B206F04D
:10568000E7FF00F053F8E11704EB11610912A4EBF6
:105690000121C8B206F0DCFF00F048F8304606F001
:1056A000D7FF00F043F803F05BFB0120FBF77EFE21
:1056B00070BD000010B54FF480100A49086040002A
:1056C00008600A20FBF782FE1020064908600A20C5
:1056D000FBF77CFE4FF48010024908600A20FBF7BC
:1056E00075FE10BD180802402020024908601020F5
:1056F000086070471808024010B54FF480100A493E
:105700000860202008600A20FBF760FE1020064990
:1057100008600A20FBF75AFE4FF480100249086027
:105720000A20FBF753FE10BD1808024070B5002494
:10573000002510200F4908600A20FBF747FE07E00C
:10574000601CC4B2C82C03DD03F00AFB012506E08F
:1057500008480838006800F020000028F0D100BF99
:105760004FF48010034908600A20FBF72FFE2846FB
:1057700070BD00001808024070B505460C460026B2
:10578000002D69D040F27F1141F2154000F0B4FEC7
:1057900040F2F31141F2174000F0AEFE40F2F51175
:1057A00041F2184000F0A8FE40F2E11141F2194028
:1057B00000F0A2FE43F2505149F2505000F082FE38
:1057C000214643F2505000F05DFE04B93DE0002C4C
:1057D00003DD1E2C01DC012637E01E2C03DD3C2CF2
:1057E00001DC022631E03C2C03DD5A2C01DC0326CF
:1057F0002BE05A2C03DD782C01DC042625E0782CE4
:1058000003DD962C01DC05261FE0962C03DDB42C6D
:1058100001DC062619E0B42C03DDD22C01DC0726BE
:1058200013E0D22C03DDF02C01DC08260DE0F02C77
:1058300004DDB4F5877F01DC092606E0B4F5877F37
:1058400003DDB4F5967F00DC0A2606F2831141F2EF
:10585000164000F051FE27E04FF4BF7141F21540B1
:1058600000F04AFE4FF4F97141F2174000F044FE97
:105870004FF4FA7141F2184000F03EFE4FF4F0711F
:1058800041F2194000F038FE4FF4C0714FF4A150BE
:1058900000F032FE40F2831141F2164000F02CFE7F
:1058A00049F2505000F038FC70BD000070B504465D
:1058B0000025072C70D14E48407B00286AD101207A
:1058C0004C4908704A48407F00283ED04A4800783A
:1058D000401C4949087008460078012803D10A2075
:1058E0004349C87226E044480078022803D11420B6
:1058F0003F49C8721EE040480078032803D11E20AB
:105900003B49C87216E03C480078042803D1322095
:105910003749C8720EE038480078052803D1462080
:105920003349C87206E034480078062802D10020C6
:105930002F49C87200202E4948772F480078062842
:1059400018DB00202C49087014E02948C07A1E2872
:1059500005DA2748C07A401D2549C8720AE0244864
:10596000C07A0A302249C8720846C07A462801DD4A
:105970004620C8721E48C17A012007F01CF81C4856
:10598000007F38B11A49C87AFAF7F0FD0546284673
:1059900002F014FE2BE0FFE7082C28D11448407BCE
:1059A00028BB0120134908701148C07A05280EDB76
:1059B0000F48C07A1E2805DC0D48C07A401F0C49EC
:1059C000C87204E00A48C07A0A380949C87208480F
:1059D000C17A012006F0EFFF0548007F38B1044985
:1059E000C87AFAF7C3FD0546284602F0E7FD70BD08
:1059F000040E0020160400201E04002010B52DED1A
:105A00000A8B00243548C07C18B93448007D002832
:105A100059D03248007F00285DD13048807D002871
:105A200059D12E48C07F002855D101202C4908703B
:105A30002A48407B08B9012000E00020274948732C
:105A40000846407B90B34624204607F026FB41ECF5
:105A50001C0B9FED240B53EC102B07F031FB41EC9A
:105A60001B0B9FED220B53EC102B07F0E9F841ECD8
:105A7000190B204607F011FB41EC1A0B53EC192BC4
:105A800007F01EFB41EC180B07F0DAFA044602207F
:105A900006F054FFE0B2FAF769FD0446204602F032
:105AA0008DFD4621012006F086FF14E0FFE700206F
:105AB00002F084FD0948C17A012006F07CFF012034
:105AC00006F03CFF07E0012006F038FF0020034904
:105AD000487302F073FDBDEC0A8B10BD040E00206C
