:020000040800F2
:10000000B017002079030008612F0008792A000842
:100010005D2F0008290700089D3A00080000000035
:10002000000000000000000000000000B90200080D
:100030007B08000800000000150300085D3300087D
:100040009303000893030008930300089303000838
:10005000930300089303000893030008890800082D
:100060009303000893030008930800082D07000875
:100070003D0700084D0700085D07000893030008CE
:100080006D0700089303000893030008930300081A
:100090009303000893030008930300089D080008D9
:1000A0009303000849340008413400089303000812
:1000B00093030008930300089303000893030008C8
:1000C00093030008930300089303000893030008B8
:1000D000930300085D3A00086D3A00087D3A000875
:1000E0007D080008930300089303000893030008A9
:1000F0009303000869340008930300089303000881
:100100009303000893030008930300089303000877
:100110006135000871350008593400089303000860
:10012000930300087D0700088D070008930300086B
:100130009303000893030008930300089303000847
:100140009303000893030008930300089303000837
:100150009303000893030008930300088D3A0008F6
:100160009303000893030008930300089303000817
:100170009303000893030008000000000000000043
:1001800093030008930300088135000893030008D7
:100190009303000893030008000000009303000885
:1001A0009303000893030008000000000000000013
:1001B0009303000800000000000000009303000803
:1001C00093030008930300089303000893030008B7
:1001D000930300089303000800F002F800F05CF8B5
:1001E0000AA090E8000C82448344AAF10107DA4592
:1001F00001D100F051F8AFF2090EBAE80F0013F088
:10020000010F18BFFB1A43F001031847843F000099
:10021000A43F00000A444FF0000C10F8013B13F01B
:10022000070408BF10F8014B1D1108BF10F8015B4F
:10023000641E05D010F8016B641E01F8016BF9D142
:1002400013F0080F1EBF10F8014BAD1C0C1B09D199
:100250006D1E58BF01F801CBFAD505E014F8016B0B
:1002600001F8016B6D1EF9D59142D6D3704700009D
:100270000023002400250026103A28BF78C1FBD8AF
:10028000520728BF30C148BF0B6070471FB503F04D
:1002900069FF1FBD10B510BD00F0CAF91146FFF788
:1002A000F5FF03F0C3FC00F0E8F903B4FFF7F2FF39
:1002B00003BC00F0EFF900002C4B19680868B0E8A7
:1002C000F04F80F30988BFF36F8F4FF0000080F389
:1002D000118870470000000008480068006880F33B
:1002E00008884FF0000080F3148862B661B6BFF34F
:1002F0004F8FBFF36F8F00DF00BF00BF08ED00E03E
:10030000DFF80C00016841F470010160704700BF24
:1003100088ED00E0EFF30980BFF36F8F134B1A688D
:100320001EF0100F08BF20ED108A20E9F04F10607A
:1003300009B44FF0500080F31188BFF34F8FBFF323
:100340006F8F03F0CFFC4FF0000080F3118809BCE1
:1003500019680868B0E8F04F1EF0100F08BFB0EC45
:10036000108A80F30988BFF36F8F70475004002014
:10037000EFF30580704700000948804709480047AF
:10038000FEE7FEE7FEE7FEE7FEE7FEE7FEE7FEE745
:10039000FEE7FEE704480549054A064B70470000A2
:1003A0002D340008D9010008B0110020B01700203A
:1003B000B0130020B013002053EA020C00F0698053
:1003C0002DE9F04B4FF00006002B1FBFB3FA83F569
:1003D00003FA05F424FA05F65E4012BF1643B2FA9A
:1003E00082F502FA05F4C5F120051EBF22FA05FCCC
:1003F00044EA0C04203556EA044C4FEA144418BF72
:10040000641C4FF000084FF00009904271EB030CA0
:1004100039D3002919BFB1FA81F701FA07F6B0FA0A
:1004200080F700FA07F6C7F120071EBF20FA07FC85
:1004300046EA0C062037B6FBF4FCA7EB0507103F95
:1004400007F01F0BCBF120060CFA0BFB2CFA06F67B
:1004500044BFB3460026202FA4BF5E464FF0000BDA
:100460005BEA060C08BF4FF0010B19EB0B09ABFB65
:10047000027C48EB0608C01B06FB02CC0BFB03CC3E
:1004800071EB0C01C1E70B46024641464846BDE808
:10049000F08B13B54FF000004FF00001AFF3008078
:1004A000BDE81C40704740EA0103024630B59B0797
:1004B00010D14FF0013400E008C208C91D1B9D4354
:1004C00015EAC41FF8D013F0FF0102F8011B0DD08C
:1004D0001B0AF8E711F8013B002B02F8013B05D09D
:1004E00011F8013B002B02F8013BF3D130BD032A88
:1004F00040F2308010F0030C00F0158011F8013B41
:10050000BCF1020F624498BF11F801CB00F8013B27
:1005100038BF11F8013BA2F1040298BF00F801CBEB
:1005200038BF00F8013B11F0030300F02580083AC2
:10053000C0F0088051F8043B083A51F804CBA0E819
:100540000810F5E7121D5CBF51F8043B40F8043B6E
:10055000AFF30080D20724BF11F8013B11F801CBA3
:1005600048BF11F8012B24BF00F8013B00F801CB74
:1005700048BF00F8012B704710B5203AC0F00B803F
:10058000B1E81850203AA0E81850B1E81850A0E897
:100590001850BFF4F5AF5FEA027C24BFB1E81850F1
:1005A000A0E8185044BF18C918C0BDE810405FEA61
:1005B000827C24BF51F8043B40F8043B08BF7047DD
:1005C000D20728BF31F8023B48BF11F8012B28BFE2
:1005D00020F8023B48BF00F8012B70474FF00002A3
:1005E00000B5134694469646203922BFA0E80C5029
:1005F000A0E80C50B1F12001BFF4F7AF090728BF04
:10060000A0E80C5048BF0CC05DF804EB890028BF7F
:1006100040F8042B08BF704748BF20F8022B11F0A8
:10062000804F18BF00F8012B704770477047704724
:10063000754600F02BF8AE4605006946534620F09B
:100640000700854618B020B5FFF7A4FEBDE820409E
:100650004FF000064FF000074FF000084FF0000B7E
:1006600021F00701AC46ACE8C009ACE8C009ACE831
:10067000C009ACE8C0098D46704710B50446AFF319
:1006800000802046BDE81040FFF70FBE00487047CD
:100690005011002001491820ABBEFEE726000200E1
:1006A0007047000010B50C210348416101F0F2FCD5
:1006B00008B100F0F8F810BDF405002013B582B0C1
:1006C0000446002001901423012203A9204602F0D1
:1006D00073F91423012201A9204602F00BF928B96D
:1006E0001423012201A9024802F066F91FBD00008F
:1006F000A4070020FFF7D6FF0FE0A1210748FFF76E
:10070000DDFFB5210648FFF7D9FFC7210548FFF7F0
:10071000D5FF4FF4FA7000F0C9FAEEE73C0600206E
:10072000AC050020F405002000BFFEE710B502482C
:1007300000F026F910BD00004C08002010B502485A
:1007400000F01EF910BD0000CC09002010B50248D1
:1007500000F016F910BD0000EC07002010B50248AB
:1007600000F00EF910BD0000AC08002010B50248E2
:1007700000F006F910BD00006C09002010B5024819
:1007800000F0FEF810BD00002C0A002010B5024851
:1007900000F0F6F810BD00000C09002001460878B2
:1007A00010381823B0FBF3F20848805CC865032AB0
:1007B00005D908686FF30900001D886503E0086823
:1007C0006FF309008865886D704700006E4100086E
:1007D000014600208A6A8B69CBB932B1012A0DD05B
:1007E000022A03D0032A10D10EE000BFCB6A03F027
:1007F0008073B3F1807F00D1012007E0CB6AB3F1B1
:10080000C07F00D1012001E000E000BF34E08B692F
:10081000B3F5005F1AD132B1012A07D0022A03D002
:10082000032A11D10AE000BF01200EE0CB6A03F0D9
:100830008073B3F1807F00D1012006E0CB6AB3F171
:10084000C07F00D1012000E000BF15E032B1012AD5
:1008500005D0022A04D0032A0CD103E000BF00BF58
:10086000012008E0CB6A03F08073B3F1807F00D1F0
:10087000012000E000BF00BF7047704710B54FF483
:10088000806000F049FA10BD10B5022000F044FA73
:1008900010BD10B5102000F03FFA10BD10B540207B
:1008A00000F03AFA10BD72B600BFFEE770B504461C
:1008B000A56D00F039FB064694F83500022808D0F3
:1008C0008020606500BF002084F8340000BF012054
:1008D00070BD2068006820F016002168086020685C
:1008E000406920F0800021684861206C08B9A06C44
:1008F00028B12068006820F008002168086020689E
:10090000006820F001002168086010E000F00CFB96
:10091000801B05280BD920206065032084F8350052
:1009200000BF002084F8340000BF0320D0E7206817
:10093000006800F001000028E8D194F85C103F2026
:100940008840A860012084F8350000BF002084F8AA
:10095000340000BF00BFBBE7014691F83500022814
:1009600003D08020486501207047052081F83500BC
:100970000868006820F001000A6810600020F3E7B2
:10098000F8B50446002000908C4800684FF41651DA
:10099000B0FBF1F7A56D2E6894F85C100820884034
:1009A000304098B12068006800F0040070B1206801
:1009B000006820F004002168086094F85C100820AA
:1009C0008840A860606D40F00100606594F85C109C
:1009D00001208840304068B12068406900F0800004
:1009E00040B194F85C1001208840A860606D40F030
:1009F0000200606594F85C1004208840304068B1C3
:100A00002068006800F0020040B194F85C100420F7
:100A10008840A860606D40F00400606594F85C1048
:100A200010208840304078B32068006800F008004B
:100A300050B394F85C1010208840A86020680068CB
:100A400000F4802080B12068006800F4002028B9FC
:100A5000206CC8B12046216C884715E0A06C98B185
:100A60002046A16C88470FE02068006800F4807081
:100A700028B92068006820F0080021680860206C10
:100A800010B12046216C884794F85C1020208840E3
:100A90003040002865D02068006800F01000002871
:100AA0005FD094F85C1020208840A86094F835004E
:100AB000052828D12068006820F016002168086009
:100AC0002068406920F0800021684861206C08B9E6
:100AD000A06C28B12068006820F008002168086038
:100AE00094F85C103F208840A860012084F835000D
:100AF00000BF002084F8340000BF206D10B12046F4
:100B0000216D8847F8BD2068006800F4802080B11E
:100B10002068006800F4002028B9606C10B12046FD
:100B2000616C88471DE0E06BD8B12046E16B8847D7
:100B300017E02068006800F4807068B920680068D9
:100B400020F0100021680860012084F8350000BF03
:100B5000002084F8340000BFE06B10B12046E16B48
:100B60008847606D38B3606D00F00100F0B105207A
:100B700084F835002068006820F0010021680860D2
:100B800000BF0098401C0090B84200D905E02068E2
:100B9000006800F001000028F3D100BF012084F8B4
:100BA000350000BF002084F8340000BFE06C10B1B5
:100BB0002046E16C884700BFA4E700000C0000203D
:100BC0002DE9F0410446002500F0AEF9074614B9BE
:100BD0000120BDE8F081606A00B100BF022084F806
:100BE000350000BF002084F8340000BF2068006892
:100BF00020F00100216808600AE000F095F9C01BB0
:100C0000052805D920206065032084F83500E0E739
:100C10002068006800F001000028EED12068056817
:100C200021480540D4E901010843E16808432169EE
:100C3000084361690843A1690843E1690843216ADF
:100C400008430543606A042803D1D4E90B01084333
:100C50000543206805602068456925F00705606A3E
:100C60000543606A04280DD1A06A0543E06A48B1D3
:100C70002046FFF7ADFD28B140206065012084F8D3
:100C80003500A6E7206845612046FFF787FD064648
:100C900094F85C103F208840B0600020606501201F
:100CA00084F83500002094E73F8010E070B50446DA
:100CB00000F03AF906462546681C10B10448007851
:100CC000054400BF00F030F9801BA842FAD370BD84
:100CD0000800002010B50446204602F0A9F9B4F53A
:100CE000806F0BD0B4F5006F11D10A48407808B975
:100CF000012000E000200749487009E0054800781D
:100D000008B9012000E000200249087000E000BF9F
:100D100000BF10BD1000002010B504460448006854
:100D2000204020B1024804602046FFF7D3FF10BDE9
:100D3000143C0140F8B502460B4600250024002073
:100D40000021D1E0012606FA01F51E6806EA050435
:100D5000AC4274D11E7906F00306012E04D01E7930
:100D600006F00306022E13D190684F000326BE4002
:100D7000B0434F00DE68BE403043906050680126AB
:100D80008E40B0431E79C6F300168E40304350604B
:100D90001E7906F00306032E09D0D0684F00032603
:100DA000BE40B0434F009E68BE403043D0601E79C5
:100DB00006F00306022E13D1CF0802F1200656F8E2
:100DC00027004E07F70E0F26BE40B0434F07FF0E19
:100DD0001E69BE403043CF0802F1200646F82700C6
:100DE00010684F000326BE40B0431E7906F003068C
:100DF0004F00BE40304310605E6806F44036002E5F
:100E000071D000BF00260096394E366846F4804601
:100E1000374F3E603E46366806F48046009600BF77
:100E200000BF344E8F0856F827008E07370F0F2665
:100E3000BE40B043304EB24202D100261FE052E025
:100E40002E4EB24201D1012619E02D4EB24201D1FF
:100E5000022614E02B4EB24201D103260FE02A4EA7
:100E6000B24201D104260AE0284EB24201D1052641
:100E700005E0274EB24201D1062600E007268F0783
:100E80003F0FBE4030431B4E8F0846F82700214ECF
:100E90003068A0435E6806F4801606B120431D4EFC
:100EA0003060361D3068A0435E6806F4001606B157
:100EB0002043184E361D3060164E361F3068A04352
:100EC0005E6806F4003606B12043124E361F3060CD
:100ED000361F3068A0435E6806F4803606B12043B2
:100EE0000C4E083E3060491C1029FFF42BAFF8BDB2
:100EF000443802400838014000000240000402402B
:100F000000080240000C02400010024000140240A1
:100F100000180240083C0140024613690B400BB127
:100F2000012000E000207047014800687047000081
:100F3000000000200348006803490978084401497B
:100F400008607047000000200800002010B50D4820
:100F5000006840F400700B4908600846006840F4DF
:100F6000806008600846006840F4807008600320D4
:100F700000F0E0F80F2000F007F800F05FF8002024
:100F800010BD0000003C02402DE9F04188B004464D
:100F90000027B84600BF002001902348006840F0B9
:100FA0001000214908600846006800F01000019018
:100FB00000BF00BF02A903A800F092F9069F1FB965
:100FC00000F0B6F9054602E000F0B2F94500174816
:100FD000B5FBF0F0A0F1010815481649086040F291
:100FE000E7311448C160C0F80480002101618160CC
:100FF000816100F0C9FC064696B90E4800F0A0FDDC
:1010000006466EB9362000F043F8102C07D20022B5
:101010002146362000F050F80748046000E0012621
:10102000304608B0BDE8F0814038024040420F0031
:10103000001000404C0B00200400002008B500BF49
:10104000002000901148006840F480400F4908607B
:101050000846006800F48040009000BF00BF00BF59
:1010600000200090081F006840F08050091F0860B1
:101070000846006800F08050009000BF00BF0022CA
:101080000F21901E00F018F808BD000044380240FF
:101090000146084600280DDB00BF00BF00F01F031B
:1010A00001229A4043099B0003F1E023C3F8002189
:1010B00000BF00BF00BF70472DE9F05F80460D46BE
:1010C0001646002702F090FD074639462A46334669
:1010D00001F00700C0F1070ABAF1040F02D94FF07E
:1010E000040A01E0C0F1070AD14600F1040ABAF18E
:1010F000070F02D24FF0000A01E0A0F1030AD44624
:101100004FF0010A0AFA09FAAAF1010A0AEA020AE8
:101110000AFA0CFA4FF0010B0BFA0CFBABF1010BC6
:101120000BEA030B4AEA0B042146404602F064FD39
:10113000BDE8F09F00BF00F00702064B19684FF6AC
:10114000FF031940044B0B4343EA0221014B196092
:1011500000BF70470CED00E00000FA0570B50446D2
:101160000D460CB9012070BD5848006800F007001A
:10117000A84209D255490D700846006800F00700E2
:10118000A84201D00120EEE7207800F002000228FA
:101190001DD1207800F00400042805D14C480068D7
:1011A00040F4E0504A490860207800F00800082820
:1011B00005D14748006840F460404549086044480C
:1011C000006820F0F000A1680843414908602078D9
:1011D00000F00100A8B36068012807D13C48083836
:1011E0000068C0F34040B8B90120BCE7606802283D
:1011F00002D06068032807D1354808380068C0F37A
:10120000406048B90120AEE7314808380068C0F3B3
:10121000400008B90120A6E72D48006820F003002F
:10122000616808432A490860FFF77EFE064609E028
:10123000FFF77AFE801B41F28831884202D90320F1
:1012400091E707E02248006800F00C006168B0EB0D
:10125000810FEDD11D48006800F00700A84209D9B0
:101260001A490D700846006800F00700A84201D036
:10127000012078E7207800F00400042807D1144802
:10128000006820F4E050E1680843114908602078C4
:1012900000F00800082808D10D48006820F46040DC
:1012A000216940EAC1000A49086000F061F8084974
:1012B0000968C1F30311074A515CC8400649086038
:1012C00006480068FFF760FE00204CE7003C024043
:1012D00008380240764100080C000020040000207D
:1012E0000F2202600D4A126802F0030242600B4AAC
:1012F000126802F0F0028260084A126802F4E052BA
:10130000C260064A126802F46042D2080261044ACE
:10131000126802F007020A607047000008380240B5
:10132000003C024001480068704700000C000020AB
:1013300000B5FFF7F7FF04490968C1F38221034AAA
:10134000515CC84000BD00000838024086410008DA
:1013500000B5FFF7E7FF04490968C1F34231034ACA
:10136000515CC84000BD00000838024086410008BA
:101370002DE9F047002400250026A14625480068F5
:1013800000F00C0020B1042805D008283AD105E06F
:10139000DFF8849039E0DFF8849036E01D48001FC4
:1013A000006800F03F041B48001F006800F4800044
:1013B00078B11A481749091F0968C1F38811A0FBC1
:1013C00001700146224600233846FEF7F5FF054628
:1013D0000EE011480F49091F0968C1F38811A0FBED
:1013E00001700146224600233846FEF7E5FF054618
:1013F0000848001F0068C0F30140401C4600B5FBD0
:10140000F6F902E0DFF8109000BF00BF4846BDE8E3
:10141000F0870000083802400024F40000127A002F
:10142000F8B504460CB90120F8BD207800F00100A1
:10143000002874D0F748006800F00C0004280DD094
:10144000F448006800F00C00082813D1F148001F90
:10145000006800F48000B0F5800F0BD1ED4808382B
:101460000068C0F34040002859D06068002856D179
:101470000120D9E700BF6068B0F5803F08D1E5489A
:101480000838006840F48030E249083908601EE0FE
:101490006068B0F5A02F0DD1DE480838006840F430
:1014A0008020DC49083908600846006840F4803034
:1014B00008600CE0D7480838006820F48030D5492F
:1014C000083908600846006820F48020086000BFE2
:1014D000606890B1FFF728FD054606E0FFF724FDA0
:1014E000401B642801D903209EE7CA4808380068D9
:1014F000C0F340400028F1D011E0FFF715FD05468C
:1015000006E0FFF711FD401B642801D903208BE79B
:10151000C04808380068C0F340400028F1D1207866
:1015200000F0020002285FD1BA48006800F00C0009
:1015300058B1B848006800F00C0008281CD1B54824
:10154000001F006800F48000B0B9B2480838006895
:10155000C0F3400020B1E068012801D0012063E71A
:10156000AC480838006820F0F800216940EAC10062
:10157000A8490839086037E0E06800B30120A649AF
:101580000860FFF7D1FC054606E0FFF7CDFC401BE5
:10159000022801D9032047E79E4808380068C0F3B5
:1015A00040000028F1D09B480838006820F0F8007F
:1015B000216940EAC10097490839086014E0002019
:1015C00095490860FFF7B0FC054606E0FFF7ACFC64
:1015D000401B022801D9032026E78E4808380068FE
:1015E000C0F340000028F1D1207800F0080008285E
:1015F0002CD16069A8B1012088490860FFF794FCEC
:10160000054606E0FFF790FC401B022801D90320A5
:101610000AE780486C300068C0F340000028F1D031
:1016200014E000207D490860FFF77EFC054606E0D7
:10163000FFF77AFC401B022801D90320F4E6754825
:101640006C300068C0F340000028F1D1207800F031
:101650000400042870D100276E483830006800F07C
:10166000805090B900BF002000906A483830006870
:1016700040F080506749383108600846006800F043
:101680008050009000BF00BF01276548006800F44B
:101690008070B0B96248006840F4807060490860AA
:1016A000FFF742FC054606E0FFF73EFC401B022820
:1016B00001D90320B8E65A48006800F48070002879
:1016C000F2D000BFA068012808D1524868300068F5
:1016D00040F001004F49683108601DE0A06805280E
:1016E0000DD14C486830006840F004004949683129
:1016F00008600846006840F0010008600CE04548BA
:101700006830006820F001004249683108600846EE
:10171000006820F00400086000BFA068A8B1FFF7CF
:1017200003FC054609E0FFF7FFFB401B41F288314F
:10173000884202D9032077E626E036486830006800
:10174000C0F340000028EED013E0FFF7EDFB0546A4
:1017500008E0FFF7E9FB401B41F28831884201D9DC
:10176000032061E62B4868300068C0F34000002881
:10177000EFD1012F07D127483830006820F0805082
:1017800024493831086000BFA069002850D02148A2
:10179000006800F00C00082860D0A069022848D139
:1017A00000201D490866FFF7BFFB054606E0FFF76E
:1017B000BBFB401B022801D9032035E61548083839
:1017C0000068C0F340600028F1D1D4E90701084364
:1017D000616A40EA81110122A06AC2EB500041EA2D
:1017E00000412C20005D41EA00613020005D41EAAB
:1017F00000700849091F0860012007490866FFF7C3
:1018000093FB05460EE0FFF78FFB401B022809D92A
:10181000032009E60838024000004742800E474294
:101820000070004028480068C0F340600028EAD0FB
:1018300048E0002025490866FFF776FB054606E0EC
:10184000FFF772FB401B022801D90320ECE51E487C
:101850000068C0F340600028F2D133E0A06901289D
:1018600000D1E1E51848001D0668A069012827D0CD
:1018700006F48001E069814222D106F03F01206A2E
:1018800081421DD147F6C0703040616AB0EB811FC4
:1018900016D106F440310122A06AC2EB5000B1EB30
:1018A000004F0DD106F070612C20005DB1EB006F90
:1018B00006D106F0E0413020005DB1EB007F01D0A1
:1018C0000120B1E50020AFE50038024000004742AA
:1018D0007047704730B502460B4600BF92F83C0097
:1018E000012801D1022030BD012082F83C0000BF58
:1018F000022082F83D00106844681068816824F076
:1019000070041868044310684460184D1068A842B9
:101910001BD01068B0F1804F17D0154D1068A84249
:1019200013D0144D1068A8420FD0134D1068A84270
:101930000BD0124D1068A84207D0114D1068A84274
:1019400003D0104D1068A84205D121F080015868DD
:10195000014310688160012082F83D0000BF002033
:1019600082F83C0000BF00BFBDE70000000001405E
:101970000004004000080040000C0040000401404A
:10198000004001400018004010B504460CB9012089
:1019900010BD94F83D0028B9002084F83C00204692
:1019A00000F026F8022084F83D00211D206801F097
:1019B00063FD012084F8460000BF84F83E00012149
:1019C0003F200155402001554120015500BF00BF77
:1019D000012084F842004320015544200155452050
:1019E000015500BF012084F83D000020D0E7000031
:1019F00038B504462749206888420FD100BF00202F
:101A000000902548006840F02000234908600846FF
:101A1000006800F02000009000BF3AE01F492068F5
:101A200088421AD100BF002000901B48001D0068AA
:101A300040F400301849091D08600846006800F4A9
:101A40000030009000BF00BF002205211920FFF7E1
:101A500033FB1920FFF71CFB1BE01149206888426B
:101A600017D100BF002000900B48006840F4807040
:101A7000094908600846006800F48070009000BFC3
:101A800000BF002205212D20FFF716FB2D20FFF7B8
:101A9000FFFA38BD001400404038024000440140C5
:101AA00000200040014691F83D00012801D00120AE
:101AB0007047022081F83D001A4B086898421BD0FD
:101AC0000868B0F1804F17D0174B0868984213D0C0
:101AD000164B086898420FD0154B086898420BD0F7
:101AE000144B0868984207D0134B0868984203D0FB
:101AF000124B086898420CD10868806800F0070211
:101B0000062A0CD00868006840F001000B681860D5
:101B100005E00868006840F001000B6818600020CC
:101B2000C6E700000000014000040040000800403B
:101B3000000C00400004014000400140001800403B
:101B4000014691F83D00012801D001207047022094
:101B500081F83D000868C06840F001000B68D8605B
:101B60001A4B086898421BD00868B0F1804F17D014
:101B7000174B0868984213D0164B086898420FD04C
:101B8000154B086898420BD0144B0868984207D050
:101B9000134B0868984203D0124B086898420CD146
:101BA0000868806800F00702062A0CD00868006800
:101BB00040F001000B68186005E00868006840F01C
:101BC00001000B6818600020C0E700000000014021
:101BD0000004004000080040000C004000040140E8
:101BE0000040014000180040704770B5044620686E
:101BF000C5682068066906F00200022819D105F0C0
:101C00000200022815D1401F2168086101202077B9
:101C10002068806900F0030018B12046FFF7E4FF58
:101C200005E0204600F097F8204600F095F80020E7
:101C3000207706F00400042819D105F004000428D8
:101C400015D1C0432168086102202077206880698F
:101C500000F4407018B12046FFF7C6FF05E02046AB
:101C600000F079F8204600F077F80020207706F0A1
:101C70000800082819D105F00800082815D1C0432C
:101C800021680861042020772068C06900F0030003
:101C900018B12046FFF7A8FF05E0204600F05BF8EA
:101CA000204600F059F80020207706F01000102898
:101CB00019D105F01000102815D1C0432168086122
:101CC000082020772068C06900F4407018B12046D1
:101CD000FFF78AFF05E0204600F03DF8204600F0BF
:101CE0003BF80020207706F0010048B105F0010024
:101CF00030B16FF0010021680861204600F02EF835
:101D000006F08000802809D105F08000802805D1E8
:101D1000C043216808612046FFF7DAFD06F0400065
:101D2000402809D105F04000402805D1C043216872
:101D30000861204600F036F806F02000202809D17E
:101D400005F02000202805D1C04321680861204605
:101D5000FFF7BFFD70BD70477047000010B5044627
:101D60000C492068884202D1FFF7E4F810E00A49E4
:101D7000206888420CD009492068884208D1084868
:101D8000C06A401C0649C8620846806A401C8862D6
:101D900010BD000000100040004401400020004041
:101DA0003400002070477047704700002DE9F84F5D
:101DB0000446206805682068C668206847694FF0B7
:101DC0000009CA4605F00F09B9F1000F0AD105F064
:101DD000200038B106F0200020B1204601F028FC98
:101DE000BDE8F88FB9F1000F7CD007F0010018B9F9
:101DF00006F49070002875D005F0010030B106F4AB
:101E0000807018B1606C40F00100606405F004005F
:101E100030B107F0010018B1606C40F0020060645E
:101E200005F0020030B107F0010018B1606C40F01D
:101E30000400606405F0080048B106F0200010B905
:101E400007F0010018B1606C40F008006064606C3D
:101E5000002846D005F0200028B106F0200010B17F
:101E6000204601F0E5FB20684069C0F3801A606CF1
:101E700000F0080010B9BAF1000F2DD0204601F093
:101E800091FB2068406900F04000402820D100BF4D
:101E900000BF2168143151E8001F21F04000216883
:101EA000143141E80002002AF3D100BFE06B50B1C9
:101EB0007748E16B0865E06BFEF74EFD88B1E06B9B
:101EC000016D88470DE02046FFF76EFF09E009E04D
:101ED0002046FFF769FF04E02046FFF765FF00207A
:101EE00060647DE7206B012878D105F010000028A0
:101EF00074D006F010000028FAD000BF0020009037
:101F000020680068009020684068009000BF00BF13
:101F10002068406900F04000402860D1E06B006814
:101F200040681FFA80F8B8F1000F56D0A08D4045E8
:101F300053DDA4F82E80E06BC069B0F5807F43D0FC
:101F400000BF00BF21680C3151E8001F21F48070F0
:101F500021680C3141E80002002AF3D100BF00BF24
:101F600000BF2168143151E8001F21F001002168F1
:101F7000143141E80002002AF3D100BF00BF00BFC6
:101F80002168143151E8001F21F04000216814310C
:101F900041E80002002AF3D100BF202084F842006B
:101FA0000020206300BF00BF21680C3151E8001FF2
:101FB00021F0100021680C3141E80002002AF3D121
:101FC00000BFE06BFEF772FC02206063A08DE28D23
:101FD000801A81B22046FFF7E6FE01E742E0A08DBD
:101FE000E18D401A1FFA80F8E08DD0B3B8F1000FF0
:101FF00037D000BF00BF21680C3151E8001F21F429
:10200000907021680C3141E80002002AF3D100BF32
:1020100000BF00BF2168143151E8001F21F001000A
:102020002168143141E80002002AF3D100BF2020CA
:1020300084F842000020206300BF00BF21680C31FB
:1020400051E8001F21F0100021680C3141E8000226
:10205000002AF3D100BF0220606341462046FFF70B
:10206000A2FEBDE605F0800030B106F0800018B198
:10207000204601F07DFCB3E605F0400030B106F0EB
:10208000400018B1204601F0C3FAA9E600BFA7E658
:102090009135000810B504460CB9012010BDA069A7
:1020A00000B100E000BF94F8410028B9002084F896
:1020B0004000204600F02AF8242084F841002068DF
:1020C000C06820F400502168C860204601F02EFB53
:1020D0002068006920F49040216808612068406908
:1020E00020F02A00216848612068C06840F4005050
:1020F0002168C86000206064202084F8410084F8D2
:1021000042000020606300BFC8E7000010B586B041
:102110000446142101A8FEF761FAFE4920688842AE
:1021200070D100BF00200090FB48006840F0100014
:10213000F94908600846006800F01000009000BFF0
:1021400000BF00BF00200090F3481438006840F042
:102150000100F149143908600846006800F00100E8
:10216000009000BF00BF00BF00200090084600683C
:1021700040F0020008600846006800F0020000908D
:1021800000BF00BF40200190022002900020039079
:10219000032004900720059001A9E048FEF7CAFD3E
:1021A000802001900720059001A9DC48FEF7C2FDC0
:1021B000DB48DC4908604FF0006048600021D948E6
:1021C0008160C1604FF480610161002141618161E2
:1021D0004FF48071C161002101624162FEF7F0FCA1
:1021E00008B1FEF760FB00BFCE48E063846300BF28
:1021F000002205212520FEF75FFF2520FEF748FF7E
:1022000059E3FFE7C8492068884262D100BF002037
:102210000090C148001F006840F40030BE49091F0B
:1022200008600846006800F40030009000BF00BF5E
:1022300000BF00200090B8481438006840F0080043
:10224000B549143908600846006800F0080000909D
:1022500000BF00BF202001900220029000200390C8
:10226000032004900720059001A9B048FEF762FD05
:10227000402001900720059001A9AC48FEF75AFDC7
:10228000AB48AC4908604FF0006048600021A948A5
:102290008160C1604FF48061016100214161816111
:1022A0004FF48071C161002101624162FEF788FC38
:1022B00008B1FEF7F8FA00BF9E48E063846300BFF0
:1022C000002205212620FEF7F7FE2620FEF7E0FE7D
:1022D000F1E299492068884264D100BF0020009053
:1022E0008D48001F006840F480208B49091F08605A
:1022F0000846006800F48020009000BF00BF00BFC7
:102300000020009084481438006840F0080082499A
:10231000143908600846006800F00800009000BF0B
:1023200000BF881501900220029000200390032036
:1023300004900720059001A97C48FEF7FBFC4FF4B0
:10234000007001900720059001A97848FEF7F2FC83
:1023500077486038794908604FF000604860002194
:1023600076488160C1604FF4806101610021416164
:1023700081614FF48071C161002101624162FEF709
:102380001FFC08B1FEF78FFA00BF6C48E06384635E
:1023900000BF002205212720FEF78EFE2720FEF732
:1023A00077FE88E266492068884263D100BF00203A
:1023B00000905948001F006840F400205649091F4A
:1023C00008600846006800F40020009000BF00BFCD
:1023D00000BF0020009050481438006840F0010011
:1023E0004D49143908600846006800F0010000906B
:1023F00000BF00BFC814019002200290002003908B
:10240000032004900B20059001A94E48FEF792FC92
:102410004FF4805001900B20059001A94948FEF728
:1024200089FC434848384849086040054860002115
:1024300045488160C1604FF48061016100214161C4
:1024400081614FF48071C161002101624162FEF738
:10245000B7FB08B1FEF727FA00BF3B48E06384638F
:1024600000BF002205213420FEF726FE3420FEF7AF
:102470000FFE20E23549206888426BD100BF002062
:1024800000902548001F006840F480102249091F71
:1024900008600846006800F48010009000BF00BF8C
:1024A00000BF002000901C481438006840F0020073
:1024B0001949143908600846006800F002000090CD
:1024C00000BF00BF881501900220029000200390F9
:1024D000032004900B20059001A91048FEF72AFC68
:1024E0004FF4007001900B20059001A90B48FEF7F6
:1024F00021FC0F48783816490860C0054860002163
:1025000013488160C1604FF4806101610021416125
:10251000816120E000100140443802400004024084
:10252000406402400C09002000440040000C0240BE
:10253000886002406C09002000480040CC0900205F
:10254000004C004000000240EC070020005000401A
:102550004C08002018E04FF48071C1610021016235
:102560004162FEF72DFB08B1FEF79DF900BFD3488D
:10257000E063846300BF002205213520FEF79CFD47
:102580003520FEF785FD96E1CD49206888425FD170
:1025900000BF00200090CB48006840F02000C949EF
:1025A00008600846006800F02000009000BF00BFEF
:1025B00000BF00200090C3481438006840F00400B9
:1025C000C049143908600846006800F00400009013
:1025D00000BF00BF40200190022002900020039025
:1025E000032004900820059001A9B748FEF7A2FB3C
:1025F000802001900820059001A9B348FEF79AFBBE
:10260000B248B3490860800548600021B048816045
:10261000C1604FF4806101610021416181614FF42B
:102620008071C161002101624162FEF7C9FA08B1FF
:10263000FEF739F900BFA648E063846300BF0022BB
:1026400005214720FEF738FD4720FEF721FD32E146
:10265000A0492068884263D100BF002000909948BB
:10266000001F006840F080409649091F0860084636
:10267000006800F08040009000BF00BF00BF002055
:10268000009090481438006840F010008D491439CB
:1026900008600846006800F01000009000BF00BF0E
:1026A00080200190022002900020039003200490DB
:1026B0000820059001A98848FEF73CFB4FF4807084
:1026C00001900820059001A98348FEF733FB834859
:1026D000834908604FF02060486000218048816095
:1026E000C1604FF4806101610021416181614FF45B
:1026F0008071C161002101624162FEF761FA08B197
:10270000FEF7D1F800BF7648E063846300BF002283
:1027100005215220FEF7D0FC5220FEF7B9FCCAE09A
:1027200070492068884261D100BF00200090654850
:10273000001F006840F000406249091F0860084619
:10274000006800F00040009000BF00BF00BF002004
:1027500000905C481438006840F010005949143962
:1027600008600846006800F01000009000BF00BF3D
:102770000220019002900020039003200490082082
:10278000059001A95448FEF7D5FA012001900820D0
:10279000059001A95048FEF7CDFA504848305249FB
:1027A00008600005486000214F488160C1604FF417
:1027B000806101610021416181614FF48071C161DB
:1027C000002101624162FEF7FBF908B1FEF76BF8E8
:1027D00000BF4548E063846300BF00220521532009
:1027E000FEF76AFC5320FEF753FC64E03F49206883
:1027F000884260D100BF002000903248006840F05D
:102800008000304908600846006800F080000090B1
:1028100000BF00BF00BF002000902A4814380068A5
:1028200040F010002749143908600846006800F09D
:102830001000009000BF00BF08200190022002900D
:1028400000200390032004900B20059001A922484A
:10285000FEF770FA042001900B20059001A91E4894
:10286000FEF768FA19481838214908604FF02060CF
:10287000486000211E488160C1604FF480610161A1
:102880000021416181614FF48071C16100210162C9
:102890004162FEF795F908B1FEF705F800BF14484C
:1028A000E063846300BF002205215920FEF704FC89
:1028B0005920FEF7EDFB06B010BD00004C080020CB
:1028C00000140140443802400008024028640240DD
:1028D0002C0A00200078004000100240586002409E
:1028E000AC080020007C00408C0A0020001C014045
:1028F000EC0A00202DE9F84F04460E46174699468B
:102900004FF0000A94F84200202852D106B117B9BE
:102910000120BDE8F88F00206064222084F8420086
:1029200000202063FEF700FB8246A785E785A068AC
:10293000B0F5805F04D1206910B90025B04602E0EF
:1029400035464FF000082CE0534600222021204657
:10295000CDF8009001F03CF820B1202084F842002E
:102960000320D6E745B920684068C0F30800A8F8FE
:10297000000008F1020811E0A068B0F5805F03D004
:10298000A06828B9206918B920684068287004E058
:102990002068406800F07F0028706D1CE08D401EAC
:1029A000E085E08D0028CFD1202084F8420000206F
:1029B000AFE70220ADE770472DE9F84F04460E4619
:1029C000174699464FF0000A94F84100202850D14C
:1029D00006B117B90120BDE8F88F002060642120FE
:1029E00084F84100FEF7A0FA8246A784E784A06835
:1029F000B0F5805F04D1206910B90025B04602E02F
:102A000035464FF000081EE0534600228021204644
:102A1000CDF8009000F0DCFF20B1202084F84100C8
:102A20000320D8E745B9B8F80000C0F308002168D2
:102A3000486008F1020803E02878216848606D1CAE
:102A4000E08C401EE084E08C0028DDD1534600225B
:102A500040212046CDF8009000F0BAFF20B12020A0
:102A600084F841000320B6E7202084F841000020CC
:102A7000B1E70220AFE7704700BFFEE708B500BF2F
:102A8000002000902A48006840F48000284908602F
:102A90000846006800F48000009000BF00BF00BF3F
:102AA000002000900846006840F4001008600846C6
:102AB000006800F40010009000BF00BF0022052154
:102AC0000B20FEF7F9FA0B20FEF7E2FA00220521AF
:102AD0000C20FEF7F1FA0C20FEF7DAFA00220521AD
:102AE0000D20FEF7E9FA0D20FEF7D2FA00220521AB
:102AF0000E20FEF7E1FA0E20FEF7CAFA00220521A9
:102B00001020FEF7D9FA1020FEF7C2FA00220521A4
:102B10003920FEF7D1FA3920FEF7BAFA0022052152
:102B20003A20FEF7C9FA3A20FEF7B2FA08BD0000D3
:102B30003038024000B587B0142102A8FDF74EFDE1
:102B400000BF002001904548006840F080004349E4
:102B500008600846006800F08000019000BF00BFD8
:102B600000BF002001900846006840F01000086097
:102B70000846006800F01000019000BF00BF00BFD1
:102B8000002001900846006840F0080008600846F0
:102B9000006800F00800019000BF00BF00BF0020E7
:102BA00001900846006840F004000860084600688C
:102BB00000F00400019000BF00BF00BF00200190A2
:102BC0000846006840F0010008600846006800F010
:102BD0000100019000BF00BF00BF00200190084627
:102BE000006840F0020008600846006800F002003B
:102BF000019000BF00BF081502904FF4041003902D
:102C00000120049002A91648FEF794F802200290D1
:102C10004FF4041003900120049002A91148FEF71C
:102C200089F8012002904FF40410039001200490D1
:102C300002A90C48FEF77EF8002205210720FEF7C6
:102C40003BFA0720FEF724FA002205212820FEF790
:102C500033FA2820FEF71CFA07B000BD30380240D6
:102C600000080240000C024010B5104810490860EE
:102C70004CF24F30486000210D4881601421C16042
:102C80000021016180218161FEF77EFE08B1FDF720
:102C90000AFE6FF0010006490968086104490968E5
:102CA00008610348FEF74CFF10BD000000440140DE
:102CB000D404002010B51048104908604CF24F3081
:102CC000486000210D4881604FF4FA61C160002125
:102CD000016180218161FEF757FE08B1FDF7E3FD38
:102CE0006FF0010005490968086104490968086135
:102CF0000248FEF725FF10BD002000401C05002003
:102D00001CB5002000900190114812490860632012
:102D1000486000210F4881604FF6FF71C16080213B
:102D20008161FEF731FE08B1FDF7BDFD0020009086
:102D3000019069460748FEF7CDFD08B1FDF7B3FDE8
:102D400000200449096848620248FEF7ABFE1CBD3A
:102D5000001400408C04002010B50B480B4908609B
:102D60004FF4E1304860002108488160C160016192
:102D70000C21416100218161C161FFF78BF908B12C
:102D8000FDF791FD10BD0000001C0140A4070020CC
:102D900010B50C480C4908604FF4E1304860002140
:102DA000094881604FF40051C160002101610C218C
:102DB000416100218161C161FFF76CF908B1FDF744
:102DC00072FD10BD004C00406405002010B50B489A
:102DD0000B4908604FF4E1304860002108488160E9
:102DE000C16001610C21416100218161C161FFF776
:102DF00051F908B1FDF757FD10BD0000005000402B
:102E0000AC05002010B50B480B4908604FF4E130C9
:102E10004860002108488160C1600161082141616A
:102E200000218161C161FFF735F908B1FDF73BFD74
:102E300010BD000000780040F405002010B50B48DC
:102E40000B4908604FF4E130486000210848816078
:102E5000C16001610C21416100218161C161FFF705
:102E600019F908B1FDF71FFD10BD0000007C0040FE
:102E70005C07002010B50B480B4908604FF4E130A7
:102E80004860002108488160C16001610C214161F6
:102E900000218161C161FFF7FDF808B1FDF703FD75
:102EA00010BD0000001001403C06002010B50B488A
:102EB0000B4908604FF4E130486000210848816008
:102EC000C16001610C21416100218161C161FFF795
:102ED000E1F808B1FDF7E7FC10BD00000044004038
:102EE0008406002010B50C480C4908604FF4E1300E
:102EF00048600021094881604FF40051C160002101
:102F000001610C21416100218161C161FFF7C2F8BB
:102F100008B1FDF7C8FC10BD00480040CC060020F9
:102F200010B50C480C4908604FF4E13048600021AE
:102F3000094881604FF40051C160002101610C21FA
:102F4000416100218161C161FFF7A4F808B1FDF77B
:102F5000AAFC10BD001401401407002000BFFEE7CA
:102F600000BFFEE72DE9F04104460D46164600BFBE
:102F70000D48007808B900F093FD00BFEFF3118011
:102F80000746202080F3118800BF00BF3246294643
:102F9000204600F00BF88046F8B280F3118800BF9D
:102FA00000BF4046BDE8F081940B00202DE9F047BA
:102FB000074688461646C24607EB47011B4800EB0A
:102FC000C109D9F8140020B1012811D0022826D156
:102FD0001EE0484600F09AFD0546B54201D20024A5
:102FE00005E0344632465146484600F0D6FD18E02A
:102FF000484600F08BFD0546B54201D2284600E068
:103000003046044622465146484600F0C6FD08E0D8
:1030100032465146484600F087FD044601E0002450
:1030200000BF00BF2046BDE8F0870000AC0B0020C9
:1030300070B506462148007800B970BD20488089E7
:10304000B04201D1002507E01D48B0F85801B04258
:1030500001D1012500E0F0E7284600F0A7F804467A
:103060001CB1204600F014F900B1E6E715480078DD
:10307000FF280ED113480570012012494870002026
:103080008870C870284600F045F8E08A00F03AF9E8
:10309000D3E70C480078A8420DD0D4F84001401C7A
:1030A000C4F8400194F8480128B9284600F032F8E5
:1030B000012084F8480100BFBFE700002804002079
:1030C0008C0100202404002010B50C48007800B9C1
:1030D00010BD0B48006800F0010000B9F8E708488F
:1030E000001D006800F0010000B9F1E7002004496C
:1030F000091D086000F06AF800BFE9E72804002015
:103100000C480140014609B1012901D10120704755
:103110000020FCE770B50546284600F047F8044655
:1031200004B970BD05480068A18988430349086057
:10313000A08902491431086000BFF2E7003C014059
:1031400070B50546284600F031F8044604B970BD54
:10315000A08907490860064814380068A189084317
:10316000034914390860002084F8480100BFEEE7E5
:10317000143C014070B504460B4805782846FFF71B
:10318000C1FF28B124B10848C178284600F091F861
:1031900000F0D4F8FF2004490870002048708870BF
:1031A000C87000F07CF870BD2404002010B50446FF
:1031B0002046FFF7A7FF08B9002010BD5320604349
:1031C000014901EB8000F8E78C01002070B52F4920
:1031D0000878FFF7EBFF04461CB90020FFF7CAFF91
:1031E00070BD204600F054F8054628484078002875
:1031F00044D0012804D0022816D003283DD12DE068
:1032000045B1D4F84401401CC4F844010020FFF744
:10321000B1FFE5E702201D49487000208870C870A2
:10322000A08A00F06FF82DE04DB11848C07817491A
:103230008A7801219140C9B208431449C8701348E3
:103240008078401C1149887008468078082801D38E
:1032500003204870A08A00F055F813E0012D03D137
:103260000120FFF787FF07E0D4F84401401CC4F8B1
:1032700044010020FFF77EFF04E000BF0020FFF7BD
:1032800079FF00BF00BF00BFAAE7000024040020B0
:1032900010B50446A189A068FDF73EFE10BD10B52B
:1032A000002403E0E0B2FFF74BFF641C022CF9D3CB
:1032B00010BD70B506460D463046FFF777FF044651
:1032C00004B970BDB4F83001402805D3D4F83C01EE
:1032D000401CC4F83C01F4E7B4F82C1104F1EC00F4
:1032E000455404F596742088401C00F03F0020806F
:1032F000A088401CA080A068401CA060A4F5967423
:1033000000BFDEE700B9012000210B4A11600A4A24
:1033100024321160411E084A2C3211600121064AF4
:10332000143211600021121F11600121121F11605F
:103330000921014A116070470048014006480068B1
:1033400020F0010004490860002003490C310860A6
:10335000091D0860704700000048014010B54FF09B
:10336000E020006900F026FD012801D000F008FDF2
:1033700010BD000000B593B0342106A8FDF72EF96A
:10338000142101A8FDF72AF900BF0020009025486C
:10339000006840F08050234908600846006800F04B
:1033A0008050009000BF00BF00BF002000901E486A
:1033B000006840F440401C4908600846006800F47A
:1033C0004040009000BF00BF092006904FF48030BD
:1033D000079001200B9002200C9041050D910821CF
:1033E0000E91C8210F91022110911191129106A8FE
:1033F000FEF716F808B1FDF756FA0F2001900220EB
:103400000290002003904FF480500490002005901B
:10341000032101A8FDF7A2FE08B1FDF744FA13B09D
:1034200000BD0000403802400070004003480068C2
:1034300040F47000014908607047000088ED00E02A
:1034400010B5FFF741FE10BD10B50248FEF7CDFBE9
:1034500010BD0000D404002010B50248FEF7C5FBE3
:1034600010BD00004C0B002010B50248FEF7BDFB5C
:1034700010BD00001C05002010B502682D4B9842BD
:103480000ED0B0F1804F0BD02B4B984208D02B4B75
:10349000984205D02A4B984202D02A4B984203D139
:1034A00022F070024B681A43224B984220D0B0F1B0
:1034B000804F1DD0204B98421AD0204B984217D0F5
:1034C0001F4B984214D01F4B984211D01E4B98426C
:1034D0000ED01E4B98420BD01D4B984208D01D4B6E
:1034E000984205D01C4B984202D01C4B984203D105
:1034F00022F44072CB681A4322F080034C6943EAFD
:10350000040202608B68C3620B688362094B9842B5
:1035100002D00C4B984201D10B6903630123436134
:10352000036903F001031BB1036923F00103036185
:1035300010BD0000000001400004004000080040F1
:10354000000C0040000401400040014000440140E4
:103550000048014000180040001C004000200040CE
:1035600010B50248FEF722FC10BD000064050020E3
:1035700010B50248FEF71AFC10BD0000AC05002093
:1035800010B50248FEF712FC10BD0000F405002043
:1035900070B50546AC6B0020E085E0842046FEF760
:1035A00003FC70BD00BF00BF02680C3252E8002F60
:1035B00022F4907102680C3242E80013002BF3D120
:1035C00000BF00BF00BF0268143252E8002F22F093
:1035D00001010268143242E80013002BF3D100BF4E
:1035E000016B01290ED100BF00BF02680C3252E806
:1035F000002F22F0100102680C3242E80013002B69
:10360000F3D100BF202180F84210002101637047F0
:1036100010B504462068C06820F040002168C860EA
:10362000202084F841002046FFF725FA002010BD35
:10363000F8B5044694F84200222875D1A068B0F588
:10364000805F0CD1206950B90025A66A20684068C7
:10365000C0F308003080A06A801CA06215E0A56A53
:103660000026A068B0F5805F03D0A06828B9206963
:1036700018B920684068287004E02068406800F0AD
:103680007F002870A06A401CA062E08D401E80B2BE
:10369000E085002846D12068C06820F0200021681D
:1036A000C8602068C06820F480702168C860206805
:1036B000406920F0010021684861202084F8420020
:1036C00000206063206B012826D10020206300BF0A
:1036D00000BF21680C3151E8001F21F01000216863
:1036E0000C3141E80002002AF3D100BF20680068D5
:1036F00000F0100010280AD100BF002000902068C0
:103700000068009020684068009000BF00BFA18D55
:103710002046FEF748FB02E02046FFF74CF9002068
:10372000F8BD01E00020FBE70220F9E72DE9F84FA2
:1037300004462068006920F44050E168084321688D
:1037400008612169A068084361690843E169084389
:1037500000902068C06849F20C61884300990843D2
:103760002168C8602068406920F44070A16908435E
:10377000216848617A49206888420BD079492068DD
:10378000884207D078492068884203D0774920686A
:10379000884203D1FDF7DCFD814602E0FDF7C8FD5C
:1037A0008146E069B0F5004F6BD102206168A0FB53
:1037B000015003461920A9FB007001462A463846ED
:1037C000FCF7FAFD6421B0FBF1F04FEA001A022089
:1037D0006168A0FB01510B461920A9FB00712A4624
:1037E0003846FCF7E9FD834602206168A0FB0150E2
:1037F00003461920A9FB00712A463846FCF7DCFD78
:103800006421B0FBF1F000EBC00101EB0010ABEB69
:103810008000322101EBC0006421B0FBF1F000F028
:10382000F8000AEB400A02206168A0FB0150034641
:103830001920A9FB00712A463846FCF7BDFD8346D6
:1038400002206168A0FB015003461920A9FB00710A
:103850002A463846FCF7B0FD6421B0FBF1F000EBDE
:10386000C00101EB0010ABEB8000322101EBC00086
:103870006421B0FBF1F000F007005044216888603B
:103880006CE004206168A0FB01510B461920A9FBE4
:1038900000712A463846FCF78FFD82460420616895
:1038A000A0FB015003461920A9FB007001462A46DF
:1038B0003846FCF781FD6421B0FBF1F000EBC0015C
:1038C00001EB0010AAEB8000322101EB0010642113
:1038D000B0FBF1F000F0F00A04206168A0FB017079
:1038E00003461920A9FB005001463A462846FCF73A
:1038F00063FD6421B0FBF1F00AEB001A042061685B
:10390000A0FB01511920A9FB007080462A460B46F6
:1039100038464146FCF750FD834604206168A0FB11
:10392000015003461920A9FB007001462A4638467B
:10393000FCF742FD6421B0FBF1F000EBC00101EBAC
:103940000010ABEB8000322101EB00106421B0FBD2
:10395000F1F000F00F00504421688860BDE8F88F56
:10396000001001400014014000180140001C0140FB
:10397000014691F84100212828D18868B0F5805F80
:103980000BD1086948B90A6A1088C0F308000B68AF
:103990005860086A801C086205E00B6A581C0862BF
:1039A00018780B685860C88C401E80B2C88458B91B
:1039B0000868C06820F080000B68D8600868C0689C
:1039C00040F040000B68D860002070470220FCE700
:1039D0002DE9F84304460D4617469846089E31E007
:1039E000701C70B3FDF7A0FAA0EB0800B04200D83D
:1039F00016B90320BDE8F8832068C06800F0040011
:103A0000F8B1802D1ED0402D1CD020680068C0F376
:103A1000C000B0B100BF0020009020680068009096
:103A200020684068009000BF00BF2046FFF7BAFD45
:103A30000820606400BF002084F8400000BF01201F
:103A4000D8E7FFE7206800682840A84201D101209C
:103A500000E00020B842C3D00020CBE710B50248F8
:103A6000FEF7A4F910BD00003C06002010B5024886
:103A7000FEF79CF910BD00008406002010B5024836
:103A8000FEF794F910BD0000CC06002010B50248E6
:103A9000FEF78CF910BD00001407002000BFFEE700
:103AA00010B5114C03202061606110A0A061124983
:103AB000E161402121620021A1626162E1620BA00B
:103AC00020660E4961661021A16600212167E1662A
:103AD00061670BA1E01DFCF7E6FC0AA12046FCF79C
:103AE000E2FC2020A07110BD940B00205465726D83
:103AF000696E616C000000003C0C00207C0C002012
:103B000052545400534547474552000010B50146F2
:103B10000A69CB689A4204D88C68641EE41AA0181B
:103B200001E0D41A601E10BD2DE9F0470446894615
:103B300017464FF0000AE56800BFD4F81080A8458A
:103B400003D9A8EB0500461E04E0A5EB0800401CC5
:103B5000A1680E1AA068401BB04201D9304601E0AE
:103B6000A068401B0646BE4201D2304600E03846FF
:103B700006466168481932464946FCF7B8FCB2442B
:103B8000B144BF1B3544A068A84200D10025E560C0
:103B9000002FD2D15046BDE8F0872DE9F04704460A
:103BA00089461546E668A068871BAF4208D9616858
:103BB00088192A464946FCF79AFC7019E06010E023
:103BC000B8466168881942464946FCF790FCA5EB67
:103BD000070809EB070142466068FCF788FCC4F857
:103BE0000C80BDE8F087000002480068C0F30220A6
:103BF000704700000CED00E010B5002804DB0A0758
:103C0000130E054A135406E00A07140E034A00F087
:103C10000F031B1FD45410BD00E400E018ED00E0BA
:103C2000EFF31080704780F310887047FDF78EF92E
:103C3000FFF7A0FBFEF77EFFFEF720FFFFF71AF964
:103C4000FFF734F9FFF74EF9FFF7A2F8FFF7BEF8D8
:103C5000FFF766F9FFF7D6F8FFF7F0F8FFF77CF803
:103C6000FFF74EF8FFF700F8FFF724F8FCF742FDE6
:103C70000A490968096809B9012100E0002121B158
:103C80004FF0FF31064A116006E004490968C9682F
:103C9000C868034A4168116070470000540400205E
:103CA0008004002001460A69D1E901309860D1E919
:103CB000010358605068884201D188685060002034
:103CC00008611068401E10601068704742684A60C2
:103CD00093688B60936859609160086103685B1C0E
:103CE0000360704710B52148006818B101202049D1
:103CF00008603AE000201E4908601E4801680CE098
:103D000051B900BF502080F31188BFF34F8FBFF32C
:103D10006F8F00BF00BFFEE7491E01EB8100164A0E
:103D200052F8200008B9012000E000200028E7D167
:103D300001EB8102104B03EB820042685268426043
:103D400000F108024368934202D14268526842601F
:103D50004268D268094B1A6006480160184600683C
:103D6000C16A1846006800F0BBF910BD8804002045
:103D700074040020680400208C0C002050040020F3
:103D800010B500BF502080F31188BFF34F8FBFF3F1
:103D90006F8F00BF00F01EF818B14FF0805004493B
:103DA000086000BF002080F3118800BF10BD000034
:103DB00004ED00E00549096809B9012005E004495E
:103DC000096809B9022000E0002070476C04002057
:103DD000880400202DE9F0414FF0000851480068A8
:103DE000012802D05048006830B950480068401C93
:103DF0004F490968886100BF4A48006828B94B48A4
:103E00000168491C312000F0A5F8464800680028E8
:103E10007FD146480068451C4448056015BB4548AD
:103E20000068006808B9012000E0002050B900BF18
:103E3000502080F31188BFF34F8FBFF36F8F00BF07
:103E400000BFFEE73B4807683B4800683949086007
:103E50003948076039480068401C38490860FFF756
:103E600007FF00BF3648006885423FD300BF314896
:103E70000068006808B9012000E0002020B14FF080
:103E8000FF302F49086030E02A480068C068C468E5
:103E90006668B54202D22A48066026E0201DFFF778
:103EA00001FFA06A18B104F11800FFF7FBFE2146DC
:103EB000302000F04FF82349E06A0968884202D9AF
:103EC0002049E06A0860E16A01EB81011E4A02EBC9
:103ED0008100211DFFF7FAFE1C49E06A0968C96AE2
:103EE0008842C4D34FF00108C1E700BF17480068FB
:103EF000C06A00EB8000144951F82000012801D964
:103F00004FF001081248006808B14FF0010805E0C1
:103F1000FFE705480068401C034908604046BDE8CB
:103F2000F081000088040020700400206404002058
:103F30004C04002054040020580400207804002081
:103F400080040020680400208C0C00205004002015
:103F5000740400202DE9F04105460E460024002798
:103F60002648007800F0010018B125480068406834
:103F700010B90120BDE8F081FFF752FE8046012014
:103F8000FFF751FE1F480068C06E401C1D490968BC
:103F9000C8661D480068006A401C1C49096801EB9E
:103FA000801400BFA8B240F48050208015480068FB
:103FB000B0F86C0060801648406860601549606821
:103FC00009684969884207D212480068C068401CE5
:103FD00010490968C86000E000BF0E4960680968C0
:103FE0004861A6600C2221460120FEF7BBFF074670
:103FF0004046FFF718FE0020BCE700004404002004
:104000003C04002030040020340400203804002048
:10401000001000E04C0400202DE9F04705460E4654
:1040200017460024A0462748007800F0010018B188
:1040300025480068406810B90120BDE8F087FFF707
:10404000EFFD81460120FFF7EEFD20480068C06EBD
:10405000401C1E490968C8661D480068006A401C6B
:104060001C49096801EB801400BFA8B240F400505D
:10407000208016480068B0F86C00608016484068E0
:1040800060601649606809684969884207D2134828
:104090000068C068401C11490968C86000E000BFA2
:1040A0000E49606809684861A660E76010222146F1
:1040B0000120FEF757FF80464846FFF7B4FD002079
:1040C000BBE70000440400203C0400203004002032
:1040D0003404002038040020001000E04C040020CC
:1040E0002DE9F04105460E4601271B48007800F0F7
:1040F000010010B93846BDE8F0811748007800F09B
:10410000010018B115480068406820B914480068DB
:1041100005603846EFE7012010490968886000BF54
:10412000EFF31080044600BF012080F3108800BF29
:104130000B4800680560324629463720FFF76CFFC0
:104140000746022005490968886000BF84F310888B
:1041500000BF3846CFE70000440400203C040020A4
:10416000480400204FF04070E1EE100A704700064E
:1041700010160006101600000000000000000102EA
:104180000304060708090000000001020304000000
:10419000B0410008000000208C0400001402000858
:1041A000044200088C040020241300007002000860
:1041B0004132104201031624F42A010152FF49063C
:1041C00001433971B909B10F162404161345201E95
:1041D00001181B0C282E1301010EB2010304010C5F
:1041E0002C3C100240F51908321003FF8025013CD9
:1041F000141002404A0808324003FF8025013B02A8
:0442000067FF000054
:04000005080001D915
:00000001FF
