:020000040800F2
:1000000060D2002079030008D5A10008F976000825
:100010008D920008F91F000855F300080000000049
:10002000000000000000000000000000B90200080D
:10003000EB210008000000001503000851E0000853
:100040009303000893030008930300089303000838
:10005000930300089303000893030008C1240008D9
:100060009303000893030008CB24000871200008C4
:100070008120000891200008A120000893030008B7
:10008000B1200008930300089303000893030008BD
:10009000930300089303000893030008D524000885
:1000A000930300083DE1000835E1000893030008D0
:1000B00093030008930300089303000893030008C8
:1000C00093030008930300089303000893030008B8
:1000D00093030008F1EE000801EF000811EF00089B
:1000E000B524000893030008930300089303000855
:1000F000930300085DE100089303000893030008E0
:100100009303000893030008930300089303000877
:10011000D5E30008E5E300084DE10008930300087B
:1001200093030008C1200008D120000893030008B1
:100130009303000893030008930300089303000847
:100140009303000893030008930300089303000837
:1001500093030008930300089303000821EF0008AD
:100160009303000893030008930300089303000817
:100170009303000893030008000000000000000043
:100180009303000893030008F5E3000893030008B5
:100190009303000893030008000000009303000885
:1001A0009303000893030008000000000000000013
:1001B0009303000800000000000000009303000803
:1001C00093030008930300089303000893030008B7
:1001D000930300089303000800F002F800F05CF8B5
:1001E0000AA090E8000C82448344AAF10107DA4592
:1001F00001D100F051F8AFF2090EBAE80F0013F088
:10020000010F18BFFB1A43F001031847D047010044
:10021000F04701000A444FF0000C10F8013B13F0C6
:10022000070408BF10F8014B1D1108BF10F8015B4F
:10023000641E05D010F8016B641E01F8016BF9D142
:1002400013F0080F1EBF10F8014BAD1C0C1B09D199
:100250006D1E58BF01F801CBFAD505E014F8016B0B
:1002600001F8016B6D1EF9D59142D6D3704700009D
:100270000023002400250026103A28BF78C1FBD8AF
:10028000520728BF30C148BF0B6070471FB514F03C
:10029000FFFA1FBD10B510BD00F020FA1146FFF7A0
:1002A000F5FF0FF0CEFB00F03EFA03B4FFF7F2FFCC
:1002B00003BC00F045FA00002C4B19680868B0E850
:1002C000F04F80F30988BFF36F8F4FF0000080F389
:1002D000118870470000000008480068006880F33B
:1002E00008884FF0000080F3148862B661B6BFF34F
:1002F0004F8FBFF36F8F00DF00BF00BF08ED00E03E
:10030000DFF80C00016841F470010160704700BF24
:1003100088ED00E0EFF30980BFF36F8F134B1A688D
:100320001EF0100F08BF20ED108A20E9F04F10607A
:1003300009B44FF0500080F31188BFF34F8FBFF323
:100340006F8F11F0DFF94FF0000080F3118809BCC6
:1003500019680868B0E8F04F1EF0100F08BFB0EC45
:10036000108A80F30988BFF36F8F7047DC08002084
:10037000EFF30580704700000948804709480047AF
:10038000FEE7FEE7FEE7FEE7FEE7FEE7FEE7FEE745
:10039000FEE7FEE704480549054A064B70470000A2
:1003A00021E10008D901000860CC002060D20020C3
:1003B00060CE002060CE002053EA020C00F069807D
:1003C0002DE9F04B4FF00006002B1FBFB3FA83F569
:1003D00003FA05F424FA05F65E4012BF1643B2FA9A
:1003E00082F502FA05F4C5F120051EBF22FA05FCCC
:1003F00044EA0C04203556EA044C4FEA144418BF72
:10040000641C4FF000084FF00009904271EB030CA0
:1004100039D3002919BFB1FA81F701FA07F6B0FA0A
:1004200080F700FA07F6C7F120071EBF20FA07FC85
:1004300046EA0C062037B6FBF4FCA7EB0507103F95
:1004400007F01F0BCBF120060CFA0BFB2CFA06F67B
:1004500044BFB3460026202FA4BF5E464FF0000BDA
:100460005BEA060C08BF4FF0010B19EB0B09ABFB65
:10047000027C48EB0608C01B06FB02CC0BFB03CC3E
:1004800071EB0C01C1E70B46024641464846BDE808
:10049000F08B13B54FF000004FF00001AFF3008078
:1004A000BDE81C40704740EA010310B59B070FD11F
:1004B000042A0DD310C808C9121F9C42F8D020BAD4
:1004C00019BA884201D9012010BD4FF0FF3010BD8C
:1004D0001AB1D30703D0521C07E0002010BD10F85A
:1004E000013B11F8014B1B1B07D110F8013B11F820
:1004F000014B1B1B01D1921EF1D1184610BD40EAE1
:100500000103024630B59B0710D14FF0013400E0E3
:1005100008C208C91D1B9D4315EAC41FF8D013F07B
:10052000FF0102F8011B0DD01B0AF8E711F8013B8F
:10053000002B02F8013B05D011F8013B002B02F81B
:10054000013BF3D130BD032A40F2308010F0030CA0
:1005500000F0158011F8013BBCF1020F624498BF16
:1005600011F801CB00F8013B38BF11F8013BA2F1B3
:10057000040298BF00F801CB38BF00F8013B11F02E
:10058000030300F02580083AC0F0088051F8043BCE
:10059000083A51F804CBA0E80810F5E7121D5CBF3B
:1005A00051F8043B40F8043BAFF30080D20724BF6E
:1005B00011F8013B11F801CB48BF11F8012B24BF02
:1005C00000F8013B00F801CB48BF00F8012B704751
:1005D00010B5203AC0F00B80B1E81850203AA0E8DE
:1005E0001850B1E81850A0E81850BFF4F5AF5FEA12
:1005F000027C24BFB1E81850A0E8185044BF18C9C5
:1006000018C0BDE810405FEA827C24BF51F8043B6B
:1006100040F8043B08BF7047D20728BF31F8023BBF
:1006200048BF11F8012B28BF20F8023B48BF00F853
:10063000012B704702F0FF0343EA032242EA024221
:1006400000F002B84FF000020429C0F0128010F050
:10065000030C00F01B80CCF1040CBCF1020F18BF9E
:1006600000F8012BA8BF20F8022BA1EB0C0100F031
:100670000DB85FEAC17C24BF00F8012B00F8012B04
:1006800048BF00F8012B70474FF0000200B5134639
:1006900094469646203922BFA0E80C50A0E80C50A2
:1006A000B1F12001BFF4F7AF090728BFA0E80C5053
:1006B00048BF0CC05DF804EB890028BF40F8042B4C
:1006C00008BF704748BF20F8022B11F0804F18BFB9
:1006D00000F8012B7047704770477047754600F06F
:1006E0002BF8AE4605006946534620F007008546C4
:1006F00018B020B5FFF74EFEBDE820404FF00006D1
:100700004FF000074FF000084FF0000B21F00701F9
:10071000AC46ACE8C009ACE8C009ACE8C009ACE83C
:10072000C0098D46704710B50446AFF300802046DF
:10073000BDE81040FFF7B9BD0048704700CC00206D
:1007400001491820ABBEFEE72600020070470000FA
:1007500010B51B48807DC0B91A48007878B30020D6
:100760001849087041F2214007F098FF1448416889
:10077000012010F04DFC1248007C03281FD11048C6
:10078000817B00200FF0AEF819E00E480078B0B978
:1007900001200C4908700A48C07D00F2072141F28F
:1007A000214008F051F90648007C032803D10021BC
:1007B00001200FF097F80021084610F029FC10BD29
:1007C000F81200202104002070B52DED0A8B04469C
:1007D000462C00DD46243C2C26DD462C24DC20461D
:1007E00013F05BFE41EC1C0B9FED560B53EC102BF2
:1007F00013F066FE41EC1B0B9FED540B53EC102BDA
:1008000013F01EFC41EC190BA4F10A0013F045FE95
:1008100041EC1A0B53EC192B13F052FE41EC180B60
:1008200013F00EFEC5B288E0322C26DD3C2C24DC11
:10083000204613F032FE41EC1C0B9FED420B53ECB3
:10084000102B13F03DFE41EC1B0B9FED420B53ECC4
:10085000102B13F0F5FB41EC190BA4F10A0013F077
:100860001CFE41EC1A0B53EC192B13F029FE41EC42
:10087000180B13F0E5FDC5B25FE0282C25DB322C08
:1008800023DC204613F009FE41EC1C0B9FED2D0BE1
:1008900053EC102B13F014FE41EC1B0B9FED2F0BB0
:1008A00053EC102B13F0CCFB41EC190B601F13F031
:1008B000F4FD41EC1A0B53EC192B13F001FE41EC43
:1008C000180B13F0BDFDC5B237E01E2C25DB282C1C
:1008D00023DA204613F0E1FD41EC1C0B9FED190BD0
:1008E00053EC102B13F0ECFD41EC1B0B9FED1D0B9B
:1008F00053EC102B13F0A4FB41EC180BE01E13F08B
:10090000CCFD41EC1A0B53EC182B13F0D9FD41EC44
:10091000190B13F095FDC5B20FE0204613F0BDFD95
:1009200041EC190B9FED110B53EC102B13F0C8FD8C
:1009300041EC180B13F084FDC5B22846BDEC0A8BC0
:1009400070BD00007B14AE47E17A943F9A99999963
:100950009999F93FCDCCCCCCCCCCFC3F6666666691
:100960006666FE3F666666666666024000000000D8
:100970000000044010B518210148FFF785FE10BDA6
:100980009C150020F0B504460D461046002114E0E9
:10099000675C80EA072000260CE000F400471FB1E6
:1009A00083EA4007B8B203E04FF6FF7707EA40005A
:1009B000771CFEB2082EF0D3491CA942E8D3F0BD43
:1009C00001460348814201D1012070470020FCE725
:1009D000F4140020014609B1012070470020FCE713
:1009E0002DE9FE4381460E46174698460A9D012092
:1009F00033490870084646808780C580FF2008720A
:100A00000020C860B9F1000F03D0484603F069FD2B
:100A100000E000202A49086100204861314648462C
:100A200000F06FFA0446C4B12146484600F086F94A
:100A300038B1484600F05AF93146484600F061FAAC
:100A400004463B46324601214846CDE9005400F0B9
:100A50008FF914B10020BDE8FE83642010233A46CC
:100A60003146CDE900850290484603F003FF044675
:100A7000CCB12146484600F061F9A0B1484600F0EB
:100A800035F93146484600F03CFA58B96420102345
:100A90003A463146CDE900850290484603F0EAFE29
:100AA000044600E002243B46324601214846CDE997
:100AB000005400F05DF90CB90120CCE70020CAE732
:100AC0009C150020024600230AB90020704700212F
:100AD00004E0505C184483B2481CC1B21E29F8D30C
:100AE0001846F3E701464FF6FF7000EA41107047E1
:100AF0002DE9F04188B006460D4600271DB90020BB
:100B000008B0BDE8F081012419E026B1694620460D
:100B100000F0B4F803E06946204600F0A3F88046F0
:100B2000B8F1000F01D10020EAE7E8192022694658
:100B3000FFF709FD07F1200087B2601C84B2082C82
:100B4000E3D30120DCE72DE9F84380460D46164645
:100B50001C464046FFF73EFF20B11EB1B5F5805F51
:100B600000DA14B90020BDE8F8832819B0F5805FD9
:100B700001D90020F7E715E0402C01D9402000E022
:100B80002046074633462A46A02140460097FFF7F5
:100B900027FF08B90020E6E7E81985B23E44E01BCC
:100BA00084B200BF002CE7D10120DCE770B5044619
:100BB0000D46164633462A4621460248FFF7C3FF34
:100BC00070BD0000F414002070B504460D461646B2
:100BD00033462A4621460248FFF7B5FF70BD0000A4
:100BE000481500202DE9F04106460C4615460DB18A
:100BF000802C02DB0020BDE8F0814FF6FF7000EA98
:100C000044172EB1202229463846FFF7DDFFF2E7D0
:100C1000202229463846FFF7C9FFECE7F8B506461B
:100C20000D4614463046FFF7D5FE10B10CB1802DAD
:100C300001DB0020F8BD2846FFF754FF07462020BF
:100C400023463A46A02100903046FFF7C9FE08B976
:100C50000020EFE7204600F041F908B90020E9E75D
:100C60000120E7E770B504460D462A4621460248B2
:100C7000FFF7D4FF70BD0000F414002070B50446E7
:100C80000D462A4621460248FFF7C8FF70BD000006
:100C90004815002038B505460C461CB12846FFF71C
:100CA00099FE08B9012038BD10202346C201B021A9
:100CB00000902846FFF794FE08B90220F3E70020D1
:100CC000F1E7000010B5044621460248FFF7E2FFB5
:100CD00010BD0000F414002010B50446214602485F
:100CE000FFF7D8FF10BD00004815002010B50446DE
:100CF0002046FFF76FFE00B910BD2046FFF760FEEB
:100D000028B10C4803F0CCFB08F004F90DE00A48C8
:100D1000844204D103F0C4FB08F01AF905E0204630
:100D200003F0BEFB204603F0E1FB022003F0F0F8E5
:100D300000BFE1E7F41400204815002070B5064616
:100D40000C463046FFF746FE08B9002070BD30461D
:100D500003F0C4FB0546022C01D0032C01D1012075
:100D6000F4E705F0200008B10120EFE70020EDE7EF
:100D70002DE9F04704460D4616461F46DDE9088971
:100D80000C48057046808780A0F8068080F808909F
:100D90001CB1204603F0A2FB00E000200549C8601A
:100DA0001CB1204603F09DFB00E000200149486192
:100DB000BDE8F0879C1500202DE9F04781460C46E0
:100DC00014B90120BDE8F08720212046FFF73AFC46
:100DD000384A00214846FFF705FF08B90220F1E72D
:100DE000344800F07BF808B90320EBE7314801688C
:100DF000216140686061B9F1000F05D02046FFF71E
:100E00006BFF38B10420DDE72046FFF75BFF08B138
:100E10000420D7E728494846FFF76AFE08B90520AD
:100E2000D0E7102221462548FFF78DFBE02222491A
:100E300022481030FFF787FB41F221034FF6FF7283
:100E4000F0211E48FFF79EFD054648F205034FF6C8
:100E5000FF72F0211948FFF795FD064643F66553EA
:100E60004FF6FF72F0211548FFF78CFD07464AF256
:100E700097034FF6FF72F0211048FFF783FD80467D
:100E80002812207665763112A176E676391221771E
:100E900067774FEA2821A17784F81F80082204F1A0
:100EA000180104F11000FFF7FEFA08B1062089E7E7
:100EB000002087E7B4150020D4150020B4160020C8
:100EC00010B5044621460020FFF776FF10BD10B58F
:100ED000044621460120FFF76FFF10BD70B50446A0
:100EE0000CB9002070BD2046FFF7ECFD0546E07F01
:100EF000A17F40EA0126B54201D10120F2E700209E
:100F0000F0E770B504460D462046FFF763FD08B9CB
:100F1000012070BD642303222946204603F0CEFB46
:100F2000F7E710B504460BF021FE10BD10B50446DE
:100F30000A2C3CD2DFE804F03B050B11171D2329D6
:100F40002F35642141F2014007F07EFD2FE065213D
:100F500041F2014007F078FD29E0662141F20140AD
:100F600007F072FD23E0672141F2014007F06CFDBC
:100F70001DE0682141F2014007F066FD17E069219C
:100F800041F2014007F060FD11E06A2141F20140A9
:100F900007F05AFD0BE06B2141F2014007F054FDD0
:100FA00005E06C2141F2014007F04EFD00BF00BF9B
:100FB00010BD000008B511F007FA009040F2DC50B7
:100FC00010F03CFA0DF0BEF900BF0121684610F0A8
:100FD00067FA124804681EE0607AD8B1A069C8B107
:100FE0002068B8B16068401C6060D4E90010884295
:100FF00010D3002060600121204600F041F900205C
:10100000A16988470021204600F03AF9207A08B10A
:1010100000206072E469002CD7D0DDE700000020DA
:101020001CB51248006800B11CBD10480321002304
:101030004FF48062CDE900100DA10F4811F024F9A2
:1010400004460E480460012C01D1012000E000207C
:1010500050B900BF502080F31188BFF34F8FBFF30A
:101060006F8F00BF00BFFEE700BFDDE70400002078
:101070004170705461736B00B50F00080C000020C4
:10108000F0B50446002017A504B101B9F0BD5AB16E
:1010900005E012F801CB0646401C04F806C016789D
:1010A00016B1461C8E42F4D35BB105E013F801CBB8
:1010B0000646401C04F806C01E7816B1461C8E4237
:1010C000F4D305E015F801CB0646401C04F806C031
:1010D0002E7816B1461C8E42F4D30026265400BF4B
:1010E000D4E7000020402025753A253032752E25A2
:1010F0003033752E253033750000000010B50948D7
:10110000007800F0010018B107480068406800B995
:1011100010BD0648006818B9044905A012F0C2FDC8
:1011200000BFF5E7CC080020C4080020080000201C
:10113000536F66745461736B000000002DE9FF4F1C
:1011400087B04FF0000AD34600200590049007981E
:1011500028B1089818B1099808B10A9818B9002060
:101160000BB0BDE8F08F4248D0F804A041480068B9
:101170004069504507D93F480068C068401C3D4958
:101180000968C86000E000BF3A480068C0F814A0D1
:10119000002098B937480068D0F80CB0002068B932
:1011A0003448006880680490002038B931480068ED
:1011B00040680590002008B9049808B90020CFE7DE
:1011C000059810B90020012101E000210598804612
:1011D000894600224046ABFB003C02FB08C00BFBEB
:1011E000090013EB0A0440EB02052349A4FB0103A9
:1011F00005FB013104FB0211CDE900010023049A33
:10120000FFF7DAF8CDE902011C4A0023DDE902010B
:10121000FFF7D2F807990860184A0023DDE90201B8
:10122000FFF7CAF816461F46134A002330463946D0
:10123000FFF7C2F8089908600F4A00233046394684
:10124000FFF7BAF816461F464FF47A72002330466D
:101250003946FFF7B1F8099908604FF47A72002314
:1012600030463946FFF7A8F80A980260012077E770
:10127000001000E0D408002040420F0000879303D4
:1012800070B588B004460D46002007900690059082
:1012900004900CB908B070BD1A48007800F0010045
:1012A00018B119480068406800B9F3E7204600F01B
:1012B0002FF8FFF723FF0DB1206900E060690646B3
:1012C00006B9E7E711480068D0B104AB05AA06A942
:1012D00007A8FFF733FF68B1DDE905210498CDE9E0
:1012E0000012029032460948079B01689C2011F0C9
:1012F00099FF05E0324605480168982011F0C8FEC4
:1013000000BFC7E7CC080020C40800200800002068
:1013100010B5AAB004460020299028902CB1E068AE
:1013200018B1206918B1606908B12AB010BD14481D
:10133000007800F0010018B112480068406800B958
:10134000F3E7FFF7DBFE10A2502114A8E368FFF7D4
:1013500097FE0FA250216846E368FFF791FE29A986
:1013600014A812F09FFC08B92998206128A96846A2
:1013700012F098FC08B92898606100BFD5E700001A
:10138000CC080020C4080020424547494E200000F8
:10139000454E44200000000010B50DF0DDFF10BDEB
:1013A00010B5044604B3032027490874012008F04F
:1013B00013FF01200EF062FA01200EF0EBF902207B
:1013C00008F019FF41F288301F494860084641681B
:1013D00001200FF01DFE28201B4988730846817BE1
:1013E00000200EF07FFA2DE002201749087400203B
:1013F00008F0F2FE02200EF041FA01200EF0CAF9C8
:10140000002008F0F8FE1148007A8C2804D14CF234
:1014100050300D4948600BE00C48007A1C2803D17D
:101420000B480949486003E042F2107006494860E1
:101430000548416801200FF0EBFD0348817B012046
:101440000EF050FA10BD0000F8120020A01200208B
:10145000A086010010B5044601201749087094B118
:10146000002008F00DFF4FF4D4714FF4A25007F0A4
:10147000EBFA00200CF0EEFE1048C07BD8B1012042
:1014800008F0AAFE17E0022008F0FAFE40F2A911C7
:101490004FF4A25007F0D8FA03200CF0DBFE002333
:1014A0001A46194618460FF097FD00200349C873E5
:1014B000152007F0EDFE10BD1C040020F8120020DE
:1014C00010B540480078B0B13F48807D98B94020C1
:1014D0003E4988613E480078401C3D4908700846F6
:1014E0000078082807DD00200870364908704FF49E
:1014F0008000364988613448807D002854D0FFF749
:1015000027F934480088401C324908800846008882
:101510000A2803DC40202D4988613DE02D480088E1
:101520000A2808DD2B480088142804DC4FF48000CA
:101530002649886130E027480088142807DD2548BF
:1015400000881E2803DC40202049886124E02148CF
:1015500000881E2808DD1F480088282804DC4FF476
:1015600080001A49886117E01A480088282807DD9A
:1015700018480088322803DC4020144988610BE0B9
:1015800014480088322807DD124800883C2803DC14
:101590004FF480000D4988610E48008850280FDD07
:1015A00000200C4908800BE00648007818B94FF479
:1015B000800006498861002006490880FFF7C8F8C6
:1015C00010BD00001C040020F812002000000240A2
:1015D000250400202604002010B50446FFF770FF04
:1015E00010BD000010B50549054806F046FE0A2268
:1015F0000021034806F049FE10BD0000D91500087F
:101600006012002008490978884200D170470649D5
:10161000087018B14021054A916103E04FF4800140
:10162000024A916100BFF1E7200000200000024063
:1016300000B5524890F83900012836D1504800785A
:10164000401C4F49087008460078352814D008DC43
:1016500001280FD00E2814D01B280CD028281BD10D
:1016600010E042280FD04F2807D05C280CD08228E9
:1016700012D10DE000BF00BF00BF0120FFF7C2FF85
:101680000BE000BF00BF00BF0020FFF7BBFF04E07E
:1016900000203B49087000E000BF00BF0020374930
:1016A00081F83A003749087066E0344890F83A000B
:1016B00001282FD100203249087032480078401CA0
:1016C00030490870084600781F2813D006DC01282E
:1016D00009D00B280DD015281AD105E0292804D0EF
:1016E000332815D10AE000BF00BF0120FFF78AFFB1
:1016F0000FE000BF0020FFF785FF0AE00020FFF7A2
:1017000081FF00201D4981F83A001E49087000E061
:1017100000BF31E01948008E0A2826DB0020184956
:101720000870184908701548008E60B1642805D00B
:10173000C82807D0B0F5967F09D100BF0120FFF778
:1017400061FF05E000BF0020FFF75CFF00E000BF85
:1017500000BF0A48008E0A38084908860846008EED
:1017600050B90020FFF74EFF06E000200449087042
:1017700004490870FFF746FF00BD00006404002024
:10178000210000202200002010B504460A2C3CD283
:10179000DFE804F03B050B11171D23292F35C82165
:1017A00041F2024007F050F92FE0C92141F2024016
:1017B00007F04AF929E0CA2141F2024007F044F952
:1017C00023E0CB2141F2024007F03EF91DE0CC219D
:1017D00041F2024007F038F917E0CD2141F2024012
:1017E00007F032F911E0CE2141F2024007F02CF966
:1017F0000BE0CF2141F2024007F026F905E0D021AD
:1018000041F2024007F020F900BF00BF10BD000008
:1018100000B587B0142102A8FEF736FF00BF0020F4
:1018200001908848006840F0010086490860084639
:10183000006800F00100019000BF00BF00BF002061
:1018400001900846006840F0020008600846006801
:1018500000F00200019000BF00BF00BF0020019017
:101860000846006840F0040008600846006800F080
:101870000400019000BF00BF00BF00200190084697
:10188000006840F0080008600846006800F00800A2
:10189000019000BF00BF00BF002001900846006813
:1018A00040F0100008600846006800F01000019049
:1018B00000BF00BF00BF002001900846006840F054
:1018C000800008600846006800F08000019000BFBA
:1018D00000BF012209155C4802F0D6FD4FF480607C
:1018E00002900120039004900020059002A9564820
:1018F00002F0C6FC00224021544802F0C5FD402001
:1019000002900120039004900020059002A94F4806
:1019100002F0B6FC302002901120039000200490C9
:101920000220059002A94A4802F0AAFC4FF4005098
:10193000029011200390002004900220059002A93B
:10194000444802F09DFC4FF4805002901120039017
:10195000002004900220059002A93E4802F090FC6D
:101960001C200290002003900120049002A9394815
:1019700002F086FC032002900020039001200490D6
:1019800002A9344802F07CFC4FF480500290002001
:1019900003900120049002A92D4802F071FC4FF43D
:1019A000407002900120039004900020059002A94D
:1019B000274802F065FC4FF440700290012003902C
:1019C00004900020059002A9204802F059FC012251
:1019D000D103214802F058FD4FF40040029001204D
:1019E000039000200490059002A91B4802F048FCD7
:1019F000022002904FF4041003900120049002A9E9
:101A0000144802F03DFC4FF4806002904FF4041043
:101A100003900120049002A90D4802F031FC00223D
:101A20000521072003F056FA072003F03FFA0022B1
:101A30000521282003F04EFA282003F037FA07B0DA
:101A400000BD00003038024000100240000002409B
:101A500000080240000C02400004024030B5ADB066
:101A600000250024982107A8FEF70EFE182101A8E2
:101A7000FEF70AFE07A80DF0C9FAC5B2062D01DA75
:101A80002DB030BD0024C4E007A8005DAA286ED1A7
:101A900007A9201D085CEE286AD19DF82100FF28C7
:101AA000FAD101205E49087007A90819062201A988
:101AB00000F0A4FA9DF807000D2812D2DFE800F02C
:101AC000A107122F3C454E596B747D88930001206D
:101AD000544981F837004FF4077141F2504006F045
:101AE000B3FF8EE041F2504006F0D8FD00204D4992
:101AF00081F8370081F838000846807A28B10B2039
:101B000081F82000012081F839004648807D28B105
:101B1000002044498875C87581F8380071E0414853
:101B2000807D00B1ACE73F4890F8370018B1012044
:101B30003C4981F8380064E03A4890F8370018B121
:101B40000020384981F838005BE0364890F83700CB
:101B500018B10120334981F8200052E0314890F853
:101B6000370018B103202F4981F8200049E04EE0EA
:101B700048E02C4890F8370060B12A4800780128E6
:101B800004D11920274981F8200003E018202549B5
:101B900081F8200035E0234890F8370018B10B2079
:101BA000204981F820002CE01E4890F8370018B139
:101BB0000C201C4981F8200023E01A4890F83700D7
:101BC00028B1012017494877072081F8200018E044
:101BD000144890F8370028B10120124948770520B1
:101BE00081F820000DE00F4890F8370048B10D480B
:101BF000807D28B100200B498875C87581F83800B0
:101C000000BF00BF182101A8FEF73EFD38E7601CA9
:101C1000C4B2681FA0423FF737AF00BF30E70000F3
:101C20001C040020F812002070B5C6B00025002466
:101C30004FF4807106A8FEF727FD18216846FEF7CD
:101C400023FD002606A80DF07DF9C5B20B2D01DAA3
:101C500046B070BD002460E006A8005DAA285AD1F5
:101C600006A908190A2100F0D7F9064606A904F1C9
:101C70000A00095C06AA401C105C01EB0020B0427F
:101C800049D106A908190C22694600F0B7F99DF858
:101C9000070020B90020244981F84D001DE00120F3
:101CA000214981F84D0021480078012803D10820FE
:101CB0001E49C87506E01D480078022802D1092097
:101CC0001A49C875012019498875002008F05AFE84
:101CD00000201649C877887708779DF80100062804
:101CE00009D2DFE800F008030405060704E003E07A
:101CF00002E000BF00E000BF00BF00200A4981F8F9
:101D00003600012081F835000F216846FEF7BCFC43
:101D100004F10C00C4B2601CC4B2A5F10B00A042D7
:101D20009ADC00BF94E7000064040020F812002051
:101D30002DE9FE4F04460D4616469846DDE90C9AFD
:101D40001AA207CA8DE80700052C03DC062D01DC6A
:101D5000642E01DDBDE8FE8F8DF801508DF8026024
:101D60008DF803404FEA19208DF8040009F0FF00B8
:101D70008DF805008DF806804FEA1A208DF80700CF
:101D80000AF0FF008DF808000921684600F044F9C8
:101D90000746F8B28DF80900380A8DF80A000B21C1
:101DA00068460DF01FF900BFD4E70000AA0100014A
:101DB0000000010000000000FEB505460F46144675
:101DC00014A207CA8DE807008DF8017000208DF875
:101DD00002008DF80350200A8DF80400E0B28DF85F
:101DE000050002208DF8060000208DF807008DF810
:101DF00008000921684600F00FF90646F0B28DF898
:101E00000900300A8DF80A000B2168460DF0EAF847
:101E1000FEBD0000AA010001000002000000000059
:101E2000FEB504460D4616461F46134A07CA8DE8FE
:101E300007000B2168460DF0D5F802208DF806004A
:101E4000052000F0D3F90B2168460DF0CBF80520F2
:101E500000F0CCF902208DF801000B2168460DF04E
:101E6000C1F8052000F0C2F901208DF806000B2111
:101E700068460DF0B7F8FEBD1C49010870B5044670
:101E80000D462946204602F0EDFA70BD70B50446B5
:101E90000D462946204602F0E5FA70BD70B50446AD
:101EA0000D462946204602F0DDFA70BD70B50446A5
:101EB0000D46164632462946204602F0E5FA70BD28
:101EC00070B50546284600F023F804460CB90120F9
:101ED00070BD204603F078FEFAE770B50546284647
:101EE00000F016F804460CB9012070BD204603F03E
:101EF0003DFFFAE770B50546284600F009F80446AC
:101F00000CB9012070BD204603F0EBFEFAE700009B
:101F100001460B2917D2DFE801F01606080A0C0E5D
:101F2000101216161400094870470948FCE70948C2
:101F3000FAE70948F8E70948F6E70948F4E70948E5
:101F4000F2E70948F0E70020EEE70000080B002068
:101F5000500B0020980B0020300A0020780A002047
:101F6000E00B0020C00A0020700C002070B506466F
:101F70000D463046FFF7CCFF04460CB9012070BD7A
:101F80006560204604F086F8F9E72DE9F041054642
:101F90000E4617462846FFF7BBFF044614B901203A
:101FA000BDE8F0813A463146204604F07DFDF7E772
:101FB00000B503461846FFF7ABFF02460AB1D06BE7
:101FC00008B9002000BDD06B00684068FAE72DE931
:101FD000F04105460E46174698462846FFF798FFFB
:101FE000044614B90120BDE8F08143463A46314623
:101FF000204604F071FDF6E700BFFEE710B503468A
:102000000C46002100BF03E0585C6054481C81B2BC
:102010009142F9DB104610BD70B502460D46FF2116
:10202000FF23002409E012F8010B80EA03040748AB
:10203000005D80EA01030648015D281EA5F1010646
:10204000B5B2F0D143EA012070BD000023000020AA
:102050002301002010B503460C46002100BF02E01A
:102060006354481C81B29142FADB104610BD000057
:1020700010B5024801F06CFD10BD0000180D0020E5
:1020800010B5024801F064FD10BD0000980E00205C
:1020900010B5024801F05CFD10BD0000B80C002036
:1020A00010B5024801F054FD10BD0000780D00206D
:1020B00010B5024801F04CFD10BD0000380E0020A4
:1020C00010B5024801F044FD10BD0000F80E0020DC
:1020D00010B5024801F03CFD10BD0000D80D0020F5
:1020E0000146087810381823B0FBF3F20848805CEA
:1020F000C865032A05D908686FF30900001D8865C3
:1021000003E008686FF309008865886D7047000078
:102110009A480108014600208A6A8B69CBB932B11E
:10212000012A0DD0022A03D0032A10D10EE000BFED
:10213000CB6A03F08073B3F1807F00D1012007E008
:10214000CB6AB3F1C07F00D1012001E000E000BF05
:1021500034E08B69B3F5005F1AD132B1012A07D0A0
:10216000022A03D0032A11D10AE000BF01200EE0A9
:10217000CB6A03F08073B3F1807F00D1012006E0C9
:10218000CB6AB3F1C07F00D1012000E000BF15E0B1
:1021900032B1012A05D0022A04D0032A0CD103E06F
:1021A00000BF00BF012008E0CB6A03F08073B3F1E9
:1021B000807F00D1012000E000BF00BF704730B534
:1021C0000468246824F4802405682C600468636033
:1021D0008468402C04D10468A2600468E16003E0D4
:1021E0000468A1600468E26030BD704770B50446C1
:1021F000002507E006F03CF840F2DE3000F006F87B
:10220000681C85B2A542F5DB70BD000000210022EC
:10221000054B1B685A6203E0034A1268526A91B286
:102220008142F9DB704700005809002010B50446D0
:102230007B48807F00287DD17948C07D0028FAD175
:102240000D2C61D1764840780D2859D2DFE800F096
:102250005808090A0B1A1B0C573946070D0000BF16
:1022600000BF00BF00BF00BF00BF02200DF006FB93
:1022700001200DF08FFA002007F0BDFF0120694911
:1022800008703DE000BF0120664908706448C07BCB
:1022900048B902200DF0F2FA01200DF07BFA00207F
:1022A00007F0A9FF0CE0002101200DF01BFB02202C
:1022B0000DF0E4FA01200DF06DFA012007F09BFF0C
:1022C0001EE001205749087002200DF0D7FA0120C6
:1022D0000DF060FA002007F08EFF11E00120514957
:1022E000087002200DF0CAFA01200DF053FA012007
:1022F00007F081FF002101200DF0F4FA00E010BD8D
:1023000000BF0220464908740E2C61D14448407831
:102310000D2859D2DFE800F05808090A0B1B1C0CE5
:10232000573A47070D0000BF00BF00BF00BF00BF06
:1023300000BF00E071E001203A4908700DF09EFAFC
:1023400002200DF027FA002007F055FF3CE000BF07
:102350000120344908703248C07B48B901200DF093
:102360008DFA02200DF016FA002007F044FF0CE071
:10237000002101200DF0B6FA01200DF07FFA0220B5
:102380000DF008FA012007F036FF1DE001200DF0E6
:1023900075FA02200DF0FEF9002007F02CFF012055
:1023A0002049087010E001201E4908700DF066FAFF
:1023B00002200DF0EFF9012007F01DFF00210120A0
:1023C0000DF090FA00E09AE700BF0120144908746C
:1023D0000F2C22D112484078052807D010484078A9
:1023E000062803D00E4840780A2816D10C48C07B36
:1023F000012812D10B4908700948817B00200DF09B
:1024000071FA01200DF03AFA01200DF0C3F9022013
:1024100007F0F1FE03200249087400BF6FE70000D7
:10242000F81200201C04002010B50549054805F0ED
:1024300024FF37220021034805F027FF10BD0000CC
:10244000078D0008E010002010B50549054805F08B
:1024500014FF32220021034805F017FF10BD0000D1
:10246000FD8C0008C010002010B505F0EDFB10BD7C
:1024700070B506460C46154608E03046721C96B20A
:1024800005F068FB04F8010B681E85B2002DF4D13D
:1024900070BD70B506460C46154608E014F8011BE1
:1024A0003046731C9EB205F084FB681E85B2002D79
:1024B000F4D170BD10B54FF4806001F0D3FE10BDB3
:1024C00010B5022001F0CEFE10BD10B5102001F0B5
:1024D000C9FE10BD10B5402001F0C4FE10BD72B69B
:1024E00000BFFEE710B504461A2C02D01B2C08D101
:1024F00003E001200AF048FC03E002200AF044FC5B
:1025000000BF00BF10BD000010B5002201B909E0F6
:10251000012901D10A0205E0022901D10A0201E0E4
:102520004FF440720E4B1B6823F440730C4C236035
:1025300023461B681343236023461B6823F078035C
:10254000236023461B68022444EAC0042343044C4E
:10255000236023461B6843F48033236010BD0000D2
:10256000103C02401C48006800F40070B0B11A48EA
:10257000006820F400701849086000BF0846006831
:1025800040F4006008600846006820F400600860BD
:1025900000BF0846006840F4007008600E480068FC
:1025A00000F48060B0B10C48006820F480600A49F3
:1025B000086000BF0846006840F480500860084684
:1025C000006820F48050086000BF0846006840F4AE
:1025D0008060086070470000003C02400A4A1268B0
:1025E00022F44072084B1A601A46126842F0040244
:1025F0001A601A4612684FF4803343EA00231A43E4
:10260000014B1A6070470000103C0240074A1268F4
:1026100022F44072054B1A601A4612681A601A4674
:10262000126842F001021A6001707047103C0240CB
:1026300010B50A49096821F44071084C216021460F
:10264000096841F4407121602146096841F00101A7
:1026500021600260BFF36F8F436010BD103C0240E9
:10266000084A126822F44072064B1A601A46126831
:1026700042F480721A601A46126842F001021A602F
:1026800001807047103C0240084A126822F44072F0
:10269000064B1A601A46126842F400721A601A4613
:1026A000126842F001021A6001607047103C02405B
:1026B0002A48006800F0100040B12948C06940F085
:1026C00010002749C8611020244908602348006889
:1026D00000F0200040B12248C06940F008002049C5
:1026E000C86120201D4908601C48006800F04000B7
:1026F00040B11B48C06940F004001949C86140203E
:10270000164908601548006800F0800040B1144880
:10271000C06940F002001249C86180200F4908607A
:102720000E48006800F4807048B10D48C06940F060
:1027300001000B49C8614FF48070084908600748E0
:10274000006800F0020040B10548C06940F0200078
:102750000349C86102200149086070470C3C0240EF
:102760006010002070B50446002500201449C8619F
:1027700001F090FE054609E0601C38B124B101F07B
:1027800089FE401BA04201D9032070BD0D4800689E
:1027900000F480300028EFD10A48006800F0010002
:1027A00010B10120074908600648006800F4F9707C
:1027B00018B1FFF77DFF0120E7E70020E5E7000003
:1027C000601000200C3C024010B50446074890F809
:1027D000370000B110BD0548407C032800D1F9E75F
:1027E00000F03EF900F05CFB00BFF3E7F8120020B8
:1027F00001461C48814201D2002070471A4881429C
:1028000001D20120F9E71948814201D20220F4E700
:102810001748814201D20320EFE71648814201D2D6
:102820000420EAE71448814201D20520E5E7134875
:10283000814201D20620E0E71148814201D20720FF
:10284000DBE71048814201D20820D6E70E488142DA
:1028500001D20920D1E70D48814201D20A20CCE7FC
:102860000B20CAE7004000080080000800C00008F4
:10287000000001080000020800000408000006082B
:102880000000080800000A0800000C0800000E08FC
:1028900070B503460C46154600221E4600BF07E0F1
:1028A000304608F037FB44F82200361D501C82B237
:1028B000AA42F5DB70BD2DE9F04F87B0044688468B
:1028C000914600200190254604EB090682460090BF
:1028D00000278346B5F1006F02D3B6F1016F04D330
:1028E0004FF0FF3007B0BDE8F08F01F0D1FB284674
:1028F000FFF77EFF82463046FFF77AFFA0EB0A0023
:10290000401C0090012003900020029002200690BD
:10291000CDF810A00098059001A902A801F00CFBC9
:1029200010B16FF00100DDE72F460FE058F82BC023
:10293000624600233946022001F05EFB18B90BF114
:10294000010B3F1D02E06FF00200CBE7B742EDD371
:1029500001F048FB0020C5E72948C07D00284BD185
:102960002748007E032806D1012025494877052005
:1029700081F8200040E02248007E022804D10B208C
:102980001F4981F8200037E01D48C07C10B91C4861
:10299000007D18B31A48007E012805D118494877F0
:1029A000072081F8200027E01548007E052804D183
:1029B0001620134981F820001EE01148007E0628E9
:1029C0001AD10F480078022809D10D4890F822004A
:1029D000012811D118200A4981F820000CE008488C
:1029E0000078012808D1064890F82200012803D178
:1029F0001920034981F8200000200149087670471A
:102A0000F812002000B50246044890F8370000B1E3
:102A100000BDFFF7A1FF00BFFAE70000F812002099
:102A200010B50549054805F028FC1E220021034881
:102A300005F02BFC10BD0000052A00084012002004
:102A400010B50549054805F018FC19220021034876
:102A500005F01BFC10BD0000C92700080011002074
:102A600010B5FE48407E401CFC4948760846407E32
:102A7000142801DD00200876F848007E012812D1D4
:102A80000020F7490870F7480078401CF5490870A5
:102A900008460078032825DB0120F34988740020CC
:102AA000F04908701EE00020EE490870EC480078FC
:102AB000401CEB49087008460078032812DB002010
:102AC0000870E949887481F821000120E7490870FD
:102AD0000020E54981F822000846C07F10B9002097
:102AE00088778862E048807C18B30120E04908704C
:102AF000E048007800281BD00120DF490870002042
:102B0000DC4908700120D849487481F8210002206E
:102B10000EF0A6FAD4484078052803D101200EF023
:102B2000BBFA02E000200EF0B7FA01200EF0D0FA56
:102B30006EE0CF480078002836D00120CE490870DA
:102B40000020C94981F82400C94908700EF088FAAC
:102B5000C548407BA8B9C448007F90B10020C24955
:102B6000087707F00FFFC0484078052803D10220FE
:102B70000EF092FA02E000200EF08EFA01200EF024
:102B8000A7FAB948407805280BD10220B649487405
:102B900000200EF065FA02200EF07EFA01200EF001
:102BA00097FA0020AD4948820120B2490870AE482A
:102BB000C07D012817D0AC48C07D022813D0AA4898
:102BC000C07D03280FD0A848C07D04280BD0A6489C
:102BD000C07D0B2807D0A448C07D0C2803D0A24894
:102BE000C07D0D2804D100209F49C87588750FE06D
:102BF0009D48C07D082803D09B48C07D092807D187
:102C00009948407C012803D100209749C8758875F0
:102C1000954890F82100002813D0944800780028A7
:102C20007DD0914890F82200012869D1934800781E
:102C3000401C9249087008460078012802D107F02C
:102C4000D3FD27E18D480078032802D107F0CCFDA1
:102C500020E18A480078052802D107F0B5FD19E186
:102C600086480078072802D107F0AEFD12E18348BC
:102C70000078092802D107F0C7FD0BE17F480078F2
:102C80000B2802D107F0C0FD04E17C4800780E2833
:102C9000D7D10020754908707048808840F2EE2135
:102CA000884214DD6D48808840F2B63188420EDAE1
:102CB0006A484088B0F5FA7F09DD68484088B0F579
:102CC0002F7F04DA0120684981F82400E2E00B201C
:102CD0006549C87501208875002081F824000846E0
:102CE000407B0028ADD00020487307F04BFE5E48C3
:102CF000C17A01200CF015FE01200CF0D9FDC9E0CD
:102D0000594890F8220002289BD15D480078401C69
:102D10005B49087008460078012804D100E0B4E05F
:102D200007F062FD4BE056480078032802D107F017
:102D30005BFD44E052480078052802D107F044FDCD
:102D40003DE04F480078072802D107F03DFD36E00E
:102D50004B480078092802D107F056FD2FE048487B
:102D600000780B2802D107F04FFD28E04448007896
:102D70000D2802D107F050FD21E0414800780F28CE
:102D800002D107F049FD1AE03D480078112802D130
:102D900007F032FD13E03A480078132802D107F01B
:102DA0002BFD0CE036480078152802D107F014FD01
:102DB00005E033480078172801D107F00DFD3048B1
:102DC00000781A2866D10020284908702348008A14
:102DD00040F2EE2188422ADD2048008A40F2B631D6
:102DE000884224DA1D488089B0F5FA7F1FDD1B4830
:102DF0008089B0F52F7F1ADA1848C08940F2EE2199
:102E0000884214DD1548C08940F2B63188420EDA96
:102E100012484089B0F5FA7F09DD10484089B0F5C5
:102E20002F7F04DA0120104981F8240032E00C20C1
:102E30000D49C87501208875002081F824000846D6
:102E4000407B50B10020487307F09CFD0648C17AD2
:102E500001200CF066FD012014E01BE0C8140020E6
:102E60003C0200203B020020F81200203802002023
:102E70003A020020390200201C0400203D020020FC
:102E80003E0200200CF014FD04E00020024908700E
:102E90000249087010BD00003D0200203E020020E3
:102EA0001048007F062818D2DFE800F01703070B50
:102EB0000F1306200C4908760FE005200A49087612
:102EC0000BE001200849087607E003200649087650
:102ED00003E002200449087600BF00BF002001493A
:102EE00008777047C8140020F81200202DE9F04739
:102EF00082460027B846002400250026FC4890F8AA
:102F0000370008B1BDE8F087F94890F822000128A1
:102F100003D1F848B0F8008002E0F6480588C4887C
:102F2000F34890F8240000287CD0F148807D0028E8
:102F300077D1EF48407C0128FAD1ED48007801288C
:102F400071D1EB4890F8220001286DD1E948408901
:102F5000404505DAE7484089A8EB000087B200E069
:102F60000027322F6DDDE248407B01280AD1002086
:102F7000DF4948730846C17A01200CF0D2FC0120D9
:102F80000CF096FC0120DA490877C87AFDF71CFCA2
:102F90008146484607F0F6FCD648408A40450CDAA0
:102FA000D448C089404502DAD248B0F80E80D148F2
:102FB000408AA8EB000087B200E00027142F3BDD19
:102FC000CB484668CB48C089CA49498A411A323938
:102FD000C848408AA8EB000014387043B0FBF1F0F9
:102FE0000A21B0FBF1F0C24988620A20B6FBF0F07A
:102FF000896A884204D20A20B6FBF0F0BC49886294
:10300000BB4890F8360080B1BB480078401CBA49F4
:10301000087008460078322803DD0020B44981F8A2
:103020003600B4E2CBE26FE124E00020B249087040
:103030000120AF498877AAE20020AD4988628877ED
:10304000A5E20020AA4908770846407B10B9002075
:1030500007F098FC0020A649886288770846807DA2
:103060000028DED00846C07D0828DAD10020887507
:10307000C8758CE29E4890F822000228D1D19D4864
:103080008089A84204DA9B488089281A87B200E028
:103090000027142F67DD9648407B01280AD10020C5
:1030A000934948730846C17A01200CF03AFC01208C
:1030B0000CF0FEFB01208E490877C87AFDF784FBEF
:1030C0008146484607F05EFC8A48808AA8420ADAB0
:1030D0008848008AA84201DA8648058A8548808A9D
:1030E000281A87B200E00027142F37DD8048466891
:1030F0008048008A7F49898A411A32397D48808A0E
:10310000281A14387043B0FBF1F00A21B0FBF1F03B
:10311000774988620A20B6FBF0F0896A884204D2B7
:103120000A20B6FBF0F072498862714890F83600C8
:1031300068B171480078401C6F49087008460078F3
:1031400032281FDD00206A4981F836001AE000208D
:103150006949087001206649887713E000206449B6
:10316000887788620EE0624890F8330050B90020FA
:103170005F498877886208770846407B10B900204D
:1031800007F000FC5A48007D002877D15B490870A1
:1031900058484089A04204DA56484089201A87B22C
:1031A00000E00027142F70DD0120514981F8330021
:1031B0000846407B012809D1002048730846C17A9F
:1031C00001200CF0AEFB01200CF072FB01204849FD
:1031D0000877C87AFDF7F8FA8146484607F0D2FB2F
:1031E0004448408AA0420ADA4248C089A04201DA33
:1031F0004048C4893F48408A201A87B200E000272F
:10320000142F3DDD3A4846683A48C0893949498A11
:10321000411A32393748408A201A14387043B0FBBB
:10322000F1F00A21B0FBF1F0314988620A20B6FBC7
:10323000F0F0896A884204D20A20B6FBF0F02C49EB
:1032400088622B4890F8360068B12B480078401C03
:10325000294908700846007832280ADD00202449F0
:1032600081F8360005E0002023490870012020493C
:10327000887701201E4981F8330088E11AE004E0D4
:1032800000201B498862887781E1194890F8330053
:103290000128F2D10020164908770846407B10B972
:1032A000002007F06FFB002011498862887781F8C1
:1032B00033006CE10F484089A04204DA0D48408990
:1032C000201A87B200E00027142F19DD0B48007880
:1032D000401C0A490870084600784628CDDD1920B0
:1032E000034981F820000020044908704FE10000E4
:1032F000F8120020C81400203F02002040020020E5
:103300000020FE49087042E1FD4800780228B4D14F
:10331000FB4890F82200012800D14446F948408932
:10332000A04204DAF7484089201A87B200E000275B
:10333000142F67DDF248407B01280AD10020F049B4
:1033400048730846C17A01200CF0EBFA01200CF01A
:10335000AFFA0120EA490877C87AFDF735FA8146C5
:10336000484607F00FFBE748408AA0420ADAE548E2
:10337000C089A04201DAE348C489E248408A201AA1
:1033800087B200E00027142F37DDDD484668DD48AE
:10339000C089DC49498A411A3239DA48408A201A00
:1033A00014387043B0FBF1F00A21B0FBF1F0D449BE
:1033B00088620A20B6FBF0F0896A884204D20A20AB
:1033C000B6FBF0F0CE498862CD4890F8360068B17F
:1033D000CD480078401CCC49087008460078322857
:1033E00021DD0020C64981F836001CE00020C649D6
:1033F00008700120C249887715E00020C049886222
:10340000887710E0BE4890F8320060B90020BC49CF
:1034100008770846407B10B9002007F0B3FA002077
:10342000B74988628877B648C07C002871D1B7490F
:103430000870B4488089A84204DAB2488089281A02
:1034400087B200E00027142F69DD0120AC4981F824
:1034500032000846407B012809D100204873084605
:10346000C17A01200CF05DFA01200CF021FAA44988
:10347000C87AFDF7A9F98146484607F083FAA148C2
:10348000808AA8420ADA9F48008AA84201DA9D4849
:10349000058A9C48808A281A87B200E00027142FEA
:1034A00038DD974846689748008A9649898A411AC4
:1034B00032399448808A281A14387043B0FBF1F0EE
:1034C0000A21B0FBF1F08E4988620A20B6FBF0F0C9
:1034D000896A884204D20A20B6FBF0F088498862E3
:1034E000874890F8360068B187480078401C8649C4
:1034F000087008460078322849DD0020804981F8AC
:10350000360044E000208049087001207C4988771B
:103510003DE01CE000207A498877886237E07848EF
:1035200090F83200012832D10020754981F832002C
:10353000084690F8330030BB00208877886208770F
:103540000846407BF8B9002007F01CFA1FE06D48E0
:103550008089A84204DA6B488089281A87B200E083
:103560000027142F10DD69480078401C6749087057
:103570000846007832280ADD1820614981F82000C9
:1035800000206249087002E00020604908705C4831
:1035900090F8220001286FD15A484089404542DA0C
:1035A00058484089A8EB0000142814DD54480078DE
:1035B00030B901205249C875887500208877E0E14C
:1035C0004F48407C0228FAD14D49C87501208875C2
:1035D00000208877D5E14A48C07D012803D04848BB
:1035E000C07D022804D100204549C87588758877B8
:1035F0004348407C01280CD14148C07D082803D0B5
:103600003F48C07D092804D100203D49C875887510
:1036100088773B48C07D0D28D1D100203849C87536
:1036200088758877ADE13648C07D012803D03448DD
:10363000C07D022804D100203149C875887588777B
:103640002F48407C01280CD12D48C07D082803D08C
:103650002B48C07D092804D100202949C8758875E8
:1036600088772748C07D0D28A9D100202449C87536
:103670008875887785E1FFE7214890F822000228C5
:103680009DD120484089A04273DA1E484089201A03
:10369000142814DD1A48007830B901201849C8757B
:1036A000887500208877B2E01548407C022805D153
:1036B0001349C8750120887500208877A7E0104855
:1036C000C07D012803D00E48C07D022803D1002010
:1036D0000B49C87588750A48007801281DD008482C
:1036E000C07D092823D10648407C01281FD1044809
:1036F00090F8320068B90020014909E0400200203A
:10370000F8120020C81400203F02002041020020CF
:10371000C87500209C49887509E09B4890F83300E3
:10372000012804D100209849C87588758877964883
:10373000C07D0D286BD194480078022809D19248A9
:1037400090F83200C0BB00208F49C8758875887713
:103750005DE08D480078012859D18B4890F83300FE
:10376000012854D100208849C875887588774EE0B3
:10377000FFE78548C07D012803D08348C07D02282B
:1037800004D100208049C875887588777E48007804
:10379000012812D07C48C07D092818D17A48407C85
:1037A000012814D1784890F8320080B90020764979
:1037B000C875887588770AE029E0734890F8330067
:1037C000012804D100207049C875887588776E4833
:1037D000C07D0D281BD16C480078022809D16A48A9
:1037E00090F8320098B900206749C87588758877C5
:1037F0000DE065480078012809D1634890F833004E
:10380000012804D100206049C875887588775F4811
:103810008089A84267DA5D488089281A142816DD55
:103820005948007838B903205749C8750120887570
:1038300000208877A5E05448407C022806D1042067
:103840005149C875012088750020887799E04E4855
:10385000C07D032803D04C48C07D042803D100203C
:103860004949C875887548480078022810D04648EC
:10387000C07D082816D14448407C012812D1424816
:1038800090F8330070B900203F49C875887509E089
:103890003D4890F83200012804D100203A49C8750B
:1038A000887588773848C07D0D286AD136480078F9
:1038B000012809D1344890F83300B8BB00203249C0
:1038C000C875887588775CE02F480078022858D141
:1038D0002D4890F83200012853D100202A49C8759C
:1038E000887588774DE02848C07D032803D0264896
:1038F000C07D042804D100202349C87588758877C5
:1039000021480078022812D01F48C07D082818D10D
:103910001D48407C012814D11B4890F8330080B921
:1039200000201949C875887588770AE029E016488B
:1039300090F83200012804D100201349C875887519
:1039400088771148C07D0D281BD10F4800780128C9
:1039500009D10D4890F8330098B900200A49C8757C
:10396000887588770DE008480078022809D1064854
:1039700090F83200012804D100200349C8758875E9
:10398000887700BFFFF7BEBAF8120020C8140020E5
:1039900010B50549054804F070FC0A2200210348CF
:1039A00004F073FC10BD0000ED2E00082011002073
:1039B00010B504461148007C03281ED1012010498F
:1039C0000870092C0BD10D48807B401D0B49887372
:1039D0000846807B28280BDD2820887308E00748EC
:1039E000807B052804DD0548807B401F03498873E0
:1039F0000248817B00200BF075FF10BDF8120020FB
:103A00001C04002070B50446A56D00F043FD064679
:103A100094F83500022808D08020606500BF00209F
:103A200084F8340000BF012070BD2068006820F0D9
:103A30001600216808602068406920F08000216835
:103A40004861206C08B9A06C28B12068006820F09B
:103A50000800216808602068006820F001002168E3
:103A6000086010E000F016FD801B05280BD920200F
:103A70006065032084F8350000BF002084F834001E
:103A800000BF0320D0E72068006800F00100002894
:103A9000E8D194F85C103F208840A860012084F8A9
:103AA000350000BF002084F8340000BF00BFBBE732
:103AB000014691F83500022803D080204865012096
:103AC0007047052081F835000868006820F0010083
:103AD0000A6810600020F3E770B504460CB90120B5
:103AE00070BD94F83500022800D1F9E7206800681D
:103AF00020F001002168086000202168086021682A
:103B00004860216888602168C860216808612120B8
:103B1000216848612046FEF7E3FA05460020E0638D
:103B200020646064A064E064206594F85C103F2029
:103B30008840A8600020606584F8350000BF84F8E4
:103B4000340000BF00BFCBE70146486D704700005E
:103B5000F8B50446002000908C4800684FF41651D8
:103B6000B0FBF1F7A56D2E6894F85C100820884032
:103B7000304098B12068006800F0040070B12068FF
:103B8000006820F004002168086094F85C100820A8
:103B90008840A860606D40F00100606594F85C109A
:103BA00001208840304068B12068406900F0800002
:103BB00040B194F85C1001208840A860606D40F02E
:103BC0000200606594F85C1004208840304068B1C1
:103BD0002068006800F0020040B194F85C100420F6
:103BE0008840A860606D40F00400606594F85C1047
:103BF00010208840304078B32068006800F008004A
:103C000050B394F85C1010208840A86020680068C9
:103C100000F4802080B12068006800F4002028B9FA
:103C2000206CC8B12046216C884715E0A06C98B183
:103C30002046A16C88470FE02068006800F480707F
:103C400028B92068006820F0080021680860206C0E
:103C500010B12046216C884794F85C1020208840E1
:103C60003040002865D02068006800F0100000286F
:103C70005FD094F85C1020208840A86094F835004C
:103C8000052828D12068006820F016002168086007
:103C90002068406920F0800021684861206C08B9E4
:103CA000A06C28B12068006820F008002168086036
:103CB00094F85C103F208840A860012084F835000B
:103CC00000BF002084F8340000BF206D10B12046F2
:103CD000216D8847F8BD2068006800F4802080B11D
:103CE0002068006800F4002028B9606C10B12046FC
:103CF000616C88471DE0E06BD8B12046E16B8847D6
:103D000017E02068006800F4807068B920680068D7
:103D100020F0100021680860012084F8350000BF01
:103D2000002084F8340000BFE06B10B12046E16B46
:103D30008847606D38B3606D00F00100F0B1052078
:103D400084F835002068006820F0010021680860D0
:103D500000BF0098401C0090B84200D905E02068E0
:103D6000006800F001000028F3D100BF012084F8B2
:103D7000350000BF002084F8340000BFE06C10B1B3
:103D80002046E16C884700BFA4E700001C0000202B
:103D90002DE9F0410446002500F07CFB074614B9EC
:103DA0000120BDE8F081606A00B100BF022084F804
:103DB000350000BF002084F8340000BF2068006890
:103DC00020F00100216808600AE000F063FBC01BDE
:103DD000052805D920206065032084F83500E0E738
:103DE0002068006800F001000028EED12068056816
:103DF00021480540D4E901010843E16808432169ED
:103E0000084361690843A1690843E1690843216ADD
:103E100008430543606A042803D1D4E90B01084331
:103E20000543206805602068456925F00705606A3C
:103E30000543606A04280DD1A06A0543E06A48B1D1
:103E40002046FEF767F928B140206065012084F81C
:103E50003500A6E7206845612046FEF741F9064691
:103E600094F85C103F208840B0600020606501201D
:103E700084F83500002094E73F8010E02DE9F047FA
:103E800004460D4616461F464FF00008D4F85890D9
:103E900000BF94F83400012802D10220BDE8F08769
:103EA000012084F8340000BF94F83500012825D1A2
:103EB000022084F83500002060653B4632462946E2
:103EC0002046FEF77CF994F85C103F208840C9F842
:103ED00008002068006840F0160021680860206C27
:103EE00028B12068006840F0080021680860206858
:103EF000006840F001002168086006E000BF002073
:103F000084F8340000BF4FF002084046C6E70000C6
:103F100070B5044600F0BEFA06462546681C10B18E
:103F200004480078054400BF00F0B4FA801BA842A2
:103F3000FAD370BD180000202DE9F04104460E466A
:103F40000127002500BF2548007E012802D102205C
:103F5000BDE8F08101202149087600BF4CF25030C5
:103F6000FEF700FC0746002F31D1401E306020686C
:103F700001280FD1207C6168FEF730FB4CF25030F5
:103F8000FEF7F0FB07461648006820F004001449CD
:103F900008601AE0A56812E0217C2846FEF7B4FA12
:103FA0004CF25030FEF7DEFB07460D48006820F06B
:103FB0007A000B4908600FB1356005E06D1CD4E94B
:103FC00002100844A842E7D800BFFEF7CBFA00BFB2
:103FD00000200249087600BF3846B9E7601000208B
:103FE000103C02400348006840F00040014908606E
:103FF00000207047103C02402DE9F04106460F4674
:1040000014461D464FF0010800BF1F48007E0128DE
:1040100002D10220BDE8F08101201B49087600BFD3
:104020004CF25030FEF79EFB8046B8F1000F23D1D2
:1040300026B9E1B23846FEF7E9FA12E0012E04D1C2
:10404000A1B23846FEF70CFB0BE0022E04D121464C
:104050003846FEF719FB04E022462B463846FEF7A9
:10406000E7FA4CF25030FEF77DFB804607480068C7
:1040700020F001000549086000BF002002490876D1
:1040800000BF4046C6E7000060100020103C024020
:1040900000200949096801F0004159B10749064A61
:1040A0000C3A1160064911600349096801F00041AA
:1040B00001B1012070470000103C02402301674518
:1040C000AB89EFCDF0B50C4600250022002300217E
:1040D0008FE0012606FA01F504EA0502AA427DD125
:1040E000464E8F0856F827308E07370F0F26BE40F2
:1040F0003340434EB04201D100261EE0414EB04253
:1041000001D1012619E0404EB04201D1022614E04F
:104110003E4EB04201D103260FE03D4EB04201D1E8
:1041200004260AE03B4EB04201D1052605E03A4E96
:10413000B04201D1062600E007268F073F0FBE40A0
:104140009E4224D1354E36689643344F3E603E1D24
:10415000366896433F1D3E60304E0C3636689643B7
:104160002E4F0C373E603E1F366896433F1F3E6021
:104170008E07370F0F2606FA07F3204E8F0856F8E2
:1041800027609E431D4F4FEA910C47F82C6006684C
:104190004FEA410C032707FA0CF7BE430660CF082D
:1041A00000F1200656F827604F074FEAD76C0F271B
:1041B00007FA0CF7BE434FEAD10C00F1200747F88D
:1041C0002C60C6684FEA410C032707FA0CF7BE4380
:1041D000C660466801278F40BE4300E008E04660A5
:1041E00086684FEA410C032707FA0CF7BE43866046
:1041F000491C1029FFF46DAFF0BD000008380140E4
:10420000000002400004024000080240000C02408E
:10421000001002400014024000180240003C01401F
:1042200010B50446204607F083F9B4F5806F0BD033
:10423000B4F5006F11D10A48407808B9012000E0B8
:1042400000200749487009E00548007808B90120B6
:1042500000E000200249087000E000BF00BF10BD70
:104260004602002010B5044604480068204020B1F2
:10427000024804602046FFF7D3FF10BD143C014004
:10428000F8B502460B460025002400200021D1E0AD
:10429000012606FA01F51E6806EA0504AC4274D14F
:1042A0001E7906F00306012E04D01E7906F00306DF
:1042B000022E13D190684F000326BE40B0434F003A
:1042C000DE68BE4030439060506801268E40B043A7
:1042D0001E79C6F300168E40304350601E7906F0FA
:1042E0000306032E09D0D0684F000326BE40B0431A
:1042F0004F009E68BE403043D0601E7906F0030632
:10430000022E13D1CF0802F1200656F827004E07DF
:10431000F70E0F26BE40B0434F07FF0E1E69BE408A
:104320003043CF0802F1200646F8270010684F00FE
:104330000326BE40B0431E7906F003064F00BE4080
:10434000304310605E6806F44036002E71D000BF26
:1043500000260096394E366846F48046374F3E6058
:104360003E46366806F48046009600BF00BF344ED5
:104370008F0856F827008E07370F0F26BE40B04330
:10438000304EB24202D100261FE052E02E4EB24221
:1043900001D1012619E02D4EB24201D1022614E0CE
:1043A0002B4EB24201D103260FE02A4EB24201D178
:1043B00004260AE0284EB24201D1052605E0274E28
:1043C000B24201D1062600E007268F073F0FBE400C
:1043D00030431B4E8F0846F82700214E3068A0431B
:1043E0005E6806F4801606B120431D4E3060361D0F
:1043F0003068A0435E6806F4001606B12043184EEC
:10440000361D3060164E361F3068A0435E6806F4D5
:10441000003606B12043124E361F3060361F30681A
:10442000A0435E6806F4803606B120430C4E083E79
:104430003060491C1029FFF42BAFF8BD443802400E
:104440000838014000000240000402400008024019
:10445000000C02400010024000140240001802400C
:10446000083C0140024613690B400BB1012000E0FB
:104470000020704710B5426921EA020302EA0104F4
:1044800043EA0443836110BD0AB1816101E00B047A
:1044900083617047014800687047000010000020E9
:1044A00010B504460CB9012010BD242084F83D004D
:1044B0002068006820F0010021680860204600F0B4
:1044C0005DFB0020206484F83D00206384F83E00FA
:1044D00000BF84F83C0000BF00BFE5E70146086C60
:1044E0007047014691F83D007047000070B50446E2
:1044F0000CB9012070BD94F83D0028B9002084F863
:104500003C00204600F070FB242084F83D00206829
:10451000006820F00100216808602068006840F40D
:104520000040216808602068006820F4004021688D
:10453000086000F00BFE05465C496068884206D8BA
:104540005B48854201D2012007E0002005E0594880
:10455000854201D2012000E00020012800D1C9E7F6
:104560005548B5FBF0F62068406820F03F00304326
:10457000216848604D496068884201D8701C07E096
:104580004FF4967070434FF47A71B0FBF1F0401C19
:104590002168096A21F03F01084321680862434904
:1045A0006068884214D8681E61684900B0FBF1F069
:1045B000401CC0F30B00042801D204203DE0681E1B
:1045C00061684900B0FBF1F0401CC0F30B0034E01F
:1045D000A06838B9681E616801EB4101B0FBF1F0D9
:1045E000401C0AE0681E616801EBC10202EB011188
:1045F000B0FBF1F0401C40F48040C0F30B0008B960
:1046000001201AE0A06848B9681E616801EB410109
:10461000B0FBF1F0401CC0F30B000CE0681E6168B9
:1046200001EBC10202EB0111B0FBF1F0401CC0F341
:104630000B0040F4804040F400402168C9694CF60A
:10464000FF72914308432168C861D4E90701084318
:104650002168096821F0C001084321680860D4E995
:10466000031008432168896848F2FF3291430843E8
:1046700021688860D4E9050108432168C96821F0F0
:10468000FF0108432168C8602068006840F001000D
:104690002168086000202064202084F83D0000206C
:1046A000206384F83E0000BF24E70000A0860100DC
:1046B00080841E0000093D0040420F002DE9F84FA4
:1046C00004460F4690461E46FFF7E4FE05464FF0AF
:1046D000000994F83D0020287ED119230122634966
:1046E0002046009503F0E2F810B10220BDE8F88FF3
:1046F00000BF94F83C00012801D10220F6E7012018
:1047000084F83C0000BF2068006800F0010028B970
:104710002068006840F00100216808602068006897
:1047200020F4006021680860242084F83D00002007
:1047300020644F48E06200BF2068006840F4807049
:1047400021680860334600224FF001112046009591
:1047500003F0ACF858B12068006800F48070B0F540
:10476000807F02D14FF4007020640320BEE707F081
:10477000FE0021680861FFF78DFE0546206840694C
:10478000C0F3400A20684069C0F3802B10E0FFF7B7
:1047900081FE401BB04200D816B9A02084F83D002D
:1047A00020684069C0F3400A20684069C0F3802B4C
:1047B00094F83D00A02805D0BAF1000F02D1BBF15A
:1047C000000FE4D0202084F83D0020684069C0F349
:1047D000400028B3206800E045E0006840F4007025
:1047E0002168086000BF00200090206840690090A8
:1047F00020688069009000BF00BF192301221B4977
:104800002046009503F052F808B101206EE7202001
:1048100084F83D0000BF002084F83C0000BF65E73D
:104820002068006840F40070216808606FF48060C0
:1048300021684861192301220C492046009503F0A4
:1048400035F808B1012051E709F10109C145FFF42C
:1048500073AF202084F83D0000BF002084F83C00A6
:1048600000BF012042E7022040E7000002001000E4
:104870000000FFFF2DE9FC5F04460F469046994675
:10488000DDE90CAB0E9EFFF705FE054694F83D00F2
:10489000202870D119230122B5492046009503F044
:1048A00005F810B10220BDE8FC9F00BF94F83C0061
:1048B000012801D10220F6E7012084F83C0000BF66
:1048C0002068006800F0010028B92068006840F006
:1048D0000100216808602068006820F400602168F9
:1048E0000860222084F83D00402084F83E0000202B
:1048F0002064C4F824A0A4F82AB0608D20859D48C7
:10490000E0624B46424639462046CDE9006502F05A
:104910001DFF08B10120C6E7208D88B900BF002027
:10492000019020684069019020688069019000BF73
:1049300000BF2068006840F400702168086040E013
:10494000208D012818D12068006820F4806021683B
:10495000086000BF00200190206840690190206835
:104960008069019000BF00BF2068006840F40070BB
:104970002168086025E0F8E0208D022816D1206823
:10498000006820F48060216808602068006840F4B6
:1049900000602168086000BF002001902068406925
:1049A000019020688069019000BF0AE000BF0020EC
:1049B000019020684069019020688069019000BFE3
:1049C00000BFC3E0208D03287ED8208D012815D19B
:1049D0002A463146204603F045F808B1012062E737
:1049E00020680069616A0870606A401C6062208DFE
:1049F000401E2085608D401E6085A7E0208D022826
:104A00002AD1334600225C492046009502F04EFF31
:104A100008B1012047E72068006840F40070216871
:104A2000086020680069616A0870606A401C606202
:104A3000208D401E2085608D401E608520680069A5
:104A4000616A0870606A401C6062208D401E20858B
:104A5000608D401E608579E033460022464920463D
:104A6000009502F023FF08B101201CE720680068D0
:104A700020F480602168086020680069616A08701D
:104A8000606A401C6062208D401E2085608D401E43
:104A900060853346002238492046009502F006FF23
:104AA00008B10120FFE62068006840F4007021682A
:104AB000086020680069616A0870606A401C606272
:104AC000208D401E208500E010E0608D401E608536
:104AD00020680069616A0870606A401C6062208D0D
:104AE000401E2085608D401E60852FE02A4631469D
:104AF000204602F0B7FF08B10120D4E62068006923
:104B0000616A0870606A401C6062208D401E2085CA
:104B1000608D401E608520684069C0F38000A8B1A8
:104B2000208D032805D12068006820F4806021686A
:104B3000086020680069616A0870606A401C6062F1
:104B4000208D401E2085608D401E6085208D0028B0
:104B50007FF438AF202084F83D00002084F83E0028
:104B600000BF84F83C0000BF9DE602209BE60000E9
:104B7000020010000000FFFF0400010010B5044611
:104B80001349206888420ED11248006820F4800042
:104B90001049086009151048FFF794FA08210E48DB
:104BA000FFF790FA12E00D49206888420ED10948BB
:104BB000006820F400000749086089150848FFF7DD
:104BC00081FA4FF400710748FFF77CFA10BD00002E
:104BD000005800404038024000040240005C0040A1
:104BE000000002400008024010B586B004461421BF
:104BF00001A8FBF749FD45492068884238D100BF2C
:104C0000002000904248006840F48000404908605D
:104C10000846006800F48000009000BF00BF00BF9D
:104C2000002000903A481038006840F002003849EF
:104C3000103908600846006800F00200009000BFCC
:104C400000BF08150190122002900120039003205C
:104C500004900420059001A92E48FFF711FB0820BD
:104C600001900920059001A92A48FFF709FB4BE0B4
:104C700029492068884247D100BF0020009024487D
:104C8000006840F40000224908600846006800F40B
:104C90000000009000BF00BF00BF002000901C4833
:104CA0001038006840F001001949103908600846C2
:104CB000006800F00100009000BF00BF00BF0020AE
:104CC00000900846006840F004000860084600684C
:104CD00000F00400009000BF00BF88150190122072
:104CE000029001200390032004900420059001A964
:104CF0000A48FFF7C5FA4FF40070019004200590B0
:104D000001A90748FFF7BCFA06B010BD00580040E3
:104D10004038024000040240005C004000000240B5
:104D20000008024003480068034909780844014923
:104D300008607047100000201800002010B50D48D2
:104D4000006840F400700B4908600846006840F4B1
:104D5000806008600846006840F4807008600320A6
:104D600000F0F6F80F2000F007F800F05FF80020E0
:104D700010BD0000003C02402DE9F04188B004461F
:104D80000027B84600BF002001902348006840F08B
:104D90001000214908600846006800F010000190EA
:104DA00000BF00BF02A903A800F0A8F9069F1FB921
:104DB00000F0CCF9054602E000F0C8F945001748BC
:104DC000B5FBF0F0A0F1010815481649086040F263
:104DD000E7311448C160C0F804800021016181609E
:104DE000816100F0DFFC064696B90E4800F0B6FD82
:104DF00006466EB9362000F059F8102C07D2002272
:104E00002146362000F066F80748046000E00126DD
:104E1000304608B0BDE8F0814038024040420F0003
:104E200000100040181000201400002008B500BF3A
:104E3000002000901148006840F480400F4908604D
:104E40000846006800F48040009000BF00BF00BF2B
:104E500000200090081F006840F08050091F086083
:104E60000846006800F08050009000BF00BF00229C
:104E70000F21901E00F02EF808BD000044380240BB
:104E800010B50146084600280BDB00F01F03012285
:104E90009A40054B440943F82420BFF34F8FBFF3DA
:104EA0006F8F00BF10BD000080E100E001460846A2
:104EB00000280DDB00BF00BF00F01F0301229A4055
:104EC00043099B0003F1E023C3F8002100BF00BFAA
:104ED00000BF70472DE9F05F80460D46164600275B
:104EE0000AF02AFC074639462A46334601F00700F5
:104EF000C0F1070ABAF1040F02D94FF0040A01E029
:104F0000C0F1070AD14600F1040ABAF1070F02D234
:104F10004FF0000A01E0A0F1030AD4464FF0010A65
:104F20000AFA09FAAAF1010A0AEA020A0AFA0CFACA
:104F30004FF0010B0BFA0CFBABF1010B0BEA030B6F
:104F40004AEA0B04214640460AF0FEFBBDE8F09F0A
:104F500000BF00F00702064B19684FF6FF03194027
:104F6000044B0B4343EA0221014B196000BF704719
:104F70000CED00E00000FA0570B504460D460CB9D2
:104F8000012070BD5848006800F00700A84209D20F
:104F900055490D700846006800F00700A84201D08E
:104FA0000120EEE7207800F0020002281DD12078D1
:104FB00000F00400042805D14C48006840F4E0509B
:104FC0004A490860207800F00800082805D14748C1
:104FD000006840F46040454908604448006820F09B
:104FE000F000A168084341490860207800F0010002
:104FF000A8B36068012807D13C4808380068C0F3AE
:105000004040B8B90120BCE76068022802D060685F
:10501000032807D1354808380068C0F3406048B914
:105020000120AEE7314808380068C0F3400008B9F5
:105030000120A6E72D48006820F0030061680843BE
:105040002A490860FFF726FA064609E0FFF722FA28
:10505000801B41F28831884202D9032091E707E0A2
:105060002248006800F00C006168B0EB810FEDD1C0
:105070001D48006800F00700A84209D91A490D70C0
:105080000846006800F00700A84201D0012078E738
:10509000207800F00400042807D11448006820F4A8
:1050A000E050E168084311490860207800F00800EA
:1050B000082808D10D48006820F46040216940EAC2
:1050C000C1000A49086000F061F808490968C1F3A5
:1050D0000311074A515CC840064908600648006849
:1050E000FFF74AFE00204CE7003C0240083802402F
:1050F000A24801081C000020140000200F220260BA
:105100000D4A126802F0030242600B4A126802F074
:10511000F0028260084A126802F4E052C260064A55
:10512000126802F46042D2080261044A126802F076
:1051300007020A607047000008380240003C024045
:1051400001480068704700001C00002000B5FFF710
:10515000F7FF04490968C1F38221034A515CC84042
:1051600000BD000008380240B248010800B5FFF752
:10517000E7FF04490968C1F34231034A515CC84062
:1051800000BD000008380240B24801082DE9F04790
:10519000002400250026A1462548006800F00C00E8
:1051A00020B1042805D008283AD105E0DFF8849022
:1051B00039E0DFF8849036E01D48001F006800F0F9
:1051C0003F041B48001F006800F4800078B11A48B3
:1051D0001749091F0968C1F38811A0FB0170014636
:1051E000224600233846FBF7E7F805460EE0114853
:1051F0000F49091F0968C1F38811A0FB017001461E
:10520000224600233846FBF7D7F805460848001F1A
:105210000068C0F30140401C4600B5FBF6F902E00F
:10522000DFF8109000BF00BF4846BDE8F0870000DF
:10523000083802400024F40000127A00F8B5044651
:105240000CB90120F8BD207800F00100002874D0CE
:10525000F748006800F00C0004280DD0F4480068FE
:1052600000F00C00082813D1F148001F006800F47A
:105270008000B0F5800F0BD1ED4808380068C0F30E
:105280004040002859D06068002856D10120D9E755
:1052900000BF6068B0F5803F08D1E5480838006875
:1052A00040F48030E249083908601EE06068B0F5DB
:1052B000A02F0DD1DE480838006840F48020DC497A
:1052C000083908600846006840F4803008600CE047
:1052D000D7480838006820F48030D549083908607C
:1052E0000846006820F48020086000BF606890B124
:1052F000FFF7D0F8054606E0FFF7CCF8401B64281E
:1053000001D903209EE7CA4808380068C0F340402E
:105310000028F1D011E0FFF7BDF8054606E0FFF7E1
:10532000B9F8401B642801D903208BE7C04808382E
:105330000068C0F340400028F1D1207800F002005E
:1053400002285FD1BA48006800F00C0058B1B84894
:10535000006800F00C0008281CD1B548001F006848
:1053600000F48000B0B9B24808380068C0F34000CB
:1053700020B1E068012801D0012063E7AC4808387B
:10538000006820F0F800216940EAC100A849083906
:10539000086037E0E06800B30120A6490860FFF725
:1053A00079F8054606E0FFF775F8401B022801D999
:1053B000032047E79E4808380068C0F340000028F3
:1053C000F1D09B480838006820F0F800216940EAD5
:1053D000C10097490839086014E000209549086029
:1053E000FFF758F8054606E0FFF754F8401B02287F
:1053F00001D9032026E78E4808380068C0F3400032
:105400000028F1D1207800F0080008282CD160692C
:10541000A8B1012088490860FFF73CF8054606E07E
:10542000FFF738F8401B022801D903200AE780481B
:105430006C300068C0F340000028F1D014E0002078
:105440007D490860FFF726F8054606E0FFF722F8D9
:10545000401B022801D90320F4E675486C3000682F
:10546000C0F340000028F1D1207800F004000428A7
:1054700070D100276E483830006800F0805090B935
:1054800000BF002000906A483830006840F080502B
:105490006749383108600846006800F08050009085
:1054A00000BF00BF01276548006800F48070B0B9F4
:1054B0006248006840F4807060490860FEF7EAFFC7
:1054C000054606E0FEF7E6FF401B022801D903204F
:1054D000B8E65A48006800F480700028F2D000BF97
:1054E000A068012808D152486830006840F00100E7
:1054F0004F49683108601DE0A06805280DD14C486F
:105500006830006840F00400494968310860084686
:10551000006840F0010008600CE045486830006811
:1055200020F001004249683108600846006820F018
:105530000400086000BFA068A8B1FEF7ABFF0546F5
:1055400009E0FEF7A7FF401B41F28831884202D9EB
:10555000032077E626E0364868300068C0F3400054
:105560000028EED013E0FEF795FF054608E0FEF7B1
:1055700091FF401B41F28831884201D9032061E646
:105580002B4868300068C0F340000028EFD1012F9D
:1055900007D127483830006820F08050244938313E
:1055A000086000BFA069002850D02148006800F0C2
:1055B0000C00082860D0A069022848D100201D49AD
:1055C0000866FEF767FF054606E0FEF763FF401B2F
:1055D000022801D9032035E6154808380068C0F3D1
:1055E00040600028F1D1D4E907010843616A40EA2C
:1055F00081110122A06AC2EB500041EA00412C2037
:10560000005D41EA00613020005D41EA0070084918
:10561000091F0860012007490866FEF73BFF0546A1
:105620000EE0FEF737FF401B022809D9032009E6E8
:105630000838024000004742800E47420070004098
:1056400028480068C0F340600028EAD048E0002005
:1056500025490866FEF71EFF054606E0FEF71AFF1D
:10566000401B022801D90320ECE51E480068C0F366
:1056700040600028F2D133E0A069012800D1E1E5C3
:105680001848001D0668A069012827D006F480018B
:10569000E069814222D106F03F01206A81421DD19A
:1056A00047F6C0703040616AB0EB811F16D106F436
:1056B00040310122A06AC2EB5000B1EB004F0DD186
:1056C00006F070612C20005DB1EB006F06D106F092
:1056D000E0413020005DB1EB007F01D00120B1E559
:1056E0000020AFE500380240000047427047704795
:1056F00030B502460B4600BF92F83C00012801D1AC
:10570000022030BD012082F83C0000BF022082F858
:105710003D00106844681068816824F070041868BF
:10572000044310684460184D1068A8421BD01068EC
:10573000B0F1804F17D0154D1068A84213D0144D0A
:105740001068A8420FD0134D1068A8420BD0124D1C
:105750001068A84207D0114D1068A84203D0104D20
:105760001068A84205D121F08001586801431068F3
:105770008160012082F83D0000BF002082F83C00DB
:1057800000BF00BFBDE70000000001400004004072
:1057900000080040000C00400004014000400140AF
:1057A0000018004010B504460CB9012010BD94F853
:1057B0003D0028B9002084F83C00204600F026F87F
:1057C000022084F83D00211D206808F0CFFC012054
:1057D00084F8460000BF84F83E0001213F200155B7
:1057E000402001554120015500BF00BF012084F831
:1057F000420043200155442001554520015500BF7A
:10580000012084F83D000020D0E7000038B50446B0
:105810002749206888420FD100BF0020009025480A
:10582000006840F02000234908600846006800F046
:105830002000009000BF3AE01F49206888421AD13A
:1058400000BF002000901B48001D006840F400309D
:105850001849091D08600846006800F400300090EF
:1058600000BF00BF002205211920FFF733FB1920DC
:10587000FFF71CFB1BE011492068884217D100BFCD
:10588000002000900B48006840F4807009490860CF
:105890000846006800F48070009000BF00BF00223E
:1058A00005212D20FFF716FB2D20FFF7FFFA38BD4D
:1058B00000140040403802400044014000200040F5
:1058C000014691F83D00012801D0012070470220D7
:1058D00081F83D001A4B086898421BD00868B0F167
:1058E000804F17D0174B0868984213D0164B0868A2
:1058F00098420FD0154B086898420BD0144B08689B
:10590000984207D0134B0868984203D0124B08689E
:1059100098420CD10868806800F00702062A0CD073
:105920000868006840F001000B68186005E008682E
:10593000006840F001000B6818600020C6E7000016
:10594000000001400004004000080040000C00403E
:10595000000401400040014000180040014691F859
:105960003D00012801D001207047022081F83D0050
:105970000868C06840F001000B68D8601A4B0868DE
:1059800098421BD00868B0F1804F17D0174B0868B9
:10599000984213D0164B086898420FD0154B0868F0
:1059A00098420BD0144B0868984207D0134B0868F4
:1059B000984203D0124B086898420CD1086880685E
:1059C00000F00702062A0CD00868006840F00100C9
:1059D0000B68186005E00868006840F001000B687B
:1059E00018600020C0E700000000014000040040F3
:1059F00000080040000C004000040140004001404D
:105A000000180040704770B504462068C5682068DB
:105A1000066906F00200022819D105F002000228EA
:105A200015D1401F21680861012020772068806916
:105A300000F0030018B12046FFF7E4FF05E0204620
:105A400000F097F8204600F095F80020207706F047
:105A50000400042819D105F00400042815D1C0431E
:105A600021680861022020772068806900F4407076
:105A700018B12046FFF7C6FF05E0204600F079F890
:105A8000204600F077F80020207706F0080008286C
:105A900019D105F00800082815D1C0432168086114
:105AA000042020772068C06900F0030018B1204668
:105AB000FFF7A8FF05E0204600F05BF8204600F065
:105AC00059F80020207706F01000102819D105F0B1
:105AD0001000102815D1C0432168086108202077E4
