S31508000000A00D022079030008A9B000088997000806
S3150800001055AE00080D1B00083D0E01080000000043
S31508000020000000000000000000000000B9020008FF
S31508000030E72400080000000015030008F1EC00089A
S31508000040930300089303000893030008930300082A
S315080000509303000893030008930300085926000831
S315080000609303000893030008632600086D2300081D
S315080000707D2300088D2300089D23000893030008AC
S31508000080AD230008930300089303000893030008B0
S315080000909303000893030008930300086D260008DD
S315080000A093030008DDED0008D5ED0008930300086A
S315080000B093030008930300089303000893030008BA
S315080000C093030008930300089303000893030008AA
S315080000D093030008CD090108DD090108ED090108A7
S315080000E04D260008930300089303000893030008AD
S315080000F093030008FDED0008930300089303000826
S315080001009303000893030008930300089303000869
S31508000110FDF000080DF10008EDED00089303000856
S3150800012093030008BD230008CD23000893030008A5
S315080001309303000893030008930300089303000839
S315080001409303000893030008930300089303000829
S31508000150930300089303000893030008FD090108A8
S315080001609303000893030008930300089303000809
S315080001709303000893030008000000000000000035
S3150800018093030008930300081DF100089303000871
S315080001909303000893030008000000009303000877
S315080001A09303000893030008000000000000000005
S315080001B093030008000000000000000093030008F5
S315080001C093030008930300089303000893030008A9
S315080001D0930300089303000800F002F800F05CF8A7
S315080001E00AA090E8000C82448344AAF10107DA4584
S315080001F001D100F051F8AFF2090EBAE80F0013F07A
S31508000200010F18BFFB1A43F0010318475864010091
S31508000210786401000A444FF0000C10F8013B13F013
S31508000220070408BF10F8014B1D1108BF10F8015B41
S31508000230641E05D010F8016B641E01F8016BF9D134
S3150800024013F0080F1EBF10F8014BAD1C0C1B09D18B
S315080002506D1E58BF01F801CBFAD505E014F8016BFD
S3150800026001F8016B6D1EF9D59142D6D3704700008F
S315080002700023002400250026103A28BF78C1FBD8A1
S31508000280520728BF30C148BF0B6070471FB516F02C
S315080002903BF81FBD10B510BD00F020FA1146FFF758
S315080002A0F5FF10F0D6FF00F03EFA03B4FFF7F2FFB1
S315080002B003BC00F045FA00002C4B19680868B0E842
S315080002C0F04F80F30988BFF36F8F4FF0000080F37B
S315080002D0118870470000000008480068006880F32D
S315080002E008884FF0000080F3148862B661B6BFF341
S315080002F04F8FBFF36F8F00DF00BF00BF08ED00E030
S31508000300DFF80C00016841F470010160704700BF16
S3150800031088ED00E0EFF30980BFF36F8F134B1A687F
S315080003201EF0100F08BF20ED108A20E9F04F10606C
S3150800033009B44FF0500080F31188BFF34F8FBFF315
S315080003406F8F12F001FE4FF0000080F3118809BC90
S3150800035019680868B0E8F04F1EF0100F08BFB0EC37
S31508000360108A80F30988BFF36F8F70473800002022
S31508000370EFF30580704700000948804709480047A1
S31508000380FEE7FEE7FEE7FEE7FEE7FEE7FEE7FEE737
S31508000390FEE7FEE704480549054A064B7047000094
S315080003A0C1ED0008D9010008A0070220A00D02200F
S315080003B0A0090220A009022053EA020C00F0698075
S315080003C02DE9F04B4FF00006002B1FBFB3FA83F55B
S315080003D003FA05F424FA05F65E4012BF1643B2FA8C
S315080003E082F502FA05F4C5F120051EBF22FA05FCBE
S315080003F044EA0C04203556EA044C4FEA144418BF64
S31508000400641C4FF000084FF00009904271EB030C92
S3150800041039D3002919BFB1FA81F701FA07F6B0FAFC
S3150800042080F700FA07F6C7F120071EBF20FA07FC77
S3150800043046EA0C062037B6FBF4FCA7EB0507103F87
S3150800044007F01F0BCBF120060CFA0BFB2CFA06F66D
S3150800045044BFB3460026202FA4BF5E464FF0000BCC
S315080004605BEA060C08BF4FF0010B19EB0B09ABFB57
S31508000470027C48EB0608C01B06FB02CC0BFB03CC30
S3150800048071EB0C01C1E70B46024641464846BDE8FA
S31508000490F08B13B54FF000004FF00001AFF300806A
S315080004A0BDE81C40704740EA010310B59B070FD111
S315080004B0042A0DD310C808C9121F9C42F8D020BAC6
S315080004C019BA884201D9012010BD4FF0FF3010BD7E
S315080004D01AB1D30703D0521C07E0002010BD10F84C
S315080004E0013B11F8014B1B1B07D110F8013B11F812
S315080004F0014B1B1B01D1921EF1D1184610BD40EAD3
S315080005000103024630B59B0710D14FF0013400E0D5
S3150800051008C208C91D1B9D4315EAC41FF8D013F06D
S31508000520FF0102F8011B0DD01B0AF8E711F8013B81
S31508000530002B02F8013B05D011F8013B002B02F80D
S31508000540013BF3D130BD032A40F2308010F0030C92
S3150800055000F0158011F8013BBCF1020F624498BF08
S3150800056011F801CB00F8013B38BF11F8013BA2F1A5
S31508000570040298BF00F801CB38BF00F8013B11F020
S31508000580030300F02580083AC0F0088051F8043BC0
S31508000590083A51F804CBA0E80810F5E7121D5CBF2D
S315080005A051F8043B40F8043BAFF30080D20724BF60
S315080005B011F8013B11F801CB48BF11F8012B24BFF4
S315080005C000F8013B00F801CB48BF00F8012B704743
S315080005D010B5203AC0F00B80B1E81850203AA0E8D0
S315080005E01850B1E81850A0E81850BFF4F5AF5FEA04
S315080005F0027C24BFB1E81850A0E8185044BF18C9B7
S3150800060018C0BDE810405FEA827C24BF51F8043B5D
S3150800061040F8043B08BF7047D20728BF31F8023BB1
S3150800062048BF11F8012B28BF20F8023B48BF00F845
S31508000630012B704702F0FF0343EA032242EA024213
S3150800064000F002B84FF000020429C0F0128010F042
S31508000650030C00F01B80CCF1040CBCF1020F18BF90
S3150800066000F8012BA8BF20F8022BA1EB0C0100F023
S315080006700DB85FEAC17C24BF00F8012B00F8012BF6
S3150800068048BF00F8012B70474FF0000200B513462B
S3150800069094469646203922BFA0E80C50A0E80C5094
S315080006A0B1F12001BFF4F7AF090728BFA0E80C5045
S315080006B048BF0CC05DF804EB890028BF40F8042B3E
S315080006C008BF704748BF20F8022B11F0804F18BFAB
S315080006D000F8012B7047704770477047754600F061
S315080006E02BF8AE4605006946534620F007008546B6
S315080006F018B020B5FFF74EFEBDE820404FF00006C3
S315080007004FF000074FF000084FF0000B21F00701EB
S31508000710AC46ACE8C009ACE8C009ACE8C009ACE82E
S31508000720C0098D46704710B50446AFF300802046D1
S31508000730BDE81040FFF7B9BD004870473C070220E6
S3150800074001491820ABBEFEE72600020070470000EC
S3150800075010B518210148FFF797FF10BDEC77012067
S31508000760F0B504460D461046002114E0675C80EAA1
S31508000770072000260CE000F400471FB183EA400773
S31508000780B8B203E04FF6FF7707EA4000771CFEB2DF
S31508000790082EF0D3491CA942E8D3F0BD0146034808
S315080007A0814201D1012070470020FCE7F47901203D
S315080007B0014609B1012070470020FCE72DE9FE43F8
S315080007C081460E46174698460A9D01203349087009
S315080007D0084646808780C580FF2008720020C860CA
S315080007E0B9F1000F03D0484604F049FF00E00020A5
S315080007F02A490861002048613146484600F0E1FA76
S315080008000446C4B12146484600F0F8F938B14846CE
S3150800081000F0CCF93146484600F0D3FA04463B4688
S31508000820324601214846CDE9005400F001FA14B1D8
S315080008300020BDE8FE83642010233A463146CDE900
S3150800084000850290484605F0E3F80446CCB12146F7
S31508000850484600F0D3F9A0B1484600F0A7F931465A
S31508000860484600F0AEFA58B9642010233A46314695
S31508000870CDE900850290484605F0CAF8044600E02E
S3150800088002243B46324601214846CDE9005400F091
S31508000890CFF90CB90120CCE70020CAE7EC77012094
S315080008A02DE9FE4381460E46174698460A9D0220C4
S315080008B033490870084646808780C580FF2008723D
S315080008C00020C860B9F1000F03D0484604F0D7FEEF
S315080008D000E000202A490861002048613146484660
S315080008E000F06FFA0446C4B12146484600F086F97E
S315080008F038B1484600F05AF93146484600F061FAE0
S3150800090004463B46324602214846CDE9005400F0EB
S315080009108FF914B10020BDE8FE83642010233A46FF
S315080009203146CDE900850290484605F0F5F90446BA
S31508000930CCB12146484600F061F9A0B1484600F01E
S3150800094035F93146484600F03CFA58B96420102378
S315080009503A463146CDE900850290484605F0DCF96D
S31508000960044600E002243B46324602214846CDE9C9
S31508000970005400F05DF90CB90120CCE70020CAE765
S31508000980EC770120024600230AB9002070470021AF
S3150800099004E0505C184483B2481CC1B21E29F8D33F
S315080009A01846F3E701464FF6FF7000EA4110704714
S315080009B02DE9F04188B006460D4600271DB90020EE
S315080009C008B0BDE8F081012419E026B16946204641
S315080009D000F0B4F803E06946204600F0A3F8804624
S315080009E0B8F1000F01D10020EAE7E819202269468C
S315080009F0FFF7A9FD07F1200087B2601C84B2082C16
S31508000A00E3D30120DCE72DE9F84380460D46164678
S31508000A101C464046FFF7CCFE20B11EB1B5F5805FF7
S31508000A2000DA14B90020BDE8F8832819B0F5805F0C
S31508000A3001D90020F7E715E0402C01D9402000E055
S31508000A402046074633462A46A02140460097FFF728
S31508000A50B5FE08B90020E6E7E81985B23E44E01B72
S31508000A6084B200BF002CE7D10120DCE770B504464C
S31508000A700D46164633462A4621460248FFF7C3FF67
S31508000A8070BD0000F479012070B504460D4616467F
S31508000A9033462A4621460248FFF7B5FF70BD0000D7
S31508000AA0487A01202DE9F04106460C4615460DB157
S31508000AB0802C02DB0020BDE8F0814FF6FF7000EACB
S31508000AC044172EB1202229463846FFF7DDFFF2E704
S31508000AD0202229463846FFF7C9FFECE7F8B506464F
S31508000AE00D4614463046FFF763FE10B10CB1802D53
S31508000AF001DB0020F8BD2846FFF754FF07462020F3
S31508000B0023463A46A02100903046FFF757FE08B91B
S31508000B100020EFE7204600F041F908B90020E9E790
S31508000B200120E7E770B504460D462A4621460248E5
S31508000B30FFF7D4FF70BD0000F479012070B50446B4
S31508000B400D462A4621460248FFF7C8FF70BD000039
S31508000B50487A012038B505460C461CB12846FFF7E9
S31508000B6027FE08B9012038BD10202346C201B0214E
S31508000B7000902846FFF722FE08B90220F3E7002076
S31508000B80F1E7000010B5044621460248FFF7E2FFE8
S31508000B9010BD0000F479012010B50446214602482C
S31508000BA0FFF7D8FF10BD0000487A012010B50446AB
S31508000BB02046FFF7FDFD00B910BD2046FFF7EEFD04
S31508000BC028B10C4804F03AFD09F088FF0DE00A4800
S31508000BD0844204D104F032FD09F09EFF05E0204668
S31508000BE004F02CFD204604F04FFD022004F024FBFF
S31508000BF000BFE1E7F4790120487A012070B506467E
S31508000C000C463046FFF7D4FD08B9002070BD3046C3
S31508000C1004F032FD0546022C01D0032C01D1012037
S31508000C20F4E705F0200008B10120EFE70020EDE722
S31508000C302DE9F04704460D4616461F46DDE90889A4
S31508000C400C48057046808780A0F8068080F80890D2
S31508000C501CB1204604F010FD00E000200549C860DC
S31508000C601CB1204604F00BFD00E000200149486154
S31508000C70BDE8F087EC7701202DE9F04781460C4660
S31508000C8014B90120BDE8F08720212046FFF7DAFCD9
S31508000C90384A00214846FFF705FF08B90220F1E760
S31508000CA0344800F07BF808B90320EBE731480168BF
S31508000CB0216140686061B9F1000F05D02046FFF751
S31508000CC06BFF38B10420DDE72046FFF75BFF08B16C
S31508000CD00420D7E728494846FFF76AFE08B90520E1
S31508000CE0D0E7102221462548FFF72DFCE0222249AD
S31508000CF022481030FFF727FC41F221034FF6FF7216
S31508000D00F0211E48FFF72CFD054648F205034FF66D
S31508000D10FF72F0211948FFF723FD064643F665538F
S31508000D204FF6FF72F0211548FFF71AFD07464AF2FB
S31508000D3097034FF6FF72F0211048FFF711FD804622
S31508000D402812207665763112A176E6763912217751
S31508000D5067774FEA2821A17784F81F80082204F1D3
S31508000D60180104F11000FFF79EFB08B1062089E779
S31508000D70002087E7047801202478012004790120DF
S31508000D8010B5044621460020FFF776FF10BD10B5C2
S31508000D90044621460120FFF76FFF10BD70B50446D3
S31508000DA00CB9002070BD2046FFF7ECFD0546E07F34
S31508000DB0A17F40EA0126B54201D10120F2E70020D1
S31508000DC0F0E770B504460D462046FFF7F1FC08B972
S31508000DD0012070BD642303222946204604F03CFD09
S31508000DE0F7E72DE9F0418AB007460C46154638461E
S31508000DF0FFF7DEFC10B10DB1802C03DB00200AB032
S31508000E00BDE8F0812022294602A8FFF79CFB02A82C
S31508000E10FFF7B8FD064630128DF82600F0B28DF8B9
S31508000E2027002046FFF7BEFD8046202002AB42463B
S31508000E30A02100903846FFF733FD08B90020DEE709
S31508000E40052004F0F9F90120D9E7000070B5044639
S31508000E500D462A4621460248FFF7C3FF70BD00002B
S31508000E60F479012070B504460D462A462146024803
S31508000E70FFF7B7FF70BD0000487A012010B5044699
S31508000E800DF0CCFD10BD000010B504461CB141F2B2
S31508000E908800005900B910BD1648006838B14FF0EF
S31508000EA0FF311448006812F02FFE012800D0F2E73F
S31508000EB00121204600F04CF941F288000159002032
S31508000EC088470021204600F043F9207A48B111F0FE
S31508000ED025FD00206072606011F04AFD204600F092
S31508000EE09DF900231A4619460248006812F0A6FA28
S31508000EF000BFD0E78C00002010B51248006800B18A
S31508000F0010BD1149012012F04FF90E490860084634
S31508000F10006810B900200D4908600A48006808B141
S31508000F20012000E0002050B900BF502080F311884E
S31508000F30BFF34F8FBFF36F8F00BF00BFFEE700BF41
S31508000F40DEE700008C0000204050002098000020BA
S31508000F50F0B50446002017A504B101B9F0BD5AB191
S31508000F6005E012F801CB0646401C04F806C01678C0
S31508000F7016B1461C8E42F4D35BB105E013F801CBDB
S31508000F800646401C04F806C01E7816B1461C8E425A
S31508000F90F4D305E015F801CB0646401C04F806C054
S31508000FA02E7816B1461C8E42F4D30026265400BF6E
S31508000FB0D4E7000020402025753A253032752E25C5
S31508000FC03033752E253033750000000010B50948FA
S31508000FD0007800F0010018B107480068406800B9B9
S31508000FE010BD0648006818B9044905A014F0EEFCBF
S31508000FF000BFF5E7480700204007002094000020BE
S31508001000536F66745461736B000000002DE9FF4F3F
S3150800101087B04FF0000AD346002005900490079841
S3150800102028B1089818B1099808B10A9818B9002083
S315080010300BB0BDE8F08F4248D0F804A041480068DC
S315080010404069504507D93F480068C068401C3D497B
S315080010500968C86000E000BF3A480068C0F814A0F4
S31508001060002098B937480068D0F80CB0002068B955
S315080010703448006880680490002038B93148006810
S3150800108040680590002008B9049808B90020CFE701
S31508001090059810B90020012101E000210598804635
S315080010A0894600224046ABFB003C02FB08C00BFB0E
S315080010B0090013EB0A0440EB02052349A4FB0103CC
S315080010C005FB013104FB0211CDE900010023049A56
S315080010D0FFF772F9CDE902011C4A0023DDE9020196
S315080010E0FFF76AF907990860184A0023DDE9020143
S315080010F0FFF762F916461F46134A0023304639465B
S31508001100FFF75AF9089908600F4A0023304639460E
S31508001110FFF752F916461F464FF47A7200233046F7
S315080011203946FFF749F9099908604FF47A7200239E
S3150800113030463946FFF740F90A980260012077E7FA
S31508001140001000E05007002040420F00008793037C
S3150800115070B504460D4604B970BD1DB141F2700064
S31508001160005902E041F2740000590146204600F099
S3150800117011F800BFF0E710B5044604B910BD2046C3
S3150800118000F088F841F278000159204600F002F88C
S3150800119000BFF3E770B588B004460D462E4600201A
S315080011A007900690059004900CB908B070BD1848D1
S315080011B0007800F0010018B116480068406800B9C8
S315080011C0F3E7204600F066F8FFF700FF06B9ECE7FC
S315080011D011480068D0B104AB05AA06A907A8FFF70D
S315080011E015FF68B1DDE905210498CDE900120290E2
S315080011F032460948079B01689C2013F0A7FE05E0C4
S31508001200324605480168982013F06AFD00BFCCE70E
S3150800121048070020400700209400002010B5044627
S3150800122004B910BD204600F035F841F28400015992
S315080012302046FFF7AFFF00BFF3E710B5044604B931
S3150800124010BD204600F026F841F27C0001592046E0
S31508001250FFF7A0FF00BFF3E770B596B005460E4648
S315080012601446002015901DB116B10CB1206808B1BE
S3150800127016B070BD33462A46502101A8FFF768FE0E
S3150800128015A901A814F0A2FB08B91598206000BF9B
S31508001290EEE7000010B50446CCB1E068B8B141F2FB
S315080012A070000059A0B141F27400005980B141F2B2
S315080012B07800005960B141F27C00005940B14FF402
S315080012C08450005920B141F28400005900B110BD84
S315080012D01B48007800F0010018B11A4800684068F9
S315080012E000B9F4E7FFF772FE41F27800221816A05B
S315080012F0E168FFF7B1FF41F27C00221814A0E1680B
S31508001300FFF7AAFF04F5845213A0E168FFF7A4FFCC
S3150800131041F28400221812A0E168FFF79DFF41F20E
S315080013207000221812A0E168FFF796FF41F27400D8
S31508001330221811A0E168FFF78FFF00BFC7E700007A
S3150800134048070020400700204352454154452000E5
S31508001350535441525420000053544F50200000006B
S315080013604F4E4553484F545F53544F50200000008A
S31508001370424547494E200000454E442000000000E3
S3150800138010B5002411F0CAFA0848007818B90120E7
S3150800139006490870012411F0EBFA2CB140F2DC5032
S315080013A011F0FEFB0DF062FE10BD0000900000205B
S315080013B008B505462C4612F0D3FD00900CB1012065
S315080013C000E0002050B900BF502080F31188BFF319
S315080013D04F8FBFF36F8F00BF00BFFEE7FFF7D0FF49
S315080013E000BF3CB1607A28B141F28800005908B1C3
S315080013F0206860B90CB10020606012F0B1FD009061
S31508001400012000F01AF8064611F0CAFBE9E7206841
S3150800141000F013F806463146684611F0F3FB607A89
S3150800142050B141F28800005930B1206820B100203F
S3150800143060602046FFF728FDD3E701464FF47A722D
S315080014404A434FF47A73B2FBF3F000B901207047B0
S3150800145010B50FF0F5FC10BD10B50446442C00D0AD
S3150800146010BD0E480078012800D1F9E70B4800792D
S31508001470012800D1F4E70948407A012802D10CF086
S315080014803DFD08E00548407A022803D101200CF00A
S3150800149041FD00E0E4E700BFE2E700007C660120CA
S315080014A01CB53F480068002834D03EA30022694690
S315080014B03B48006808F0B2FC01282AD19DF80000D4
S315080014C0012809D19DF801003A49087000203A49D7
S315080014D008703A4908801CE09DF80000022809D1E6
S315080014E09DF80200344908700020344908803149C3
S315080014F008700EE09DF8000003280AD19DF8020046
S315080015002D490870BDF804002C4908800020294997
S31508001510087000BF2748007880B12748007868B966
S31508001520402027498861642011F03AFB4FF4800077
S315080015302349886100201F4908702FE01E4800785B
S3150800154028B32048007830B901201E490870402089
S315080015501B49886106E000201A4908704FF480008C
S315080015601749886115480088C0B114480088401E8C
S31508001570124908800846008880B900200E4908707C
S31508001580104908704FF480000D49886106E04FF451
S3150800159080000B49886100200A4908701CBD0000BC
S315080015A0A0000020426565704D73675175657565C5
S315080015B000000000A5000020A6000020A8000020CA
S315080015C000000240A400002010B50446FFF768FF9B
S315080015D010BD000010B504A20621052008F0FCFB8A
S315080015E00549086010BD0000426565704D73675176
S315080015F07565756500000000A000002000B587B07D
S31508001600142102A8FFF740F800BF002001908D487A
S31508001610006840F001008B4908600846006800F041
S315080016200100019000BF00BF00BF002001900846DE
S31508001630006840F0020008600846006800F00200F2
S31508001640019000BF00BF00BF002001900846006857
S3150800165040F0040008600846006800F004000190A5
S3150800166000BF00BF00BF002001900846006840F098
S31508001670080008600846006800F00800019000BFEE
S3150800168000BF00BF002001900846006840F0100027
S3150800169008600846006800F01000019000BF00BF0F
S315080016A000BF002001900846006840F080000860EE
S315080016B00846006800F08000019000BF00BF0122C4
S315080016C00915614803F0AEFF4FF4806002900120CF
S315080016D0039004900020059002A95B4803F09EFE43
S315080016E000224021594803F09DFF40200290012026
S315080016F0039004900020059002A9544803F08EFE3A
S3150800170030200290112003900020049002200590BA
S3150800171002A94F4803F082FE4FF4005002901120B0
S315080017200390002004900220059002A9494803F07E
S3150800173075FE4FF48050029011200390002004900B
S315080017400220059002A9434803F068FE1C20029077
S31508001750002003900120049002A93E4803F05EFE93
S3150800176003200290002003900120049002A9394822
S3150800177003F054FE4FF4805002900020039001209D
S31508001780049002A9324803F049FE4FF440500290F3
S31508001790002003900120049002A92B4803F03EFE86
S315080017A04FF44070029001200390049000200590A9
S315080017B002A9274803F032FE4FF440700290012038
S315080017C0039004900020059002A9204803F026FE05
S315080017D00122D103204803F025FF4FF40040029070
S315080017E00120039000200490059002A91A4803F0EE
S315080017F015FE022002904FF4041003900120049075
S3150800180002A9144803F00AFE4FF4806002904FF4D0
S31508001810041003900120049002A90D4803F0FEFD70
S3150800182000220521072004F0D5FC072004F0BEFCA1
S3150800183000220521282004F0CDFC282004F0B6FC5F
S3150800184007B000BD303802400010024000000240D8
S3150800185000080240000C02400004024070B5C6B001
S31508001860002500244FF4807106A8FEF70DFF182105
S315080018706846FEF709FF002606A80FF0D1F8C5B29C
S315080018800B2D01DA46B070BD002452E006A8005DB3
S31508001890AA284CD106A908190A2100F067F90646B4
S315080018A006A904F10A00095C06AA401C105C01EBB3
S315080018B00020B0423BD106A908190C22694600F05F
S315080018C047F99DF805009DF8041040EA01201C49D7
S315080018D008839DF809009DF8081040EA0120184978
S315080018E048839DF8070010B909F024FB08E09DF825
S315080018F0070009F073FB00200BF094FB09F096FB38
S315080019009DF80100062809D2DFE800F0080304055F
S31508001910060704E003E002E000BF00E000BF00BFE6
S315080019200F216846FEF7B0FE04F10C00C4B2601C35
S31508001930C4B2A5F10B00A042A8DC00BFA2E70000D4
S315080019407C660120FEB504460D4616461F46134A18
S3150800195007CA8DE807000B2168460FF0B1F8022088
S315080019608DF80600052000F0BFFD0B2168460FF034
S31508001970A7F8052000F0B8FD02208DF801000B211C
S3150800198068460FF09DF8052000F0AEFD01208DF8A1
S3150800199006000B2168460FF093F8FEBDF4640108B3
S315080019A070B504460D462946204603F029FE70BD4B
S315080019B070B504460D462946204603F021FE70BD43
S315080019C070B504460D46164632462946204603F0AB
S315080019D029FE70BD70B50546284600F023F8044672
S315080019E00CB9012070BD204605F05CFAFAE770B51F
S315080019F00546284600F016F804460CB9012070BDC5
S31508001A00204605F021FBFAE770B50546284600F0A2
S31508001A1009F804460CB9012070BD204605F0CFFA36
S31508001A20FAE7000001460B2917D2DFE801F016068F
S31508001A30080A0C0E101216161400094870470948B1
S31508001A40FCE70948FAE70948F8E70948F6E70948C4
S31508001A50F4E70948F2E70948F0E70020EEE7000056
S31508001A6088520020D052002018530020B051002080
S31508001A70F85100206053002040520020F053002007
S31508001A8070B506460D463046FFF7CCFF04460CB93E
S31508001A90012070BD6560204605F06AFCF9E72DE96E
S31508001AA0F04105460E4617462846FFF7BBFF044693
S31508001AB014B90120BDE8F0813A463146204606F0C1
S31508001AC061F9F7E700B503461846FFF7ABFF02468C
S31508001AD00AB1D06B08B9002000BDD06B0068406819
S31508001AE0FAE72DE9F04105460E4617469846284678
S31508001AF0FFF798FF044614B90120BDE8F081434674
S31508001B003A463146204606F055F9F6E700BFFEE7A5
S31508001B1010B500F021FA10BD10B520210348FEF7D4
S31508001B20B3FD20210248FEF7AFFD10BD9C660120DB
S31508001B30BC66012010B544210348FEF7A5FD4421E3
S31508001B400248FEF7A1FD10BDE465012028660120C4
S31508001B5010B503460C46002100BF03E0585C6054EC
S31508001B60481C81B29142F9DB104610BD70B5024699
S31508001B700D46FF21FF23002409E012F8010B80EA35
S31508001B8003040748005D80EA01030648015D281E34
S31508001B90A5F10106B5B2F0D143EA012070BD0000F7
S31508001BA04A0100204A02002010B503460C460021CF
S31508001BB000BF02E06354481C81B29142FADB10462A
S31508001BC010BD00003EB5012000F0F6F804460020DE
S31508001BD0009001900290012000F09CF908B90020BD
S31508001BE03EBD0CB900F070F901200C49C8720320FB
S31508001BF00873887201200A498870002088718DF858
S31508001C0000006A46012112200CF0E0F90AF0ECFD0A
S31508001C10012108460AF03AFE0120E1E77C66012028
S31508001C206C66012003490978814202D10021014AE4
S31508001C3011707047FF03002010B50446012C00D12F
S31508001C4010BD00F0A3F800B1FAE72046FFF7EAFF57
S31508001C5000BFF5E70020014908707047FF03002020
S31508001C6010B500240D48407A012802D10C480479A1
S31508001C7005E00A48407A022801D10A480479012C6D
S31508001C8001D0022C01D1204610BD0449087A0AF079
S31508001C9018FD08B10220F7E70020F5E77C66012069
S31508001CA09C660120BC6601200146012901D102205B
S31508001CB07047022901D10420FAE7042901D103203B
S31508001CC0F6E7032901D10120F2E70020F0E70146F3
S31508001CD001290DD002290BD0032909D0042907D0E0
S31508001CE0072905D0082903D0092901D00A2901D1D5
S31508001CF000207047272909D0282907D0292905D087
S31508001D002A2903D02B2901D02C2901D10020F0E75C
S31508001D1013290DD014290BD0152909D0162907D057
S31508001D20172905D0182903D0442901D0452901D1FE
S31508001D300120DEE70020DCE710B5044600F090F845
S31508001D400948007808B9002010BD07480078A04265
S31508001D5001D10020F8E704480078012800D1F3E70C
S31508001D6000F014F8F0E70000FF03002005480078AB
S31508001D70012804D10448C07A08B101207047002020
S31508001D80FCE70000FF0300207C66012010B504482C
S31508001D900078012800D110BD00F004F8FBE7000028
S31508001DA07C6601200348008B08B10120704700209B
S31508001DB0FCE700007C66012001460448007888425A
S31508001DC001D1012070470020FCE70000FF03002036
S31508001DD00146012905D0022903D0032901D0042987
S31508001DE001D1012070470020FCE710B500F038F853
S31508001DF010BD00000EB50020009001900290154815
S31508001E00007801280AD000201349C872134988703F
S31508001E106A46002112200CF0D9F80EBD00F054F8DD
S31508001E2000200D49C87208730C498870FFF718FF1F
S31508001E30094988720120FFF7F5FE6A46002112203B
S31508001E400CF0C4F80AF0D0FC002101200AF01EFDAF
S31508001E5000BFE2E7FF0300207C6601206C660120D4
S31508001E6010B508480078012800D110BD054800784B
S31508001E7000B9FAE7FFF78AFF10B900200149087090
S31508001E8000BFF2E7FF03002070B504460D46204662
S31508001E90FFF70AFF0646052C01D1002070BD012078
S31508001EA0FFF78AFF48B1032C01D1262D03D0042C55
S31508001EB003D13F2D01D10020F0E70EB90020EDE750
S31508001EC03046FFF739FFE9E710B500200D490870DD
S31508001ED0C8810D4948718871C8700871C87108723F
S31508001EE048720873487309494870087148808881A0
S31508001EF0074948700871488088810AF003FD0AF08E
S31508001F000BFD10BD7C6601206C660120DC66012095
S31508001F100467012010B504462046FFF759FF08B9A3
S31508001F20002010BDFFF79CFF0A480078A04201D1A7
S31508001F300120F6E707480078012801D10020F0E7DC
S31508001F40FFF724FF08B10020EBE7024804700120E0
S31508001F50E7E70000FF03002010B50E210348FEF74F
S31508001F6093FB034800210160416010BD6C660120A7
S31508001F70F70300203EB50446002000900190029029
S31508001F8060480079012800D13EBDA4F13A0008282E
S31508001F9027D2DFE800F004274A75A0B4052800BF59
S31508001FA058480078012800D1EEE75648807A01287B
S31508001FB003D05448007B032800D1E5E701205149A6
S31508001FC088720846407A012802D14F49087106E00E
S31508001FD04C48407A022802D101204C4908710AF07F
S31508001FE003FC8CE000BF47480078012800D1CBE706
S31508001FF04448807A022803D04248007B032800D14F
S31508002000C2E702203F4988720846407A012803D170
S3150800201002203D49087105E03A48407A022801D174
S315080020203A4908710AF0E0FB69E036480078012869
S3150800203000D1A9E70320FFF76DFF00B9A4E7032045
S315080020403049087388720846407A012803D103206C
S315080020502D49087106E02B48407A022802D1032050
S315080020602A49087101208DF800006A4601211220CC
S315080020700BF0ACFF0120234908700AF0B5FB3EE0DF
S3150800208020480078012800D17EE70320FFF742FFA9
S3150800209000B979E703201B49087388720846407A15
S315080020A0012803D103201849087106E01548407A2B
S315080020B0022802D103201549087101208DF8000075
S315080020C06A46012112200BF081FF01200D49087094
S315080020D00AF08AFB13E000200A490870C8810873D1
S315080020E0FFF7BEFD074988726A46002112200BF0E9
S315080020F06DFF0320FFF7A0FD0AF076FB00BF00BFC7
S3150800210000BF41E77C6601209C660120BC66012071
S3150800211030B502460B464FF6FF70002112E0545CBC
S31508002120604000240AE000F0010525B14AF20105E5
S3150800213085EA600000E04010651CECB2082CF2D37A
S315080021404C1CA1B29942EADB30BD70B50446207832
S31508002150AA2802D16078552801D0002070BDA07841
S31508002160022805D1E078012802D120790C2801D06F
S315080021700020F3E7E07C552802D1207DAA2801D06B
S315080021800020EBE704F1110000F086F806460F215F
S31508002190A01CFFF7BDFF0546AE4201D10120DDE7D1
S315080021A00020DBE7014621B1082904D0092906D118
S315080021B003E0022070470320FCE70120FAE700202D
S315080021C0F8E7000070B506460D4630460CF0AEF846
S315080021D000B970BD06EB460000EBC600174901EBD7
S315080021E04004607D28B9AA2D02D1257001206075AA
S315080021F0EFE7607D012809D1552D07D0AA2D00D11A
S3150800220000E000206075AA202070E2E7617D481C86
S3150800221060756554607D152800D2DAE72046FFF719
S3150800222094FF30B12146304600F048F8002060752A
S3150800223002E0204600F004F800BFCAE7C89B012068
S3150800224010B50023012116E0425CAA2A11D14A1CC6
S31508002250825C552A0DD1427D521AD3B2002204E07F
S315080022608C18045D8454541CE2B29A42F8DB437518
S3150800227010BD4A1CD1B2447D4A1C9442E4D8417D23
S31508002280491E415CAA2903D1017001214175EFE776
S315080022900021417500BFEBE7014608784A7840EA15
S315080022A002207047014608784A7840EA02208A7870
S315080022B040EA0240CA7840EA026070472DE9FE4FBC
S315080022C006460D46A81DFFF7EDFF824605F10A00F2
S315080022D0FFF7E8FF834605F10E00FFF7DDFF0290E2
S315080022E0287C01900198FFF75DFF07460EB91D4C43
S315080022F005E0012E01D11C4C01E0BDE8FE8F10F06F
S315080023000DFBB4F8088094F80090C4F818A0C4F837
S3150800231020B00298A0832781687984F824000FB139
S31508002320012000E000202070207808B1002002E09B
S31508002330A07D401CC0B2A075B84502D1207848459A
S3150800234001D0012000E00020009010F011FB009859
S3150800235028B116B90AF0E0FA01E00AF0D3FA00BF8C
S31508002360CBE7000004670120DC66012010B50248AF
S3150800237002F082FD10BD00009854002010B50248F6
S3150800238002F07AFD10BD00001856002010B502486C
S3150800239002F072FD10BD00003854002010B5024846
S315080023A002F06AFD10BD0000F854002010B502487E
S315080023B002F062FD10BD0000B855002010B50248B5
S315080023C002F05AFD10BD00007856002010B50248EC
S315080023D002F052FD10BD000058550020014608784D
S315080023E010381823B0FBF3F20848805CC865032A46
S315080023F005D908686FF30900001D886503E00868B9
S315080024006FF309008865886D70470000126301083C
S31508002410014600208A6A8B69CBB932B1012A0DD0F0
S31508002420022A03D0032A10D10EE000BFCB6A03F0BC
S315080024308073B3F1807F00D1012007E0CB6AB3F146
S31508002440C07F00D1012001E000E000BF34E08B69C5
S31508002450B3F5005F1AD132B1012A07D0022A03D098
S31508002460032A11D10AE000BF01200EE0CB6A03F06F
S315080024708073B3F1807F00D1012006E0CB6AB3F107
S31508002480C07F00D1012000E000BF15E032B1012A6B
S3150800249005D0022A04D0032A0CD103E000BF00BFEE
S315080024A0012008E0CB6A03F08073B3F1807F00D186
S315080024B0012000E000BF00BF704730B504682468FB
S315080024C024F4802405682C60046863608468402CC2
S315080024D004D10468A2600468E16003E00468A160AE
S315080024E00468E26030BD704770B50446002507E011
S315080024F007F050FC40F2DE3000F006F8681C85B2A2
S31508002500A542F5DB70BD000000210022054B1B68C3
S315080025105A6203E0034A1268526A91B28142F9DBB1
S3150800252070470000D850002010B50446424800788D
S31508002530012803D040480079012800D110BD222C7B
S315080025402FD008DC0B2C0FD00C2C29D00D2C42D008
S31508002550212C61D109E0232C3ED0352C06D0362C0F
S3150800256020D0372C58D138E000BF00BF3248407A17
S31508002570012808D100203149C8812F4988822F486F
S31508002580C08808820BE02C48407A022807D1002030
S315080025902B49C881284988822948C08808823BE097
S315080025A000BF00BF2448407A012807D12349C881C3
S315080025B0214988822148008908820BE01E48407A12
S315080025C0022807D101201E49C8811B4988821C4858
S315080025D00089088220E000BF00BF1749087A0AF080
S315080025E08AF800B9AAE71448407A012808D10220D7
S315080025F01249C881104988821048408908820AE031
S315080026000D48407A022806D10D49C8810A498882B0
S315080026100B484089088200BF00BF0748407A012856
S3150800262003D00548407A022803D10349487A0AF0BC
S315080026307DF900BF82E700007C6601209C660120C8
S31508002640BC66012010B507F079FB10BD10B54FF434
S31508002650806002F0D5FE10BD10B5022002F0D0FE53
S3150800266010BD10B5102002F0CBFE10BD10B54020ED
S3150800267002F0C6FE10BD72B600BFFEE72DE9F043B4
S3150800268085B004460D4616461F46DDE90C892346E5
S31508002690FF22DD2101208DE8E00300F003F805B0F4
S315080026A0BDE8F0832DE9FF4F81B080468946924602
S315080026B0DDF848B0DDE90F542CB1BBF1000F02D0AC
S315080026C02DB10E9818B9012005B0BDE8F08F862DFA
S315080026D001D90220F8E705F1100086B21198B04238
S315080026E001DA0220F0E716480068206084F80480C2
S315080026F03146601D01F04AFB84F8079084F808A06B
S31508002700049860722DB12A4604F10A000E99FDF765
S315080027101AFFA81D81B2201DFFF728FA009005F1BF
S315080027200A0087B2E019009901F030FBB81C204472
S31508002730044909680160ABF800600020C4E700009E
S315080027400E640108126401082DE9F04186B00446BA
S315080027500D4616461F46DDF8308004B11DB9012026
S3150800276006B0BDE8F081FF231A46AA2101208DE8AC
S31508002770F001FFF797FFF3E72DE9FC5F82468946EC
S315080027801546BAF1000F00D015B90120BDE8FC9F27
S31508002790B9F1100F01D20220F8E700275BE00AEB37
S315080027A0070004222F4900F010FE00B951E0A9EBFA
S315080027B0070080B2102801D20220E7E70AEB0704D7
S315080027C0601D00F09BFE0646102E01D3962E01D9F9
S315080027D00320DBE7A9EB070080B2B04201DA02204A
S315080027E0D4E7311F081904221F4900F0EEFD08B985
S315080027F00420CBE7A6F110001FFA80F808F10A00BA
S3150800280081B20191001F81B2201DFFF7AFF9009038
S315080028100199601800F072FE83460098584501D069
S315080028200520B3E7207928706E80E0792871207A30
S315080028306871607AA871A5F80880B8F1000F06D00B
S31508002840424604F10A0105F10A00FDF77CFE002064
S315080028509CE7781C87B2A9F1040080B2B8429EDAD8
S31508002860012093E70E6401081264010810B50446B6
S3150800287000F0BCFD00F036FA01F09AF80648008828
S315080028800A300549088008460088642803D30020D2
S31508002890088001F009F910BD4A03002038B504463E
S315080028A06179FF2901D1012100E00021084600F0E5
S315080028B0F3FA28B961790622042001F0C3F838BD75
S315080028C06079052843D008DC01280FD002281AD0E1
S315080028D003281CD004287AD132E006284BD00728D2
S315080028E052D0082865D0FF287CD178E04548007882
S315080028F028B961790422104601F0A4F8DFE701201F
S3150800290001F0BEF974E0002001F0BAF970E03E4823
S31508002910007828B961790422104601F093F8CEE7C9
S315080029203948808920B9384809F07EFE36498881B9
S315080029300120354948700020087109F0EDFF57E07D
S31508002940002031494870087109F0E6FF50E000F0B0
S31508002950E5FF28B961790322042001F073F8AEE790
S315080029602A48008A2949C88101200870284988719F
S3150800297001F072F93CE0002024490870C881244916
S31508002980887101F069F933E02048407A012809D0B6
S315080029901E48407A022805D061790322042001F0F6
S315080029A051F88CE71949487A012211460CF0DEFAEB
S315080029B01EE01648407A01280AD01448407A0228B0
S315080029C006D061790322042001F03CF877E709E094
S315080029D00E49487A012200210CF0C8FA08E001F0F5
S315080029E089F905E061790222042001F02BF866E7EF
S315080029F000BF6079009001226946032000F0BEFFFF
S31508002A0000BF5CE7DC660120046701207C660120C4
S31508002A106C66012010B50446218904F10A0000F00D
S31508002A2087FC30B900221146BB2000F0A7FF002022
S31508002A3010BDFFF7C7F830B906220121AB2001F017
S31508002A4001F80020F4E700F011FE00221146AA2042
S31508002A5000F094FF0120EBE708B500F075F9FFF7E1
S31508002A60C9F9BB20009001226946032000F086FFC1
S31508002A7008BD10B50446218904F10A0000F058FC87
S31508002A8030B900221146FF2000F078FF002010BD63
S31508002A9000221146FE2000F071FF0120F7E7000032
S31508002AA038B50446FFF762F928B96179062202208B
S31508002AB000F0C8FF38BD6079012802D06079022885
S31508002AC00DD13848407A012809D03648407A02287C
S31508002AD005D061790322022000F0B4FFEAE76079A5
S31508002AE0012805D06079032802D0607904280ED120
S31508002AF02089022805D261790122022000F0A2FF6E
S31508002B00D8E704F10A0000F0FFFC05461CE06079EE
S31508002B10022813D12089012801D1A57A14E0208939
S31508002B20022805D304F10A0000F0EEFC05460BE086
S31508002B3061790122022000F085FFBBE76179022254
S31508002B40104600F07FFFB5E76079012806D0022815
S31508002B5008D003280AD0042812D10CE0284600F031
S31508002B60ADFE0EE0284600F093FE0AE00E48858189
S31508002B7009F0C8FE05E00D48858109F0CDFE00E0A4
S31508002B8000BF00BF60798DF8000029460DF10100ED
S31508002B9001F000F903226946012000F0EFFE00BFAC
S31508002BA088E700007C660120DC66012004670120B6
S31508002BB038B50446FFF7DAF828B961790622022003
S31508002BC000F040FF38BD4448007810B94248007903
S31508002BD028B161790622022000F034FFF2E7208945
S31508002BE008B1A07A00E000200546607906285FD281
S31508002BF0DFE800F05E03101D2A453748807928B9BA
S31508002C0061790322022000F01DFFDBE7012009F0AD
S31508002C1085FD53E03048C07928B96179032202203E
S31508002C2000F010FFCEE7022009F078FD46E0208983
S31508002C3018B1284600F0C8FF28B961790122022098
S31508002C4000F000FFBEE739E0012D09D0022D07D0BC
S31508002C50032D05D061790222104600F0F3FEB1E794
S31508002C601D488572407A012802D11C48057105E085
S31508002C701948407A022801D1194805711EE0012D2C
S31508002C8007D0022D05D061790222104600F0DAFE3F
S31508002C9098E711484573407A012802D10F48C57054
S31508002CA005E00D48407A022801D10D48C57005E0B7
S31508002CB061790222104600F0C5FE83E700BF6079FD
S31508002CC08DF800008DF8015002226946012000F0B7
S31508002CD055FE00BF76E700007C6601209C66012051
S31508002CE0BC66012010B500F077FCFFF73FF828B95D
S31508002CF00020134908801349087010BD1048008841
S31508002D0041F28831884204D20D4800880A300C49BD
S31508002D1008800B480088B0F57A7F07D30948007801
S31508002D2020B901F00FF80120064908700448008808
S31508002D3041F28831884201D300F0DAF800BFDCE7B7
S31508002D404C0300204E030020002002490870024967
S31508002D50087070475803002059030020014609B936
S31508002D60002070470848407A012803D100200870DF
S31508002D700120F6E70448407A022802D101200870AB
S31508002D80EFE70020EDE700007C66012010B500F0B3
S31508002D90C5FD08B9FF2010BD0948808A08B9012079
S31508002DA0F9E70748808A012801D10220F3E7044899
S31508002DB0808A022801D10320EDE7FF20EBE7000017
S31508002DC07C66012010B500F0A9FD08B9032010BDE6
S31508002DD00348007808B10220F9E70120F7E7000068
S31508002DE07C66012010B504462078022802D1A07915
S31508002DF0FF2800D010BD2079072829D007DC07282E
S31508002E0040D2DFE800F03F1115191D2131000A28CC
S31508002E1026D004DC08281FD0092833D125E0BB2892
S31508002E202DD0FA282ED126E02046FFF7F3FD2FE015
S31508002E302046FFF735FE2BE02046FFF7B9FE27E0D0
S31508002E402046FFF72BFD23E0204600F063FB1FE03A
S31508002E50204600F0A3FF1BE0204600F097FB17E092
S31508002E60204600F0E7FF13E000BF2179052206207F
S31508002E7000F0E8FD0CE02046FFF7FBFD08E0FFF751
S31508002E80EBFD05E021790222042000F0DBFD00BFFE
S31508002E9000BF00BFAEE7000010B504460CB1012024
S31508002EA010BD0648007908B10020F9E7FEF75EFF75
S31508002EB008B90020F4E70120F2E700007C6601204B
S31508002EC003480078012800D17047FF20FCE700007E
S31508002ED06C6601200146132901D101207047052996
S31508002EE001D0062901D10220F8E70020F6E7000004
S31508002EF010B5FFF729FFFEF77DFF0021084609F008
S31508002F00C5FC00200549087041F28830044908804C
S31508002F100020044908800449087010BD52030020A7
S31508002F20500300204C0300204E03002070B50546D0
S31508002F300C46164605B104B970BD2088801C80B2BF
S31508002F40582807D821884819314600F023FF2088D9
S31508002F50801C208000BFEFE710B500B101B910BD95
S31508002F600B881B1D9BB2582B15D8130E0C880355BE
S31508002F70C2F307440B885B1C9BB2C454C2F30724F4
S31508002F800B889B1C9BB2C4540B88DB1C9BB2C25497
S31508002F900B881B1D0B8000BFE1E72DE9F0410646B3
S31508002FA00F4614461D46DDF818800CB1012000E0D6
S31508002FB0FF2002463946304600F044F94CB12A460D
S31508002FC03946304600F03EF942463946304600F06A
S31508002FD039F9BDE8F0812DE9F04706460F469046D7
S31508002FE01C46089D16B10FB104B10DB9BDE8F087AE
S31508002FF042463946304600F025F92078FFF76AFF41
S3150800300081464A463946304600F01CF995F8402074
S315080030103946304600F016F92A7A3946304600F025
S3150800302011F9AA8D39463046FFF780FFEA79394605
S31508003030304600F007F9204600F011F981464A4665
S3150800304039463046FFF772FF2A8D39463046FFF774
S315080030506DFF6A8D39463046FFF768FF628A394642
S315080030603046FFF763FFE08900F00DF981464A46CE
S315080030703946304600F0E6F8E26939463046FFF749
S315080030806BFF00BFB2E72DE9F04105460E46144630
S3150800309034B9FF223146284600F0D4F8BDE8F0815D
S315080030A0207808B1012000E0FF2002463146284674
S315080030B000F0C8F82078A0B1204609F089FA07463A
S315080030C02089C2B23146284600F0BCF83A46314655
S315080030D02846FFF72BFF22463146284600F003F81C
S315080030E000BF00BFDAE7F0B508B101B102B9F0BD1B
S315080030F00E880B36B6B2582E00D9F8E79369146ACB
S31508003100958B0F88C355C3F307270E88761CB6B26E
S315080031108755C3F307470E88B61CB6B287551E0EE9
S315080031200F88FF1CBFB2C6550E88361D0E800F8845
S31508003130C455C4F307270E88761CB6B28755C4F360
S3150800314007470E88B61CB6B28755260E0F88FF1C91
S31508003150BFB2C6550E88361D0E800F88C5552F0A74
S315080031600E88761CB6B287550E88B61C0E8092F865
S3150800317024600F88C6550E88761C0E8000BFB6E7F9
S315080031802DE9F84380460F460024B8F1000F00D019
S315080031900FB9BDE8F8832649897909B1012100E00C
S315080031A000210846234A244900F07BF805462049B1
S315080031B0C97909B1012100E0002108461F4A2049C2
S315080031C000F06FF806460DB1601CC4B20EB1601C63
S315080031D0C4B204B9DDE73888C01C04EB840100EBEF
S315080031E0810080B2582800D9D3E7A522394640463F
S315080031F000F028F801223946404600F023F8224616
S315080032003946404600F01EF83DB10A480A4B0122ED
S31508003210394600904046FFF7DEFE3EB10748084BA8
S315080032200222394600904046FFF7D5FE00BFB0E7B8
S315080032307C660120E46501209C6601202866012041
S31508003240BC66012000B101B970470B88582B04D21F
S315080032500B88C2540B885B1C0B8000BFF4E7014641
S3150800326009B900207047C88908B9C888FAE7C88923
S31508003270012801D10889F5E7C889022801D14889BA
S31508003280F0E70020EEE7014609B90020704701295A
S3150800329001D10120FAE7022901D10220F6E7FF2031
S315080032A0F4E710B503460BB9002010BD01B10AB901
S315080032B00020FAE70878132805D00878052802D0F0
S315080032C00878062801D1012000E00020044634B120
S315080032D092F8400008B10120E7E70020E5E792F8F8
S315080032E0400028B1107A18B1908D08B10120DCE7AA
S315080032F00020DAE710B500F037FA054A05A10B48B1
S3150800330006F0CEFD0A220021084806F0D3FD10BDBE
S315080033106D28000845787465726E616C436F6D6D33
S315080033205461736B46756E6300000000ACFD0020A7
S315080033300246082901D1012070470020FCE7024611
S3150800334009B900207047092A25D2DFE802F02405CA
S31508003350080C1014181C200001200880F2E702202F
S3150800336008800120EEE7032008800120EAE7042010
S3150800337008800120E6E7052008800120E2E707200B
S3150800338008800120DEE7082008800120DAE70A2005
S3150800339008800120D6E700BF00BF0020D2E702461A
S315080033A009B9002070470C2A03D3802A01D813468E
S315080033B007E022B1752A02D802F10B0301E00020CA
S315080033C0F0E7581E08800120ECE730B503460C46A6
S315080033D0002107E0585C655CA84201D0002030BD9A
S315080033E0481C81B29142F5DB0120F8E710B5064882
S315080033F00DF07AFB04461CB12146034800F050FD47
S3150800340000F004F810BD00003C0E012010B50024A1
S3150800341005E000F009F800B903E0601C84B2202C2E
S31508003420F7D300BF10BD000070B5A6B030480079CC
S3150800343010B9002026B070BD00F07EF90446042CB1
S3150800344001D20020F6E725AB00220421294800F026
S3150800345029F938B9032C03D9E11E88B200F0D0F94E
S315080034600020E7E7BDF8940030B1BDF8940000F0FD
S31508003470C7F900F061F90446102C01D20020D9E7FB
S31508003480022224A9052000F07DF908B90020D1E719
S3150800349024A800F039F80546102D01D3962D04D935
S315080034A0012000F0ADF90120C4E7AC4201DA0020A2
S315080034B0C0E72A461049002000F064F908B9002040
S315080034C0B8E76A4629460C48FFF756F906464EB944
S315080034D000F0CCF8284600F093F96846FFF782FC1E
S315080034E00120A7E7012000F08BF90120A2E70000E0
S315080034F05A030020166401082A110120014648785B
S315080035000A7840EA02207047014648780A7840EA75
S31508003510022070471CB50446607901A9FFF70FFF22
S3150800352028B961790222062000F08CFA1CBD0B49E5
S31508003530BDF8040000F014F828B9617904220620C1
S3150800354000F080FAF2E71E2000906179034BFF2213
S31508003550012000F085FA00BFE8E7000056120120B6
S3150800356038B504460D466846FFF7F8FB08B900204B
S3150800357038BD9DF8000020B129462046FDF7DEFA41
S31508003580F6E729462046FDF7CDFAF1E71CB50446CD
S31508003590607901A9FFF703FF28B96179022206209D
S315080035A000F050FA1CBD0B49BDF80400FFF7D8FF20
S315080035B028B961790422062000F044FAF2E71E20B1
S315080035C000906279034BFF21012000F049FA00BF01
S315080035D0E8E700005612012010B5FEF7C7FB00B158
S315080035E010BD0F48007800B9FAE70E48008841F286
S315080035F08831884204D20B4800880A300949088075
S315080036000848008841F28831884206D300200449D8
S3150800361008700021084609F039F900BFE0E7000004
S31508003620520300205003002070B50E48047800F0BD
S3150800363035FB054604B96DB10B48808920B90A489F
S3150800364008F0F2FF084988810120074948700020E0
S31508003650087103E0002004494870087109F052F91E
S3150800366070BD000058030020DC66012010B500205C
S315080036700849088008490870012008490870002090
S3150800368007490880FEF772FB04462146012009F027
S31508003690FDF810BD4C0300204E0300205203002005
S315080036A0500300202DE9F84F80460C4691461F46E8
S315080036B000F042F88246B8F1000F01D004B117B9FC
S315080036C00020BDE8F88F09EB040080B2504501DD03
S315080036D00020F6E7002038804D461DE0002611E060
S315080036E0A91988B20122694600F04CF808B90020E9
S315080036F0E7E718F806009DF80010884200D003E0B6
S31508003700701C86B2A642EBDB00BFA64202D13D8002
S315080037100120D6E7681C85B2AAEB040080B2A8424D
S31508003720DCDA0020CDE710B500F006F840F25721A4
S31508003730081A80B210BD00000A484088094909885D
S31508003740884206DB0748408806490988401A80B23D
S31508003750704704480088C0F516700249498808442D
S3150800376080B2F5E75A0300200548007900B1704792
S3150800377000200349088048800120087100BFF6E749
S315080037805A0300202DE9F04706460F461546FFF76F
S31508003790D3FF81464FF0000807B115B90020BDE8F0
S315080037A0F087701980B2484501DD0020F7E70E481A
S315080037B00088304484B2B4F5167F02D3A4F5167097
S315080037C084B20DE00948005D07F8080008F1010019
S315080037D01FFA80F8601C84B2B4F5167F00D3002463
S315080037E0A845EFDB0120DAE75A030020D20E0120B4
S315080037F00020024908804880704700005A030020CC
S3150800380070B50446FFF798FF06462546B54200DD23
S31508003810354608480088284406490880084600882E
S31508003820B0F5167F04D308460088A0F51670088000
S31508003830284670BD5A03002070B505460E4600247A
S315080038401148007908B105B10EB9002070BD12E023
S31508003850285D0D4949880D4A5054601C84B20A48AF
S315080038604088401C0849488008464088B0F5167FBD
S3150800387001D300204880B44203DAFFF754FF00283A
S31508003880E6D12046E2E700005A030020D20E0120C6
S3150800389007494882497A012902D10649888105E003
S315080038A00349497A022901D10349888170470000F2
S315080038B07C6601209C660120BC66012014490882AA
S315080038C0C881497A01290FD11149898A11B9114943
S315080038D0C8801CE00E49898A012902D10D49088150
S315080038E015E00C49488112E00949497A02290ED1A6
S315080038F00749898A11B90849C88008E00449898AAC
S31508003900012902D10449088101E003494881704729
S315080039107C6601209C660120BC6601200B48407A23
S31508003920012806D10948807908B10120704700208E
S31508003930FCE70648407A022806D10448C07908B14F
S315080039400120F3E70020F1E70020EFE77C6601207D
S315080039500948407A012804D10748807908B101202E
S3150800396070470548407A022804D10348C07908B14F
S315080039700220F5E7FF20F3E77C660120FEB5044642
S315080039800D4616460020029002A89621074B32469D
S31508003990CDE9001029462046FEF770FE20B9BDF88D
S315080039A0081002480DF0F0F8FEBD0000C011012015
S315080039B01CB51F480079012808D100201D49087048
S315080039C01D4908801A484079019015E01A48008870
S315080039D080B1184800780190174800880A2805D948
S315080039E0154800880A381449088005E0002012495D
S315080039F0088001E0002001901048007830B1104896
S31508003A0000789DF80410884200D11CBD01200B499E
S31508003A1008709DF804000A490870012001AB0522C8
S31508003A20FF210090032000F01BF800BFEDE700001F
S31508003A307C6601205503002056030020540300200D
S31508003A4053030020F8B506460C4615468DF8004087
S31508003A508DF80150022269463046FFF78FFFF8BD00
S31508003A602DE9F04186B004460D4616461F46DDF898
S31508003A7030800020059005A896210A4A3346CDE9EC
S31508003A800078CDE9022104902A4621460120FEF756
S31508003A9009FE20B9BDF8141002480DF075F806B0F5
S31508003AA0BDE8F081C011012030B599B00020029020
S31508003AB001903648807800903448437834488079B5
S31508003AC008B1012000E00020024602A903A8FFF77A
S31508003AD064FA3048807800902E4843782C48C0799C
S31508003AE008B1012000E00020024602A903A8FFF75A
S31508003AF054FAFFF72DFF05462A4602A903A8FFF741
S31508003B00A1FBFFF75FF90446224602A903A8FFF7BF
S31508003B1099FBFFF73BF905462A4602A903A8FFF7D2
S31508003B2091FB022C0BD11A48C28902A903A8FFF7F8
S31508003B30FDF91748428B02A903A8FFF7F7F9FFF723
S31508003B40BFF905462A4602A903A8FFF77BFB124AD6
S31508003B5002A903A8FFF797FA104A02A903A8FFF7D4
S31508003B6092FA02A903A8FFF70BFB01A896230C4AB1
S31508003B700090BDF8081003A8FEF7E6FD20B9BDF8C9
S31508003B80041007480DF000F819B030BD9C660120F6
S31508003B907C660120BC660120DC66012004670120E2
S31508003BA0C011012000B101B97047044A1070044AD7
S31508003BB011800022034B1A7000BFF5E75503002059
S31508003BC0560300205403002002460AB9002106E0E5
S31508003BD0032A02D8501EC1B201E0002070471B48D4
S31508003BE08182407A012812D11948C18119B9C08841
S31508003BF0164B188224E0012904D115480089134B75
S31508003C0018821DE012484089104B188218E00F48A8
S31508003C10407A022812D10F48C18119B9C0880B4BC6
S31508003C2018820DE0012904D10A480089074B188239
S31508003C3006E008484089054B188201E00020CDE7D8
S31508003C400248008A014BD8810120C7E77C6601201B
S31508003C509C660120BC66012010B504460CB1012003
S31508003C6000E00020054908700CB1012100E00021A0
S31508003C70084609F021F8FFF7D7FC10BD59030020C4
S31508003C8010B504460CB1012000E000200249087076
S31508003C90FFF7CAFC10BD0000580300201148008930
S31508003CA0022801D1012000E0002001460E480089C3
S31508003CB0022801D1012000E0002002460B480078C6
S31508003CC008B90020704739B132B10948407A01284D
S31508003CD000D1F7E70020F5E709B10120F2E7002057
S31508003CE0F0E70000DC660120046701205903002084
S31508003CF07C66012010B500200E490870C8810E495F
S31508003D00487188710B49C87208730B49C8700871E5
S31508003D10FFF71AF800200949487008718881084990
S31508003D2048700871888108F0EDFD08F0F5FDFDF78B
S31508003D3091FF10BD7C6601206C660120DC660120BF
S31508003D400467012010B500200C490870C8810C4989
S31508003D504871887108734873FEF7F6FF0020094911
S31508003D6048700871488088810749487008714880FA
S31508003D70888108F0C7FD08F0CFFD10BD7C660120DC
S31508003D806C660120DC660120046701200A120270B5
S31508003D90417070470A1202704170704738B5044680
S31508003DA020891E2805D0617901220620FFF74AFEE0
S31508003DB038BD60796946FFF7C2FA28B961790222E7
S31508003DC00620FFF73FFEF3E720210E48FCF73AFCF2
S31508003DD01E2204F10A010B48FCF7B5FB0949BDF898
S31508003DE0000000F011F828B9617904220620FFF7CF
S31508003DF029FEDDE70122611D0520FFF7BFFD00BF93
S31508003E00D6E700005612012038B504460D46684626
S31508003E10FEF7A4FF08B9002038BD9DF8000020B1C0
S31508003E2029462046FDF71EF8F6E729462046FDF7FF
S31508003E300DF8F1E738B5044620891E2805D06179C2
S31508003E4001220620FFF7FEFD38BD60796946FFF7B7
S31508003E50A6FA28B9617902220620FFF7F3FDF3E7EF
S31508003E6020210E48FCF7EEFB1E2204F10A010B483E
S31508003E70FCF769FB0949BDF80000FFF7C5FF28B93B
S31508003E80617904220620FFF7DDFDDDE70122611DC9
S31508003E900520FFF773FD00BFD6E700005612012084
S31508003EA070B506460C4606B104B970BDFFF75CFC52
S31508003EB00948007900B9F8E721463046FFF7BCFC07
S31508003EC00546A54200D1F0E7FFF792FC21463046A9
S31508003ED0FFF7B2FC00BFE8E75A0300202DE9FF41CF
S31508003EE006460220FDF728FF58B1FE48006830B1A3
S31508003EF0FDA300226946FB48006805F08FFFBDE870
S31508003F00FF81F8480068002877D0F7A30022FA490D
S31508003F10F448006805F082FF012878D1F648007851
S31508003F20002855D1F548807A012835D1F448C0785B
S31508003F3010B9F348007978B10020F149C8700871C2
S31508003F40EE49087008464079012803D008464079AA
S31508003F50042801D100F090FBE848007A052803D030
S31508003F60E648007A062814D10120E549487002205F
S31508003F70E24988720846407A012803D10220E149BD
S31508003F80087109E0DD48407A022805D1DE49087142
S31508003F9002E00020D94988720020D94908700846ED
S31508003FA0C07810B90846007978B10020D449C8709D
S31508003FB00871D249087008464079012803D0084696
S31508003FC04079042801D100F057FB08F00DFC1EE0EB
S31508003FD00120CB490870C948807A022815D0C748FD
S31508003FE0807A032811D00120C44988720846407A8D
S31508003FF0012803D1C349087107E07DE0BF48407A2C
S31508004000022802D10120C049087108F0EDFBBA4820
S315080040100078012870D1B8484078012804D00228D1
S315080040206BD003286AD128E1B8480488B24840888A
S31508004030A04201DDB0484488AF484088201A1428B9
S3150800404040D90020B249087000F022FB00B956E7B3
S31508004050AB48807900B152E7A848008A18B908F039
S315080040608BFAA64908820220FDF754FF00B946E7F5
S315080040700120A349C870A048C0889F494988401AAA
S3150800408000EE100AF8EEC00A9B4840889F49098846
S31508004090081A00EE100AB8EEC00A80EE201A9748F1
S315080040A0008A00EE100AB8EE400A21EE000ABCEEBD
S315080040B0C00A10EE100A9149C8810120087008F05C
S315080040C0FBFD36E08E48C07878B3914800F06CFD69
S315080040D000B1BEE200208949087008F0EDFD884865
S315080040E0C07990B100208649C8718A48008902289B
S315080040F005D100F099FD08E0ACE21BE0A8E286488D
S315080041000089022801D100F097FD00207C49C8707B
S315080041107A49C88108464079042803D00846407978
S31508004120012806D100F0A8FA03E0FFE70020784945
S3150800413008708EE2794804886F484088A04201DDFD
S315080041406D4844886C484088201A14281DD900F008
S315080041509FFA00B9D3E66A48807900B1CFE66D4880
S315080041600089022805D108F0FFF9074600F02CFD62
S3150800417007E069480089022803D16749888900F061
S315080041803BFD01205E49C87026E05D48C07880B1D5
S315080041905A484079042803D058484079012801D163
S315080041A000F06AFA002055490870C8815449C87059
S315080041B0C8705348C07978B100205149C87155482C
S315080041C00089022802D100F02FFD05E05248008937
S315080041D0022801D100F030FD47488088A04201DD61
S315080041E04548848844488088201A142831D9434889
S315080041F0008A18B908F0C0F9404908820220FDF77C
S3150800420089FE00B97BE601203D49C8703A48C08856
S3150800421039498988401A00EE100AF8EEC00A36486D
S315080042208088201A00EE100AB8EEC00A80EE201A1E
S315080042303248008A00EE100AB8EE400A21EE000A5B
S31508004240BCEEC00A10EE100A2C49C881012008707D
S3150800425012E02B48C07878B128484079042803D062
S3150800426026484079012801D100F006FA00202349A2
S315080042700870C8812249C870EBE1294804881E489D
S315080042804088A04201DD1C4844881B484088201A03
S31508004290142873D900F0FCF900B930E6184880797B
S315080042A000B12CE61B480089022804D119498889DF
S315080042B000F08AFC07E018480089022803D116494D
S315080042C0888900F099FC0C488088A04201DD0A48DC
S315080042D0848809488088201A142873D90748407AA0
S315080042E001281FE0DC000020466F6F744D7367518C
S315080042F07565756500000000F49900207C6601204C
S315080043006C6601209C660120BC660120D400002052
S31508004310E0000020DC66012004670120D6000020AA
S31508004320D80000202BD10220FDF7F4FD00B9E6E500
S315080043300120CB49C870CB48C088CA498988401A29
S3150800434000EE100AB8EEC01AC6488088201A00EE99
S31508004350100AB8EEC00AC0EE010AC348008A00EE89
S31508004360100AB8EE400A20EE800ABCEEC00A10EE2B
S31508004370100ABD49C881012008708DE064E0BA487A
S31508004380407A022849D1B8488079012845D1B648EB
S315080043904078401CB4494870084640780A2803DA31
S315080043A00220FDF749FCAAE50020AF49487006211E
S315080043B0012009F085FDAC48807820B90220FDF778
S315080043C03BFC9CE52AE00220FDF7A4FD00B996E532
S315080043D00120A349C870A348C088A2498988401A01
S315080043E000EE100AB8EEC01A9E488088201A00EE21
S315080043F0100AB8EEC00AC0EE010A9B48008A00EE11
S31508004400100AB8EE400A20EE800ABCEEC00A10EE8A
S31508004410100A9549C881012008703DE0002092499C
S3150800442048708F48C07880B300200870C8818C49CE
S31508004430C8708D484079042803D08B4840790128F4
S315080044402AD100F019F927E00020874948708448E6
S31508004450C07870B100200870C8818149C870824848
S315080044604079042803D080484079012801D100F01A
S3150800447003F97B48C07940B100207949C8717B4867
S315080044800089022802D100F0CFFB05E078480089B0
S31508004490022801D100F0D0FB7648058871480089CA
S315080044A0A84201DD6F4805896E480089281A142834
S315080044B074D900F0EDF800B921E56948807900B1B2
S315080044C01DE56B480089022804D16949888900F0EE
S315080044D093FB07E065480089022803D16349888968
S315080044E000F072FB5F484089A84201DD5D484589B6
S315080044F05C484089281A14286BD95B48407A0228F8
S3150800450029D1FDF707FD00B9F9E401205449C8701F
S315080045105448808953494989401A00EE100AB8EE72
S31508004520C01A50484089281A00EE100AB8EEC00A88
S31508004530C0EE010A4C48008A00EE100AB8EE400A9E
S3150800454020EE800ABCEEC00A10EE100A4649C88161
S31508004550012008707BE04448407A012877D1424818
S315080045608079012873D140484078401C3E494870FC
S31508004570084640780A2803DA0220FDF75DFBBEE408
S315080045800020394948700621012009F099FC36486F
S31508004590807820B90220FDF74FFBB0E42FE0022017
S315080045A0FDF7B8FC00B9AAE401202D49C8702D48CA
S315080045B080892C494989401A2A494989691A91FBEF
S315080045C0F0F02949098A48432749C881012008701B
S315080045D03DE00020244948702148C07880B3002077
S315080045E00870C8811E49C8701F484079042803D03E
S315080045F01D48407901282AD100F03EF827E000201E
S31508004600194948701648C07870B100200870C881EA
S315080046101349C87014484079042803D012484079D1
S31508004620012801D100F028F80D48C07940B10020D2
S315080046300B49C8710D480089022802D100F0F4FA26
S3150800464005E00B480089022801D100F0F5FA00E0E0
S3150800465000BF00BF0220FDF7EFFA00BF4FE40000DD
S315080046606C660120F49900207C660120DC66012036
S3150800467004670120DA00002010B501200CF05CFC6C
S3150800468018B904200CF058FC08B10CF03FFC10BD1A
S3150800469010B51948807A012800D110BD1648407A0D
S315080046A020B901200CF058FC0020F6E7FDF75EFB68
S315080046B030B91248807918B90F48007B032801D110
S315080046C00020EAE70220FDF737FB08B10020E4E7FF
S315080046D002200CF031FC18B102200CF01DFC05E09C
S315080046E005480079012801D10020D6E700F01EFA16
S315080046F008F07AF80120D0E77C6601206C66012074
S3150800470070B5C4B0064600254FF4807104A8FBF7BF
S31508004710BBFF04A80CF08CFA05460A2D25DA012001
S3150800472009F0ECFBEC480078E8B1EC480078401C4E
S31508004730EA49087008460078642814DD00200870E5
S31508004740E5490870E6490870E6490870E6490870C0
S315080047500E226846FBF7F7FE9DE80F0000F0FEF90B
S31508004760012009F089FB44B070BD0024ABE104F1D7
S315080047700900A84200DBABE104A8005DFE2830D1A1
S3150800478004A9601C085CEF28F9D10020D3490870F9
S31508004790E01DA84226DA04A9A01C085CB62821D187
S315080047A0E01C085CC1281DD1201D085C012819D110
S315080047B0601D085C012815D1E01D095C04AAA01D2E
S315080047C0105C41EA0020C9490880C34800780028DF
S315080047D0D5D1C34800780028D1D10821C4480CF0A7
S315080047E073FA6EE1E01DA84226DA04A9A01C085C4B
S315080047F0D02821D1E01C085CB4281DD1201D085CF6
S31508004800B52819D1601D085CCD2815D10120B449F9
S31508004810087004A9E01D095C04AAA01D105C41EA01
S315080048200020B1494880AF4800780028D9D108212E
S31508004830B0480CF049FA44E1E01DA8422FDA04A971
S31508004840A01C085CD0282AD1E01C085CB42826D114
S31508004850201D085CB82822D1601D085CDF281ED1FF
S315080048600120A049087004A9E01D095C04AAA01D3E
S31508004870105C41EA00209C49C880012096490870CE
S315080048809949087048700E226846FBF75CFE9DE859
S315080048900F0000F063F9012009F0EEFA11E1601D3E
S315080048A0A8429EDA04A9A01C085CBB2899D1E01C82
S315080048B0085CAA2895D104F10900A8427DDA201DD2
S315080048C0085CDD2879D1601D085C012841D1E01D0E
S315080048D0095C04AAA01D105C41EA002086490880EC
S315080048E07D48007898BB04F10D00A842A3DA04A914
S315080048F0801E095C401E105C41EA00207A49C88087
S3150800490004A904F10D00095C401E105C41EA002070
S315080049107549888004A904F10F00095C401E105CE3
S3150800492041EA00207049488001200870022048703A
S315080049300E226846FBF707FE9DE80F0000F00EF909
S31508004940012009F099FA012063490870B9E0FFE7E8
S3150800495009E704F10900A842A0DA04A9601D085C69
S3150800496002289BD1E01D095C04AAA01D105C41EA3F
S3150800497000206249088004A904F10900095C401E68
S31508004980105C41EA00205E490880534800780028F8
S3150800499084D104F11500A8424EDA04A90A38095C44
S315080049A0401E105C41EA00204F49C88004A904F162
S315080049B00D00095C401E105C00E03EE041EA002064
S315080049C04949888004A904F10F00095C401E105C5F
S315080049D041EA00204449488004A904F11100095C11
S315080049E0401E105C41EA00203F49888104A904F171
S315080049F01300095C401E105C41EA00203A494881D0
S31508004A0004A904F11500095C401E105C41EA002067
S31508004A103549088101200870032048700E2268462F
S31508004A20FBF791FD9DE80F0000F098F801202A4950
S31508004A30087009F021FA44E095E6E01DA84240DA3C
S31508004A4004A9201D085CCC283BD1E01D085C07287A
S31508004A5035D2DFE800F034040C141C242C000221A3
S31508004A60012009F02DFA012009F006FA28E00421B0
S31508004A70012009F025FA012009F0FEF920E00621B7
S31508004A80012009F01DFA012009F0F6F918E00321C2
S31508004A90012009F015FA012009F0EEF910E00121CC
S31508004AA0084609F00DFA012009F0E6F908E00521A3
S31508004AB0012009F005FA012009F0DEF900E000BF3F
S31508004AC000BF601CC4B2A5F10A00A042BFF64FAEF3
S31508004AD000BF00BF47E60000E1000020E20000201A
S31508004AE0E3000020E4000020D8990020D40000202C
S31508004AF0CA000020C0000020D6000020D8000020F0
S31508004B00DA00002010B504A20E21052005F064F98C
S31508004B100549086010BD0000466F6F744D736751F4
S31508004B207565756500000000DC0000200120084955
S31508004B3088720846407A012802D10649087106E0BB
S31508004B400348407A022802D10120034908717047B8
S31508004B507C6601209C660120BC6601201FB50C48B6
S31508004B60006800B91FBD0E2269460A48FBF79BFC80
S31508004B7000B9F7E70E2269460648FBF7E4FC06A3E8
S31508004B80002269460248006805F066F900BFE9E7B1
S31508004B90DC000020E6990020466F6F744D7367515C
S31508004BA07565756500000000014609B90020704763
S31508004BB00878032804D20878401C08700120F6E714
S31508004BC00020087000BFF2E710B504460020084927
S31508004BD00871488001200749C87105488481012069
S31508004BE00349487008468189022009F09FF910BDDB
S31508004BF0DC6601206C66012010B5044600200849D1
S31508004C000871488001200749C87105488481012038
S31508004C100349487008468189022009F0AFF910BD9A
S31508004C20046701206C66012000200249487008715B
S31508004C3048807047DC6601200020024948700871E8
S31508004C40488070470467012070B506460A25324831
S31508004C500079012804D03049087A07F04CFD00B9DC
S31508004C6070BD1B2E06D01C2E2BD02F2E03D0302E17
S31508004C704ED127E000BF2848407A01280ED12648A1
S31508004C80408A2844C4B225480079A04201DA23485C
S31508004C900479234884812048448211E01E48407ADA
S31508004CA002280DD11C48408A2844C4B21D48007900
S31508004CB0A04201DA1B4804791B48848116484482BD
S31508004CC026E000BF1448407A01280ED11248408ACF
S31508004CD0401BC4B211484079A04201DD0F4844790F
S31508004CE00F4884810C48448211E00B48407A022818
S31508004CF00DD10948408A401BC4B20A484079A042EF
S31508004D0001DA08484479084884810348448200BF88
S31508004D1000BF00BFA4E700007C660120E46501200F
S31508004D209C66012028660120BC66012070B50446F1
S31508004D30A56D00F07DFC064694F83500022808D0DB
S31508004D408020606500BF002084F8340000BF012081
S31508004D5070BD2068006820F0160021680860206889
S31508004D60406920F0800021684861206C08B9A06C71
S31508004D7028B12068006820F00800216808602068CB
S31508004D80006820F001002168086010E000F050FC7F
S31508004D90801B05280BD920206065032084F8350080
S31508004DA000BF002084F8340000BF0320D0E7206845
S31508004DB0006800F001000028E8D194F85C103F2054
S31508004DC08840A860012084F8350000BF002084F8D8
S31508004DD0340000BF00BFBBE7014691F83500022842
S31508004DE003D08020486501207047052081F83500EA
S31508004DF00868006820F001000A6810600020F3E7E0
S31508004E0070B504460CB9012070BD94F83500022827
S31508004E1000D1F9E72068006820F0010021680860E1
S31508004E200020216808602168486021688860216838
S31508004E30C860216808612120216848612046FDF77D
S31508004E40CDFA05460020E06320646064A064E0644F
S31508004E50206594F85C103F208840A86000206065B3
S31508004E6084F8350000BF84F8340000BF00BFCBE7E4
S31508004E700146486D70470000F8B5044600200090CA
S31508004E808C4800684FF41651B0FBF1F7A56D2E68F3
S31508004E9094F85C1008208840304098B12068006873
S31508004EA000F0040070B12068006820F00400216852
S31508004EB0086094F85C1008208840A860606D40F08F
S31508004EC00100606594F85C1001208840304068B1A4
S31508004ED02068406900F0800040B194F85C10012019
S31508004EE08840A860606D40F00200606594F85C1028
S31508004EF004208840304068B12068006800F002004D
S31508004F0040B194F85C1004208840A860606D40F0B9
S31508004F100400606594F85C1010208840304078B32F
S31508004F202068006800F0080050B394F85C10102060
S31508004F308840A8602068006800F4802080B1206856
S31508004F40006800F4002028B9206CC8B12046216CFE
S31508004F50884715E0A06C98B12046A16C88470FE0F9
S31508004F602068006800F4807028B92068006820F07E
S31508004F70080021680860206C10B12046216C88471B
S31508004F8094F85C10202088403040002865D02068BE
S31508004F90006800F0100000285FD094F85C1020200C
S31508004FA08840A86094F83500052828D1206800684C
S31508004FB020F01600216808602068406920F080000B
S31508004FC021684861206C08B9A06C28B1206800687F
S31508004FD020F008002168086094F85C103F2088409B
S31508004FE0A860012084F8350000BF002084F834004A
S31508004FF000BF206D10B12046216D8847F8BD206896
S31508005000006800F4802080B12068006800F4002061
S3150800501028B9606C10B12046616C88471DE0E06BCA
S31508005020D8B12046E16B884717E02068006800F48D
S31508005030807068B92068006820F010002168086050
S31508005040012084F8350000BF002084F8340000BF32
S31508005050E06B10B12046E16B8847606D38B3606D30
S3150800506000F00100F0B1052084F8350020680068DA
S3150800507020F001002168086000BF0098401C0090DD
S31508005080B84200D905E02068006800F00100002851
S31508005090F3D100BF012084F8350000BF002084F852
S315080050A0340000BFE06C10B12046E16C884700BFB1
S315080050B0A4E700009C0000202DE9F04104460025E5
S315080050C000F0B6FA074614B90120BDE8F081606A17
S315080050D000B100BF022084F8350000BF002084F824
S315080050E0340000BF2068006820F0010021680860CD
S315080050F00AE000F09DFAC01B052805D92020606546
S31508005100032084F83500E0E72068006800F0010015
S315080051100028EED12068056821480540D4E9010138
S315080051200843E16808432169084361690843A1699E
S315080051300843E1690843216A08430543606A04286D
S3150800514003D1D4E90B0108430543206805602068AC
S31508005150456925F00705606A0543606A04280DD18C
S31508005160A06A0543E06A48B12046FDF751F928B11F
S3150800517040206065012084F83500A6E7206845616F
S315080051802046FDF72BF9064694F85C103F20884028
S31508005190B06000206065012084F83500002094E79F
S315080051A03F8010E02DE9F04704460D4616461F4697
S315080051B04FF00008D4F8589000BF94F8340001283E
S315080051C002D10220BDE8F087012084F8340000BF30
S315080051D094F83500012825D1022084F835000020EE
S315080051E060653B46324629462046FDF766F994F83F
S315080051F05C103F208840C9F808002068006840F025
S31508005200160021680860206C28B12068006840F004
S315080052100800216808602068006840F001002168DD
S31508005220086006E000BF002084F8340000BF4FF095
S3150800523002084046C6E7000070B5044600F0F8F9D3
S3150800524006462546681C10B104480078054400BF88
S3150800525000F0EEF9801BA842FAD370BD08000020C2
S31508005260F0B50C4600250022002300218FE0012618
S3150800527006FA01F504EA0502AA427DD1464E8F08D0
S3150800528056F827308E07370F0F26BE403340434E59
S31508005290B04201D100261EE0414EB04201D101269E
S315080052A019E0404EB04201D1022614E03E4EB0420B
S315080052B001D103260FE03D4EB04201D104260AE093
S315080052C03B4EB04201D1052605E03A4EB04201D127
S315080052D0062600E007268F073F0FBE409E4224D1D0
S315080052E0354E36689643344F3E603E1D36689643C3
S315080052F03F1D3E60304E0C36366896432E4F0C37AF
S315080053003E603E1F366896433F1F3E608E07370F46
S315080053100F2606FA07F3204E8F0856F827609E4395
S315080053201D4F4FEA910C47F82C6006684FEA410C6E
S31508005330032707FA0CF7BE430660CF0800F12006DC
S3150800534056F827604F074FEAD76C0F2707FA0CF76E
S31508005350BE434FEAD10C00F1200747F82C60C66817
S315080053604FEA410C032707FA0CF7BE43C6604668A6
S3150800537001278F40BE4300E008E0466086684FEA92
S31508005380410C032707FA0CF7BE438660491C10290F
S31508005390FFF46DAFF0BD0000083801400000024080
S315080053A00004024000080240000C024000100240BF
S315080053B00014024000180240003C014010B50446A3
S315080053C0204608F0C5FEB4F5805F0BD0B4F5005F43
S315080053D011D10A48407808B9012000E000200749A1
S315080053E0487009E00548007808B9012000E0002067
S315080053F00249087000E000BF00BF10BD600300202E
S3150800540010B5044604480068204020B102480460EC
S315080054102046FFF7D3FF10BD143C0140F8B50246FD
S315080054200B460025002400200021D1E0012606FABB
S3150800543001F51E6806EA0504AC4274D11E7906F029
S315080054400306012E04D01E7906F00306022E13D198
S3150800545090684F000326BE40B0434F00DE68BE404A
S3150800546030439060506801268E40B0431E79C6F3DB
S3150800547000168E40304350601E7906F00306032E50
S3150800548009D0D0684F000326BE40B0434F009E683F
S31508005490BE403043D0601E7906F00306022E13D1B3
S315080054A0CF0802F1200656F827004E07F70E0F26FA
S315080054B0BE40B0434F07FF0E1E69BE403043CF08BB
S315080054C002F1200646F8270010684F000326BE4062
S315080054D0B0431E7906F003064F00BE403043106005
S315080054E05E6806F44036002E71D000BF002600968E
S315080054F0394E366846F48046374F3E603E46366833
S3150800550006F48046009600BF00BF344E8F0856F852
