S31508000000B0D2002079030008F18100085968000879
S31508000010198000086D1900080DCD000800000000C1
S31508000020000000000000000000000000B9020008FF
S315080000309F1C00080000000015030008B5AF000863
S31508000040930300089303000893030008930300082A
S315080000509303000893030008930300082D1E000865
S315080000609303000893030008371E0008251B0008A1
S31508000070351B0008451B0008551B0008930300089C
S31508000080651B000893030008930300089303000800
S31508000090930300089303000893030008411E000811
S315080000A093030008A1B0000899B00008930300085C
S315080000B093030008930300089303000893030008BA
S315080000C093030008930300089303000893030008AA
S315080000D093030008A9C80008B9C80008C9C80008D9
S315080000E0211E0008930300089303000893030008E1
S315080000F093030008C1B0000893030008930300089F
S315080001009303000893030008930300089303000869
S31508000110BDB30008CDB30008B1B0000893030008CA
S3150800012093030008751B0008851B00089303000845
S315080001309303000893030008930300089303000839
S315080001409303000893030008930300089303000829
S31508000150930300089303000893030008D9C800080E
S315080001609303000893030008930300089303000809
S315080001709303000893030008000000000000000035
S315080001809303000893030008DDB3000893030008EF
S315080001909303000893030008000000009303000877
S315080001A09303000893030008000000000000000005
S315080001B093030008000000000000000093030008F5
S315080001C093030008930300089303000893030008A9
S315080001D0930300089303000800F002F800F05CF8A7
S315080001E00AA090E8000C82448344AAF10107DA4584
S315080001F001D100F051F8AFF2090EBAE80F0013F07A
S31508000200010F18BFFB1A43F001031847AC1D010084
S31508000210CC1D01000A444FF0000C10F8013B13F006
S31508000220070408BF10F8014B1D1108BF10F8015B41
S31508000230641E05D010F8016B641E01F8016BF9D134
S3150800024013F0080F1EBF10F8014BAD1C0C1B09D18B
S315080002506D1E58BF01F801CBFAD505E014F8016BFD
S3150800026001F8016B6D1EF9D59142D6D3704700008F
S315080002700023002400250026103A28BF78C1FBD8A1
S31508000280520728BF30C148BF0B6070471FB511F031
S31508000290D1FD1FBD10B510BD00F020FA1146FFF7BD
S315080002A0F5FF0CF09DFF00F03EFA03B4FFF7F2FFEE
S315080002B003BC00F045FA00002C4B19680868B0E842
S315080002C0F04F80F30988BFF36F8F4FF0000080F37B
S315080002D0118870470000000008480068006880F32D
S315080002E008884FF0000080F3148862B661B6BFF341
S315080002F04F8FBFF36F8F00DF00BF00BF08ED00E030
S31508000300DFF80C00016841F470010160704700BF16
S3150800031088ED00E0EFF30980BFF36F8F134B1A687F
S315080003201EF0100F08BF20ED108A20E9F04F10606C
S3150800033009B44FF0500080F31188BFF34F8FBFF315
S315080003406F8F0EF04FFD4FF0000080F3118809BC47
S3150800035019680868B0E8F04F1EF0100F08BFB0EC37
S31508000360108A80F30988BFF36F8F70473800002022
S31508000370EFF30580704700000948804709480047A1
S31508000380FEE7FEE7FEE7FEE7FEE7FEE7FEE7FEE737
S31508000390FEE7FEE704480549054A064B7047000094
S315080003A085B00008D9010008B0CC0020B0D20020E2
S315080003B0B0CE0020B0CE002053EA020C00F06980CF
S315080003C02DE9F04B4FF00006002B1FBFB3FA83F55B
S315080003D003FA05F424FA05F65E4012BF1643B2FA8C
S315080003E082F502FA05F4C5F120051EBF22FA05FCBE
S315080003F044EA0C04203556EA044C4FEA144418BF64
S31508000400641C4FF000084FF00009904271EB030C92
S3150800041039D3002919BFB1FA81F701FA07F6B0FAFC
S3150800042080F700FA07F6C7F120071EBF20FA07FC77
S3150800043046EA0C062037B6FBF4FCA7EB0507103F87
S3150800044007F01F0BCBF120060CFA0BFB2CFA06F66D
S3150800045044BFB3460026202FA4BF5E464FF0000BCC
S315080004605BEA060C08BF4FF0010B19EB0B09ABFB57
S31508000470027C48EB0608C01B06FB02CC0BFB03CC30
S3150800048071EB0C01C1E70B46024641464846BDE8FA
S31508000490F08B13B54FF000004FF00001AFF300806A
S315080004A0BDE81C40704740EA010310B59B070FD111
S315080004B0042A0DD310C808C9121F9C42F8D020BAC6
S315080004C019BA884201D9012010BD4FF0FF3010BD7E
S315080004D01AB1D30703D0521C07E0002010BD10F84C
S315080004E0013B11F8014B1B1B07D110F8013B11F812
S315080004F0014B1B1B01D1921EF1D1184610BD40EAD3
S315080005000103024630B59B0710D14FF0013400E0D5
S3150800051008C208C91D1B9D4315EAC41FF8D013F06D
S31508000520FF0102F8011B0DD01B0AF8E711F8013B81
S31508000530002B02F8013B05D011F8013B002B02F80D
S31508000540013BF3D130BD032A40F2308010F0030C92
S3150800055000F0158011F8013BBCF1020F624498BF08
S3150800056011F801CB00F8013B38BF11F8013BA2F1A5
S31508000570040298BF00F801CB38BF00F8013B11F020
S31508000580030300F02580083AC0F0088051F8043BC0
S31508000590083A51F804CBA0E80810F5E7121D5CBF2D
S315080005A051F8043B40F8043BAFF30080D20724BF60
S315080005B011F8013B11F801CB48BF11F8012B24BFF4
S315080005C000F8013B00F801CB48BF00F8012B704743
S315080005D010B5203AC0F00B80B1E81850203AA0E8D0
S315080005E01850B1E81850A0E81850BFF4F5AF5FEA04
S315080005F0027C24BFB1E81850A0E8185044BF18C9B7
S3150800060018C0BDE810405FEA827C24BF51F8043B5D
S3150800061040F8043B08BF7047D20728BF31F8023BB1
S3150800062048BF11F8012B28BF20F8023B48BF00F845
S31508000630012B704702F0FF0343EA032242EA024213
S3150800064000F002B84FF000020429C0F0128010F042
S31508000650030C00F01B80CCF1040CBCF1020F18BF90
S3150800066000F8012BA8BF20F8022BA1EB0C0100F023
S315080006700DB85FEAC17C24BF00F8012B00F8012BF6
S3150800068048BF00F8012B70474FF0000200B513462B
S3150800069094469646203922BFA0E80C50A0E80C5094
S315080006A0B1F12001BFF4F7AF090728BFA0E80C5045
S315080006B048BF0CC05DF804EB890028BF40F8042B3E
S315080006C008BF704748BF20F8022B11F0804F18BFAB
S315080006D000F8012B7047704770477047754600F061
S315080006E02BF8AE4605006946534620F007008546B6
S315080006F018B020B5FFF74EFEBDE820404FF00006C3
S315080007004FF000074FF000084FF0000B21F00701EB
S31508000710AC46ACE8C009ACE8C009ACE8C009ACE82E
S31508000720C0098D46704710B50446AFF300802046D1
S31508000730BDE81040FFF7B9BD004870474CCC002013
S3150800074001491820ABBEFEE72600020070470000EC
S3150800075010B518210148FFF797FF10BDF45D00207A
S31508000760F0B504460D461046002114E0675C80EAA1
S31508000770072000260CE000F400471FB183EA400773
S31508000780B8B203E04FF6FF7707EA4000771CFEB2DF
S31508000790082EF0D3491CA942E8D3F0BD0146034808
S315080007A0814201D1012070470020FCE7FC5F002050
S315080007B0014609B1012070470020FCE72DE9FE43F8
S315080007C081460E46174698460A9D01203349087009
S315080007D0084646808780C580FF2008720020C860CA
S315080007E0B9F1000F03D0484602F0B3FD00E000203F
S315080007F02A490861002048613146484600F06FFAE8
S315080008000446C4B12146484600F086F938B1484640
S3150800081000F05AF93146484600F061FA04463B466C
S31508000820324601214846CDE9005400F08FF914B14B
S315080008300020BDE8FE83642010233A463146CDE900
S3150800084000850290484602F04DFF0446CCB1214689
S31508000850484600F061F9A0B1484600F035F931463E
S31508000860484600F03CFA58B9642010233A46314607
S31508000870CDE900850290484602F034FF044600E0C0
S3150800088002243B46324601214846CDE9005400F091
S315080008905DF90CB90120CCE70020CAE7F45D002019
S315080008A0024600230AB900207047002104E0505C84
S315080008B0184483B2481CC1B21E29F8D31846F3E778
S315080008C001464FF6FF7000EA411070472DE9F041E6
S315080008D088B006460D4600271DB9002008B0BDE8B9
S315080008E0F081012419E026B16946204600F0B4F8E3
S315080008F003E06946204600F0A3F88046B8F1000FE9
S3150800090001D10020EAE7E81920226946FFF71BFE15
S3150800091007F1200087B2601C84B2082CE3D30120BB
S31508000920DCE72DE9F84380460D4616461C46404648
S31508000930FFF73EFF20B11EB1B5F5805F00DA14B9A6
S315080009400020BDE8F8832819B0F5805F01D900209A
S31508000950F7E715E0402C01D9402000E0204607467D
S3150800096033462A46A02140460097FFF727FF08B9D5
S315080009700020E6E7E81985B23E44E01B84B200BFD2
S31508000980002CE7D10120DCE770B504460D46164673
S3150800099033462A4621460248FFF7C3FF70BD0000CA
S315080009A0FC5F002070B504460D46164633462A46B7
S315080009B021460248FFF7B5FF70BD000050600020D1
S315080009C02DE9F04106460C4615460DB1802C02DB92
S315080009D00020BDE8F0814FF6FF7000EA44172EB1FB
S315080009E0202229463846FFF7DDFFF2E7202229466E
S315080009F03846FFF7C9FFECE7F8B506460D46144634
S31508000A003046FFF7D5FE10B10CB1802D01DB002072
S31508000A10F8BD2846FFF754FF0746202023463A46E6
S31508000A20A02100903046FFF7C9FE08B90020EFE77D
S31508000A30204600F041F908B90020E9E70120E7E778
S31508000A4070B504460D462A4621460248FFF7D4FFEC
S31508000A5070BD0000FC5F002070B504460D462A46AE
S31508000A6021460248FFF7C8FF70BD0000506000200D
S31508000A7038B505460C461CB12846FFF799FE08B955
S31508000A80012038BD10202346C201B0210090284617
S31508000A90FFF794FE08B90220F3E70020F1E700000B
S31508000AA010B5044621460248FFF7E2FF10BD0000D4
S31508000AB0FC5F002010B5044621460248FFF7D8FF20
S31508000AC010BD00005060002010B504462046FFF710
S31508000AD06FFE00B910BD2046FFF760FE28B10C482E
S31508000AE002F016FC07F0DCF80DE00A48844204D14F
S31508000AF002F00EFC07F0F2F805E0204602F008FCCA
S31508000B00204602F02BFC022002F03AF900BFE1E78A
S31508000B10FC5F00205060002070B506460C46304643
S31508000B20FFF746FE08B9002070BD304602F00EFCFD
S31508000B300546022C01D0032C01D10120F4E705F06B
S31508000B40200008B10120EFE70020EDE72DE9F04786
S31508000B5004460D4616461F46DDE908890C48057009
S31508000B6046808780A0F8068080F808901CB1204649
S31508000B7002F0ECFB00E000200549C8601CB12046E5
S31508000B8002F0E7FB00E0002001494861BDE8F08774
S31508000B90F45D00202DE9F04781460C4614B9012082
S31508000BA0BDE8F08720212046FFF74CFD384A002192
S31508000BB04846FFF705FF08B90220F1E7344800F078
S31508000BC07BF808B90320EBE73148016821614068E2
S31508000BD06061B9F1000F05D02046FFF76BFF38B109
S31508000BE00420DDE72046FFF75BFF08B10420D7E7BE
S31508000BF028494846FFF76AFE08B90520D0E71022BB
S31508000C0021462548FFF79FFCE0222249224810305A
S31508000C10FFF799FC41F221034FF6FF72F0211E48B7
S31508000C20FFF79EFD054648F205034FF6FF72F021D1
S31508000C301948FFF795FD064643F665534FF6FF72CA
S31508000C40F0211548FFF78CFD07464AF297034FF641
S31508000C50FF72F0211048FFF783FD804628122076A0
S31508000C6065763112A176E6763912217767774FEAEB
S31508000C702821A17784F81F80082204F1180104F1BD
S31508000C801000FFF710FC08B1062089E7002087E767
S31508000C900C5E00202C5E00200C5F002010B5044678
S31508000CA021460020FFF776FF10BD10B50446214601
S31508000CB00120FFF76FFF10BD70B504460CB9002080
S31508000CC070BD2046FFF7ECFD0546E07FA17F40EAB0
S31508000CD00126B54201D10120F2E70020F0E770B500
S31508000CE004460D462046FFF763FD08B9012070BD8E
S31508000CF0642303222946204602F018FCF7E710B5BC
S31508000D00044609F071FF10BD08B50EF01BFF0090F0
S31508000D1040F2DC500DF002FF0AF008FB00BF01218B
S31508000D2068460DF02DFF1448046821E0607AF0B19A
S31508000D30A06AE0B12068D0B16068401C6060D4E960
S31508000D400010884213D3002060600121204600F07D
S31508000D5045F90020A16A88470021204600F03EF99F
S31508000D60207A20B100206072204600F097F9E46AE4
S31508000D70002CD4D0DAE70000880000201CB5124801
S31508000D80006800B11CBD1048032100234FF480629F
S31508000D90CDE900100DA10F480EF034FE04460E48AA
S31508000DA00460012C01D1012000E0002050B900BFE9
S31508000DB0502080F31188BFF34F8FBFF36F8F00BFAA
S31508000DC000BFFEE700BFDDE78C00002041707054CD
S31508000DD061736B00090D000894000020F0B5044605
S31508000DE0002017A504B101B9F0BD5AB105E012F803
S31508000DF001CB0646401C04F806C0167816B1461CF8
S31508000E008E42F4D35BB105E013F801CB0646401CCD
S31508000E1004F806C01E7816B1461C8E42F4D305E0C7
S31508000E2015F801CB0646401C04F806C02E7816B104
S31508000E30461C8E42F4D30026265400BFD4E7000091
S31508000E4020402025753A253032752E253033752EEB
S31508000E50253033750000000010B50948007800F009
S31508000E60010018B107480068406800B910BD064877
S31508000E70006818B9044905A010F03EFB00BFF5E765
S31508000E80C8080020C008002090000020536F667430
S31508000E905461736B000000002DE9FF4F87B04FF0D7
S31508000EA0000AD346002005900490079828B10898B0
S31508000EB018B1099808B10A9818B900200BB0BDE80E
S31508000EC0F08F4248D0F804A0414800684069504570
S31508000ED007D93F480068C068401C3D490968C86092
S31508000EE000E000BF3A480068C0F814A0002098B98E
S31508000EF037480068D0F80CB0002068B93448006854
S31508000F0080680490002038B9314800684068059028
S31508000F10002008B9049808B90020CFE7059810B949
S31508000F200020012101E0002105988046894600221B
S31508000F304046ABFB003C02FB08C00BFB090013EB69
S31508000F400A0440EB02052349A4FB010305FB013112
S31508000F5004FB0211CDE900010023049AFFF72CFADD
S31508000F60CDE902011C4A0023DDE90201FFF724FA54
S31508000F7007990860184A0023DDE90201FFF71CFA01
S31508000F8016461F46134A002330463946FFF714FA19
S31508000F90089908600F4A002330463946FFF70CFACD
S31508000FA016461F464FF47A72002330463946FFF735
S31508000FB003FA099908604FF47A72002330463946D5
S31508000FC0FFF7FAF90A980260012077E7001000E0B7
S31508000FD0D008002040420F000087930370B50446EE
S31508000FE00D4604B970BD0DB1206900E0606901467F
S31508000FF0204600F00FF800BFF4E710B5044604B920
S3150800100010BD204600F082F82046A16900F002F8DB
S3150800101000BFF5E770B588B004460D462E46002099
S3150800102007900690059004900CB908B070BD184852
S31508001030007800F0010018B116480068406800B949
S31508001040F3E7204600F062F8FFF706FF06B9ECE77B
S3150800105011480068D0B104AB05AA06A907A8FFF78E
S315080010601BFF68B1DDE905210498CDE9001202905D
S3150800107032460948079B01689C200FF0FDFC05E0F5
S3150800108032460548016898200FF0C0FB00BFCCE740
S31508001090C8080020C00800209000002010B50446AB
S315080010A004B910BD204600F031F82046616AFFF702
S315080010B0B1FF00BFF5E710B5044604B910BD2046D8
S315080010C000F024F82046E169FFF7A4FF00BFF5E722
S315080010D070B596B005460E461446002015901DB10B
S315080010E016B10CB1206808B116B070BD33462A4651
S315080010F0502101A8FFF772FE15A901A810F0FCF906
S3150800110008B91598206000BFEEE7000010B5044640
S315080011106CB1E06858B1206950B1606940B1A06906
S3150800112030B1E06920B1206A10B1606A00B110BD23
S315080011301848007800F0010018B1174800684068A0
S3150800114000B9F4E7FFF788FE04F1180213A0E16876
S31508001150FFF7BEFF04F11C0212A0E168FFF7B8FF13
S3150800116004F1200211A0E168FFF7B2FF04F124029E
S3150800117010A0E168FFF7ACFF04F1100211A0E168C6
S31508001180FFF7A6FF04F1140210A0E168FFF7A0FF1D
S3150800119000BFCCE7C8080020C008002043524541DC
S315080011A054452000535441525420000053544F5084
S315080011B0200000004F4E4553484F545F53544F503C
S315080011C020000000424547494E200000454E442075
S315080011D00000000010B50BF09BFD10BD08B52A48AD
S315080011E0006800B329A3002269462748006805F06D
S315080011F0FFFE012816D19DF80000012807D19DF8A9
S315080012000100264908700020254908700AE09DF863
S315080012100000022806D19DF8020021490870002026
S315080012201E49087000BF1D48007880B11C48007828
S3150800123068B940201B49886164200DF06FFC4FF4A3
S315080012408000184988610020144908701BE014487A
S31508001250007888B11448007830B90120124908701E
S315080012604020104988610EE000200F4908704FF4AD
S3150800127080000C49886106E04FF4800009498861BE
S3150800128000200949087008BD9C0000204265657069
S315080012904D7367517565756500000000A100002053
S315080012A0A200002000000240A000002010B504465D
S315080012B0FFF794FF10BD000010B504A20321052016
S315080012C005F074FE0549086010BD000042656570AA
S315080012D04D73675175657565000000009C00002018
S315080012E000B587B0142102A8FFF7CEF900BF002089
S315080012F001908848006840F0010086490860084661
S31508001300006800F00100019000BF00BF00BF002088
S3150800131001900846006840F0020008600846006828
S3150800132000F00200019000BF00BF00BF002001903E
S315080013300846006840F0040008600846006800F0A7
S315080013400400019000BF00BF00BF002001900846BE
S31508001350006840F0080008600846006800F00800C9
S31508001360019000BF00BF00BF00200190084600683A
S3150800137040F0100008600846006800F01000019070
S3150800138000BF00BF00BF002001900846006840F07B
S31508001390800008600846006800F08000019000BFE1
S315080013A000BF012209155C4801F0A6FF4FF48060D2
S315080013B002900120039004900020059002A9564847
S315080013C001F096FE00224021544801F095FF402086
S315080013D002900120039004900020059002A94F482E
S315080013E001F086FE30200290112003900020049020
S315080013F00220059002A94A4801F07AFE4FF40050EF
S31508001400029011200390002004900220059002A962
S31508001410444801F06DFE4FF480500290112003906D
S31508001420002004900220059002A93E4801F060FEC3
S315080014301C200290002003900120049002A939483C
S3150800144001F056FE0320029000200390012004902C
S3150800145002A9344801F04CFE4FF480500290002057
S3150800146003900120049002A92D4801F041FE4FF493
S31508001470407002900120039004900020059002A974
S31508001480274801F035FE4FF4407002900120039082
S3150800149004900020059002A9204801F029FE0122A7
S315080014A0D103214801F028FF4FF4004002900120A3
S315080014B0039000200490059002A91B4801F018FE2D
S315080014C0022002904FF4041003900120049002A910
S315080014D0144801F00DFE4FF4806002904FF404109A
S315080014E003900120049002A90D4801F001FE002294
S315080014F00521072002F026FC072002F00FFC002237
S315080015000521282002F01EFC282002F007FC07B05F
S3150800151000BD0000303802400010024000000240C2
S3150800152000080240000C02400004024030B5ADB08D
S3150800153000250024982107A8FFF7A6F8182101A876
S31508001540FFF7A2F807A80BF03DFAC5B2062D01DA97
S315080015502DB030BD002494E007A8005DAA2872D1FA
S3150800156007A9201D085CEE286ED19DF82100FF28EA
S31508001570FAD1012008F0FEFD07A90819062201A9DB
S3150800158000F016FA9DF807000D2872D2DFE800F081
S31508001590710711242C30373E4D545D646B000120D1
S315080015A006F0B6FD4FF4077141F2504006F076F8A2
S315080015B05FE041F2504005F09BFE3548407810B197
S315080015C0182006F08DFD002006F0A2FD262006F064
S315080015D087FD06F07BFD4CE02E48407800B1B7E762
S315080015E0012006F0ADFD44E0002006F0A9FD40E02C
S315080015F02848007A10B1192006F072FD39E025480E
S31508001600007A10B11A2006F06BFD32E02148007A04
S3150800161050B120488079012803D11E2006F060FDCC
S3150800162002E01D2006F05CFD23E01A48007A10B19E
S31508001630182006F055FD1CE01648007A10B1152052
S3150800164006F04EFD15E01AE014E01248007A10B1D3
S31508001650132006F045FD0CE00E48007A10B116205E
S3150800166006F03EFD05E00B48007A10B106F02EFDA7
S3150800167000BF00BF182101A8FFF706F868E7601C3D
S31508001680C4B2681FA0423FF767AF00BF60E700001B
S31508001690BE5C0020645C002070B5C6B0002500243E
S315080016A04FF4807106A8FEF7EFFF18216846FEF78B
S315080016B0EBFF002606A80BF021F9C5B20B2D01DABF
S315080016C046B070BD00245AE006A8005DAA2854D189
S315080016D006A908190A2100F079F9064606A904F1AF
S315080016E00A00095C06AA401C105C01EB0020B04207
S315080016F043D106A908190C22694600F059F99DF844
S31508001700070020B90020214981F84D0017E0012083
S315080017101E4981F84D001E488079012803D108200A
S3150800172006F0E6FC06E01A488079022802D109206C
S3150800173006F0DEFC002007F02FFF06F01BFD9DF8E3
S315080017400100062809D2DFE800F0080304050607A9
S3150800175004E003E002E000BF00E000BF00BF002095
S315080017600A4981F83600012081F835000F216846BC
S31508001770FEF78AFF04F10C00C4B2601CC4B2A5F1DE
S315080017800B00A042A0DC00BF9AE70000640400201A
S31508001790645C0020FEB504460D4616461F46134AED
S315080017A007CA8DE807000B2168460BF0F7F80220F8
S315080017B08DF80600052000F073FA0B2168460BF039
S315080017C0EDF8052000F06CFA02208DF801000B21D7
S315080017D068460BF0E3F8052000F062FA01208DF860
S315080017E006000B2168460BF0D9F8FEBDC01E01089D
S315080017F070B504460D462946204601F06BFD70BDBE
S3150800180070B504460D462946204601F063FD70BDB5
S3150800181070B504460D462946204601F05BFD70BDAD
S3150800182070B504460D46164632462946204601F04E
S3150800183063FD70BD70B50546284600F023F80446DA
S315080018400CB9012070BD204603F0F4F8FAE770B52C
S315080018500546284600F016F804460CB9012070BD66
S31508001860204603F0B9F9FAE770B50546284600F0B0
S3150800187009F804460CB9012070BD204603F067F943
S31508001880FAE7000001460B2917D2DFE801F0160631
S31508001890080A0C0E10121616140009487047094853
S315080018A0FCE70948FAE70948F8E70948F6E7094866
S315080018B0F4E70948F2E70948F0E70020EEE70000F8
S315080018C0D8530020205400206854002000530020DC
S315080018D048530020B0540020905300204055002063
S315080018E070B506460D463046FFF7CCFF04460CB9E0
S315080018F0012070BD6560204603F002FBF9E72DE97B
S31508001900F04105460E4617462846FFF7BBFF044634
S3150800191014B90120BDE8F0813A463146204603F065
S31508001920F9FFF7E700B503461846FFF7ABFF02468F
S315080019300AB1D06B08B9002000BDD06B00684068BA
S31508001940FAE72DE9F04105460E4617469846284619
S31508001950FFF798FF044614B90120BDE8F081434615
S315080019603A463146204603F0EDFFF6E700BFFEE7AC
S3150800197010B500F057F810BD10B514210348FEF74E
S3150800198083FE14210248FEF77FFE10BD805C00200E
S31508001990945C002010B532210348FEF753FE32212D
S315080019A00248FEF74FFE10BDF05B0020225C0020C7
S315080019B010B503460C46002100BF03E0585C60548E
S315080019C0481C81B29142F9DB104610BD70B502463B
S315080019D00D46FF21FF23002409E012F8010B80EAD7
S315080019E003040748005D80EA01030648015D281ED6
S315080019F0A5F10106B5B2F0D143EA012070BD000099
S31508001A00800100208002002010B503460C46002104
S31508001A1000BF02E06354481C81B29142FADB1046CB
S31508001A2010BD000010B50E210348FEF72DFE034831
S31508001A3000210160416010BD545C0020F8030020BD
S31508001A4035494978012900D17047A0F13A0108299A
S31508001A505FD2DFE801F0042546515A5E052600BF2D
S31508001A602D490978012900D1EEE72B49C9790129C1
S31508001A7003D02949497A032900D1E5E70121264AF5
S31508001A80D17111468979012902D1244A917006E05B
S31508001A9021498979022902D10121214A917038E028
S31508001AA000BF1D490978012900D1CDE71A49C9792E
S31508001AB0022903D01849497A032900D1C4E702212B
S31508001AC0154AD17111468979012903D10221134A90
S31508001AD0917005E010498979022901D1104A91705F
S31508001AE017E00D490978012900D1ADE70A49497A75
S31508001AF0032900D1A8E700BF07490978012900D1C1
S31508001B00A2E70121044A117003E00021024A11707C
S31508001B1000BF00BF00BF97E7645C0020805C002020
S31508001B20945C002010B5024800F04AFF10BD000082
S31508001B30E855002010B5024800F042FF10BD00002D
S31508001B406857002010B5024800F03AFF10BD0000A3
S31508001B508855002010B5024800F032FF10BD00007D
S31508001B604856002010B5024800F02AFF10BD0000B4
S31508001B700857002010B5024800F022FF10BD0000EB
S31508001B80C857002010B5024800F01AFF10BD000023
S31508001B90A85600200146087810381823B0FBF3F23F
S31508001BA00848805CC865032A05D908686FF30900E8
S31508001BB0001D886503E008686FF309008865886D6D
S31508001BC0704700003E1E0108014600208A6A8B699C
S31508001BD0CBB932B1012A0DD0022A03D0032A10D17B
S31508001BE00EE000BFCB6A03F08073B3F1807F00D1AB
S31508001BF0012007E0CB6AB3F1C07F00D1012001E0E4
S31508001C0000E000BF34E08B69B3F5005F1AD132B14A
S31508001C10012A07D0022A03D0032A11D10AE000BFFD
S31508001C2001200EE0CB6A03F08073B3F1807F00D108
S31508001C30012006E0CB6AB3F1C07F00D1012000E0A5
S31508001C4000BF15E032B1012A05D0022A04D0032AC2
S31508001C500CD103E000BF00BF012008E0CB6A03F007
S31508001C608073B3F1807F00D1012000E000BF00BF80
S31508001C70704730B50468246824F4802405682C600D
S31508001C80046863608468402C04D10468A260046810
S31508001C90E16003E00468A1600468E26030BD704753
S31508001CA070B50446002507E005F05EF940F2DE301F
S31508001CB000F006F8681C85B2A542F5DB70BD000089
S31508001CC000210022054B1B685A6203E0034A12688A
S31508001CD0526A91B28142F9DB70470000285200200F
S31508001CE039490978012903D037494978012900D1AA
S31508001CF0704722282FD008DC0B280FD00C2829D0B3
S31508001D000D2842D021285BD109E023283ED035286A
S31508001D1006D0362820D0372852D138E000BF00BF79
S31508001D2029498979012908D10021284A9181264A19
S31508001D30518226498988D1810BE02349897902296C
S31508001D4007D10021224A91811F4A51822049898858
S31508001D50D18135E000BF00BF1B498979012907D128
S31508001D601A4A9181184A51821849C988D1810BE0CB
S31508001D7015498979022907D10121154A9181124A03
S31508001D8051821349C988D1811AE000BF00BF0E49A4
S31508001D908979012908D102210C4A91810A4A51827E
S31508001DA00A490989D1810AE007498979022906D1B0
S31508001DB0074A9181044A518205490989D18100BFA0
S31508001DC000BF00BF94E70000645C0020805C002030
S31508001DD0945C002010B504F0F1FF10BD70B50646FE
S31508001DE00C46154608E03046721C96B204F06CFFA5
S31508001DF004F8010B681E85B2002DF4D170BD70B5CC
S31508001E0006460C46154608E014F8011B3046731CB6
S31508001E109EB204F088FF681E85B2002DF4D170BD0D
S31508001E2010B54FF4806001F055F910BD10B50220C9
S31508001E3001F050F910BD10B5102001F04BF910BD96
S31508001E4010B5402001F046F910BD72B600BFFEE796
S31508001E5010B5002201B909E0012901D10A0205E0FD
S31508001E60022901D10A0201E04FF440720E4B1B68A9
S31508001E7023F440730C4C236023461B6813432360EA
S31508001E8023461B6823F07803236023461B68022435
S31508001E9044EAC0042343044C236023461B6843F4E6
S31508001EA08033236010BD0000103C02401C480068C7
S31508001EB000F40070B0B11A48006820F400701849A0
S31508001EC0086000BF0846006840F4006008600846DD
S31508001ED0006820F40060086000BF0846006840F407
S31508001EE0007008600E48006800F48060B0B10C48C5
S31508001EF0006820F480600A49086000BF0846006848
S31508001F0040F4805008600846006820F48050086055
S31508001F1000BF0846006840F480600860704700000B
S31508001F20003C02400A4A126822F44072084B1A60C2
S31508001F301A46126842F004021A601A4612684FF4EA
S31508001F40803343EA00231A43014B1A6070470000A6
S31508001F50103C0240074A126822F44072054B1A6088
S31508001F601A4612681A601A46126842F001021A6086
S31508001F7001707047103C024010B50A49096821F4FF
S31508001F804071084C21602146096841F4407121607E
S31508001F902146096841F0010121600260BFF36F8F95
S31508001FA0436010BD103C0240084A126822F4407291
S31508001FB0064B1A601A46126842F480721A601A466C
S31508001FC0126842F001021A6001807047103C024014
S31508001FD0084A126822F44072064B1A601A461268BA
S31508001FE042F400721A601A46126842F001021A6038
S31508001FF001607047103C02402A48006800F0100053
S3150800200040B12948C06940F010002749C86110202E
S31508002010244908602348006800F0200040B122489F
S31508002020C06940F008002049C86120201D490860A1
S315080020301C48006800F0400040B11B48C06940F0E9
S3150800204004001949C8614020164908601548006807
S3150800205000F0800040B11448C06940F002001249FF
S31508002060C86180200F4908600E48006800F4807037
S3150800207048B10D48C06940F001000B49C8614FF4EA
S315080020808070084908600748006800F0020040B1FF
S315080020900548C06940F020000349C861022001498B
S315080020A0086070470C3C0240EC08002070B50446F6
S315080020B0002500201449C86101F024F9054609E005
S315080020C0601C38B124B101F01DF9401BA04201D9AA
S315080020D0032070BD0D48006800F480300028EFD159
S315080020E00A48006800F0010010B10120074908609D
S315080020F00648006800F4F97018B1FFF77DFF012063
S31508002100E7E70020E5E70000EC0800200C3C024069
S3150800211001461C48814201D2002070471A48814274
S3150800212001D20120F9E71948814201D20220F4E7D9
S315080021301748814201D20320EFE71648814201D2AF
S315080021400420EAE71448814201D20520E5E713484E
S31508002150814201D20620E0E71148814201D20720D8
S31508002160DBE71048814201D20820D6E70E488142B3
S3150800217001D20920D1E70D48814201D20A20CCE7D5
S315080021800B20CAE7004000080080000800C00008CD
S315080021900000010800000208000004080000060804
S315080021A00000080800000A0800000C0800000E08D5
S315080021B070B503460C46154600221E4600BF07E0CA
S315080021C0304607F063FD44F82200361D501C82B2E3
S315080021D0AA42F5DB70BD2DE9F04F87B00446884664
S315080021E0914600200190254604EB09068246009098
S315080021F000278346B5F1006F02D3B6F1016F04D309
S315080022004FF0FF3007B0BDE8F08F00F079FE2846A2
S31508002210FFF77EFF82463046FFF77AFFA0EB0A00FB
S31508002220401C009001200390002002900220069096
S31508002230CDF810A00098059001A902A800F0B4FDF9
S3150800224010B16FF00100DDE72F460FE058F82BC0FC
S31508002250624600233946022000F006FE18B90BF143
S31508002260010B3F1D02E06FF00200CBE7B742EDD34A
S3150800227000F0F0FD0020C5E71FB504463F4800689A
S3150800228000287AD03EA3002269463C48006804F03C
S31508002290AFFE012805D19DF8000010B900203C4981
S315080022A008709DF80000012866D1394908709DF824
S315080022B00100012804D0022827D003285AD158E063
S315080022C0BDF8020033490988081A142813D90120D1
S315080022D02F49C871C870BDF80600BDF80210401A2B
S315080022E02C4A1288511A91FBF0F02B49C9894843A8
S315080022F02949888108E02648C07828B10020244961
S31508002300C871C8702449888135E0BDF802002149A2
S315080023100988081A142803D901201D49C87105E03F
S315080023201B48C07910B100201949C871BDF80400CE
S3150800233018490988081A142812D901201449C8709E
S31508002340BDF80600BDF80410401A124A1288511A40
S3150800235091FBF0F01049C98948430F49888106E086
S315080023600B48C078012802D100200949C87002E04C
S3150800237003E000E000BF00BF00BF1FBDD40000207F
S31508002380466F6F744D73675175657565000000007B
S31508002390545C0020CC000020645C002070B5C4B0FA
S315080023A0064600254FF4807104A8FEF76DF904A8C7
S315080023B00AF0A2FB05460A2D1DDAD6480078C0B1F8
S315080023C0D5480078401CD449087008460078322859
S315080023D00FDD00200870CF490870D0490870D04931
S315080023E008700E226846FEF7AEF89DE80F0000F06A
S315080023F0B9F944B070BD002484E104F10900A8428B
S3150800240000DB84E104A8005DFE2833D104A9601C22
S31508002410085CEF28F9D10020BF490870E01DA842E2
S3150800242029DA04A9A01C085CB62824D1E01C085C9B
S31508002430C12820D1201D085C01281CD1601D085C1C
S31508002440012818D1E01D095C04AAA01D105C41EA08
S315080024500020B4490880AF4800780028D5D1AF4895
S3150800246000780028D1D10821AF480AF095FB012051
S31508002470AA49087044E1E01DA8421EDA04A9A01C76
S31508002480085CD02819D1E01C085CB42815D1201D99
S31508002490085CB52811D1601D085CCD280DD1E01D5A
S315080024A0095C04AAA01D105C41EA00209C494880EA
S315080024B008219E480AF070FB9BE7E01DA84228DA2F
S315080024C004A9A01C085CD02823D1E01C085CB42809
S315080024D01FD1201D085CB8281BD1601D085CDF28A9
S315080024E017D1E01D095C04AAA01D105C41EA002072
S315080024F08B49C88001208749087089490870487047
S315080025000E226846FEF71FF89DE80F0000F02AF92C
S31508002510F6E0601DA842ADDA04A9A01C085CBB2839
S31508002520A8D1E01C085CAA28A4D104F10900A84295
S315080025307EDA201D085CDD287AD1601D085C01283A
S315080025403DD17448007860BB04F10D00A84228DA32
S31508002550001F095C04AA401E105C41EA002070496D
S31508002560C88004A904F10B00095C401E105C41EA0E
S3150800257000206B49888004A904F10D00095C401EFF
S31508002580105C41EA00206649488001200870022054
S3150800259048700E226846FDF7D6FF9DE80F0000F04A
S315080025A0E1F8E01DA84209DA04A9095C04AAA01DFD
S315080025B0105C41EA00205E490880A1E019E704F1B1
S315080025C00900A842A4DA04A9601D085C022863D1A0
S315080025D0E01D095C04AAA01D105C41EA00205549CB
S315080025E0088004A904F10900095C401E105C41EA50
S315080025F00020514908804748007800284CD104F14A
S315080026001500A84249DA04A90A38095C401E105C7C
S3150800261041EA00204249C88004A904F10D00095C7A
S31508002620401E105C41EA00203D49888004A900E06C
S3150800263034E004F10F00095C401E105C41EA0020FA
S315080026403749488004A904F11100095C401E105C52
S3150800265041EA00203249888104A904F11300095C83
S31508002660401E105C41EA00202D49488104A904F166
S315080026701500095C401E105C41EA002028490881C3
S3150800268001200870032048700E226846FDF75BFF9C
S315080026909DE80F0000F066F832E0AAE6E01DA842C1
S315080026A02EDA04A9201D085CCC2829D1E01D085C77
S315080026B0072823D2DFE800F02204090E13181D00AC
S315080026C00221012007F078FD19E00421012007F016
S315080026D073FD14E00621012007F06EFD0FE00321CB
S315080026E0012007F069FD0AE00121084607F064FDAC
S315080026F005E00521012007F05FFD00E000BF00BFEF
S31508002700601CC4B2A5F10A00A042BFF676AE00BFAF
S3150800271000BF6EE6D8000020D9000020DA000020AD
S31508002720A8590020CC000020C2000020B8000020D4
S31508002730CE000020D0000020D200002010B504A250
S315080027400E21052004F032FC0549086010BD000082
S31508002750466F6F744D7367517565756500000000A7
S31508002760D40000201FB50648006800B91FBD05A3A0
S31508002770002269460248006804F058FC00BFF5E7E5
S31508002780D4000020466F6F744D7367517565756583
S315080027900000000002460A21314B5B78012B03D06A
S315080027A02F4B9B7A012B00D070471B2A06D01C2A78
S315080027B02BD02F2A03D0302A4ED127E000BF284B32
S315080027C09B79012B0ED1264B1B8A0B44D8B2254B7D
S315080027D01B79834201DA234B1879234B5881204B06
S315080027E0188211E01E4B9B79022B0DD11C4B1B8ABC
S315080027F00B44D8B21D4B1B79834201DA1B4B18795F
S315080028001B4B5881164B188226E000BF144B9B7948
S31508002810012B0ED1124B1B8A5B1AD8B2114B5B796E
S31508002820834201DD0F4B58790F4B58810C4B1882A8
S3150800283011E00B4B9B79022B0DD1094B1B8A5B1AB6
S31508002840D8B20A4B5B79834201DA084B5879084BB0
S315080028505881034B188200BF00BF00BFA4E70000E1
S31508002860645C0020F05B0020805C0020225C002075
S31508002870945C002070B50446A56D00F043FD06463D
S3150800288094F83500022808D08020606500BF002033
S3150800289084F8340000BF012070BD2068006820F06D
S315080028A01600216808602068406920F080002168C9
S315080028B04861206C08B9A06C28B12068006820F02F
S315080028C00800216808602068006820F00100216877
S315080028D0086010E000F016FD801B05280BD92020A3
S315080028E06065032084F8350000BF002084F83400B2
S315080028F000BF0320D0E72068006800F00100002828
S31508002900E8D194F85C103F208840A860012084F83C
S31508002910350000BF002084F8340000BF00BFBBE7C5
S31508002920014691F83500022803D080204865012029
S315080029307047052081F835000868006820F0010016
S315080029400A6810600020F3E770B504460CB9012048
S3150800295070BD94F83500022800D1F9E720680068B0
S3150800296020F00100216808600020216808602168BD
S315080029704860216888602168C8602168086121204C
S31508002980216848612046FFF705F905460020E063FF
S3150800299020646064A064E064206594F85C103F20BD
S315080029A08840A8600020606584F8350000BF84F878
S315080029B0340000BF00BFCBE70146486D70470000F2
S315080029C0F8B50446002000908C4800684FF416516C
S315080029D0B0FBF1F7A56D2E6894F85C1008208840C6
S315080029E0304098B12068006800F0040070B1206893
S315080029F0006820F004002168086094F85C1008203C
S31508002A008840A860606D40F00100606594F85C102D
S31508002A1001208840304068B12068406900F0800095
S31508002A2040B194F85C1001208840A860606D40F0C1
S31508002A300200606594F85C1004208840304068B154
S31508002A402068006800F0020040B194F85C10042089
S31508002A508840A860606D40F00400606594F85C10DA
S31508002A6010208840304078B32068006800F00800DD
S31508002A7050B394F85C1010208840A860206800685D
S31508002A8000F4802080B12068006800F4002028B98E
S31508002A90206CC8B12046216C884715E0A06C98B117
S31508002AA02046A16C88470FE02068006800F4807013
S31508002AB028B92068006820F0080021680860206CA2
S31508002AC010B12046216C884794F85C102020884075
S31508002AD03040002865D02068006800F01000002803
S31508002AE05FD094F85C1020208840A86094F83500E0
S31508002AF0052828D12068006820F01600216808609B
S31508002B002068406920F0800021684861206C08B977
S31508002B10A06C28B12068006820F0080021680860C9
S31508002B2094F85C103F208840A860012084F835009E
S31508002B3000BF002084F8340000BF206D10B1204685
S31508002B40216D8847F8BD2068006800F4802080B1B0
S31508002B502068006800F4002028B9606C10B120468F
S31508002B60616C88471DE0E06BD8B12046E16B884769
S31508002B7017E02068006800F4807068B9206800686B
S31508002B8020F0100021680860012084F8350000BF95
S31508002B90002084F8340000BFE06B10B12046E16BDA
S31508002BA08847606D38B3606D00F00100F0B105200C
S31508002BB084F835002068006820F001002168086064
S31508002BC000BF0098401C0090B84200D905E0206874
S31508002BD0006800F001000028F3D100BF012084F846
S31508002BE0350000BF002084F8340000BFE06C10B147
S31508002BF02046E16C884700BFA4E700009800002043
S31508002C002DE9F0410446002500F07CFB074614B97F
S31508002C100120BDE8F081606A00B100BF022084F897
S31508002C20350000BF002084F8340000BF2068006823
S31508002C3020F00100216808600AE000F063FBC01B71
S31508002C40052805D920206065032084F83500E0E7CB
S31508002C502068006800F001000028EED120680568A9
S31508002C6021480540D4E901010843E1680843216980
S31508002C70084361690843A1690843E1690843216A71
S31508002C8008430543606A042803D1D4E90B010843C5
S31508002C900543206805602068456925F00705606AD0
S31508002CA00543606A04280DD1A06A0543E06A48B165
S31508002CB02046FEF789FF28B140206065012084F888
S31508002CC03500A6E7206845612046FEF763FF0646FD
S31508002CD094F85C103F208840B060002060650120B1
S31508002CE084F83500002094E73F8010E02DE9F0478E
S31508002CF004460D4616461F464FF00008D4F858906D
S31508002D0000BF94F83400012802D10220BDE8F087FC
S31508002D10012084F8340000BF94F83500012825D135
S31508002D20022084F83500002060653B463246294675
S31508002D302046FEF79EFF94F85C103F208840C9F8AD
S31508002D4008002068006840F0160021680860206CBA
S31508002D5028B12068006840F00800216808602068EB
S31508002D60006840F001002168086006E000BF002006
S31508002D7084F8340000BF4FF002084046C6E700005A
S31508002D8070B5044600F0BEFA06462546681C10B122
S31508002D9004480078054400BF00F0B4FA801BA84236
S31508002DA0FAD370BD080000202DE9F04104460E460E
S31508002DB00127002500BF2548007E012802D10220F0
S31508002DC0BDE8F08101202149087600BF4CF2503059
S31508002DD0FFF76CF90746002F31D1401E3060206896
S31508002DE001280FD1207C6168FFF79CF84CF250301F
S31508002DF0FFF75CF907461648006820F004001449F6
S31508002E0008601AE0A56812E0217C2846FFF720F83A
S31508002E104CF25030FFF74AF907460D48006820F093
S31508002E207A000B4908600FB1356005E06D1CD4E9DE
S31508002E3002100844A842E7D800BFFFF737F800BFDA
S31508002E4000200249087600BF3846B9E7EC0800209A
S31508002E50103C02400348006840F000400149086001
S31508002E6000207047103C02402DE9F04106460F4607
S31508002E7014461D464FF0010800BF1F48007E012872
S31508002E8002D10220BDE8F08101201B49087600BF67
S31508002E904CF25030FFF70AF98046B8F1000F23D1FB
S31508002EA026B9E1B23846FFF755F812E0012E04D1EB
S31508002EB0A1B23846FFF778F80BE0022E04D1214676
S31508002EC03846FFF785F804E022462B463846FFF7D2
S31508002ED053F84CF25030FFF7E9F880460748006887
S31508002EE020F001000549086000BF00200249087665
S31508002EF000BF4046C6E70000EC080020103C024030
S31508002F0000200949096801F0004159B10749064AF4
S31508002F100C3A1160064911600349096801F000413D
S31508002F2001B1012070470000103C024023016745AB
S31508002F30AB89EFCDF0B50C46002500220023002111
S31508002F408FE0012606FA01F504EA0502AA427DD1B8
S31508002F50464E8F0856F827308E07370F0F26BE4085
S31508002F603340434EB04201D100261EE0414EB042E6
S31508002F7001D1012619E0404EB04201D1022614E0E3
S31508002F803E4EB04201D103260FE03D4EB04201D17C
S31508002F9004260AE03B4EB04201D1052605E03A4E2A
S31508002FA0B04201D1062600E007268F073F0FBE4034
S31508002FB09E4224D1354E36689643344F3E603E1DB8
S31508002FC0366896433F1D3E60304E0C36366896434B
S31508002FD02E4F0C373E603E1F366896433F1F3E60B5
S31508002FE08E07370F0F2606FA07F3204E8F0856F876
S31508002FF027609E431D4F4FEA910C47F82C600668E0
S315080030004FEA410C032707FA0CF7BE430660CF08C0
S3150800301000F1200656F827604F074FEAD76C0F27AE
S3150800302007FA0CF7BE434FEAD10C00F1200747F820
S315080030302C60C6684FEA410C032707FA0CF7BE4313
S31508003040C660466801278F40BE4300E008E0466038
S3150800305086684FEA410C032707FA0CF7BE438660D9
S31508003060491C1029FFF46DAFF0BD00000838014077
S31508003070000002400004024000080240000C024022
S31508003080001002400014024000180240003C0140B3
S3150800309010B50446204607F059F9B4F5806F0BD0F1
S315080030A0B4F5006F11D10A48407808B9012000E04C
S315080030B000200749487009E00548007808B901204A
S315080030C000E000200249087000E000BF00BF10BD04
S315080030D08003002010B5044604480068204020B14B
S315080030E0024804602046FFF7D3FF10BD143C014098
S315080030F0F8B502460B460025002400200021D1E041
S31508003100012606FA01F51E6806EA0504AC4274D1E2
S315080031101E7906F00306012E04D01E7906F0030672
S31508003120022E13D190684F000326BE40B0434F00CD
S31508003130DE68BE4030439060506801268E40B0433A
S315080031401E79C6F300168E40304350601E7906F08D
S315080031500306032E09D0D0684F000326BE40B043AD
S315080031604F009E68BE403043D0601E7906F00306C5
S31508003170022E13D1CF0802F1200656F827004E0773
S31508003180F70E0F26BE40B0434F07FF0E1E69BE401E
S315080031903043CF0802F1200646F8270010684F0092
S315080031A00326BE40B0431E7906F003064F00BE4014
S315080031B0304310605E6806F44036002E71D000BFBA
S315080031C000260096394E366846F48046374F3E60EC
S315080031D03E46366806F48046009600BF00BF344E69
S315080031E08F0856F827008E07370F0F26BE40B043C4
S315080031F0304EB24202D100261FE052E02E4EB242B5
S3150800320001D1012619E02D4EB24201D1022614E061
S315080032102B4EB24201D103260FE02A4EB24201D10B
S3150800322004260AE0284EB24201D1052605E0274EBB
S31508003230B24201D1062600E007268F073F0FBE409F
S3150800324030431B4E8F0846F82700214E3068A043AE
S315080032505E6806F4801606B120431D4E3060361DA2
S315080032603068A0435E6806F4001606B12043184E7F
S31508003270361D3060164E361F3068A0435E6806F469
S31508003280003606B12043124E361F3060361F3068AE
S31508003290A0435E6806F4803606B120430C4E083E0D
S315080032A03060491C1029FFF42BAFF8BD44380240A2
S315080032B008380140000002400004024000080240AD
S315080032C0000C0240001002400014024000180240A0
S315080032D0083C0140024613690B400BB1012000E08F
S315080032E00020704710B5426921EA020302EA010488
S315080032F043EA0443836110BD0AB1816101E00B040E
S31508003300836170470148006870470000000000208C
S3150800331010B504460CB9012010BD242084F83D00E0
S315080033202068006820F0010021680860204600F047
S315080033305DFB0020206484F83D00206384F83E008D
S3150800334000BF84F83C0000BF00BFE5E70146086CF3
S315080033507047014691F83D007047000070B5044675
S315080033600CB9012070BD94F83D0028B9002084F8F6
S315080033703C00204600F070FB242084F83D002068BD
S31508003380006820F00100216808602068006840F4A1
S315080033900040216808602068006820F40040216821
S315080033A0086000F00BFE05465C496068884206D84E
S315080033B05B48854201D2012007E0002005E0594814
S315080033C0854201D2012000E00020012800D1C9E78A
S315080033D05548B5FBF0F62068406820F03F003043BA
S315080033E0216848604D496068884201D8701C07E02A
S315080033F04FF4967070434FF47A71B0FBF1F0401CAD
S315080034002168096A21F03F01084321680862434997
S315080034106068884214D8681E61684900B0FBF1F0FC
S31508003420401CC0F30B00042801D204203DE0681EAE
S3150800343061684900B0FBF1F0401CC0F30B0034E0B2
S31508003440A06838B9681E616801EB4101B0FBF1F06C
S31508003450401C0AE0681E616801EBC10202EB01111B
S31508003460B0FBF1F0401C40F48040C0F30B0008B9F3
S3150800347001201AE0A06848B9681E616801EB41019D
S31508003480B0FBF1F0401CC0F30B000CE0681E61684D
S3150800349001EBC10202EB0111B0FBF1F0401CC0F3D5
S315080034A00B0040F4804040F400402168C9694CF69E
S315080034B0FF72914308432168C861D4E907010843AC
S315080034C02168096821F0C001084321680860D4E929
S315080034D0031008432168896848F2FF32914308437C
S315080034E021688860D4E9050108432168C96821F084
S315080034F0FF0108432168C8602068006840F00100A1
S315080035002168086000202064202084F83D000020FF
S31508003510206384F83E0000BF24E70000A08601006F
S3150800352080841E0000093D0040420F002DE9F84F37
S3150800353004460F4690461E46FFF7E4FE05464FF042
S31508003540000994F83D0020287ED1192301226349F9
S315080035502046009503F064FA10B10220BDE8F88F02
S3150800356000BF94F83C00012801D10220F6E70120AB
S3150800357084F83C0000BF2068006800F0010028B904
S315080035802068006840F0010021680860206800682B
S3150800359020F4006021680860242084F83D0000209B
S315080035A020644F48E06200BF2068006840F48070DD
S315080035B021680860334600224FF001112046009525
S315080035C003F02EFA58B12068006800F48070B0F550
S315080035D0807F02D14FF4007020640320BEE707F015
S315080035E0FE0021680861FFF78DFE054620684069E0
S315080035F0C0F3400A20684069C0F3802B10E0FFF74B
S3150800360081FE401BB04200D816B9A02084F83D00C0
S3150800361020684069C0F3400A20684069C0F3802BDF
S3150800362094F83D00A02805D0BAF1000F02D1BBF1ED
S31508003630000FE4D0202084F83D0020684069C0F3DC
S31508003640400028B3206800E045E0006840F40070B8
S315080036502168086000BF002000902068406900903B
S3150800366020688069009000BF00BF192301221B490A
S315080036702046009503F0D4F908B101206EE7202012
S3150800368084F83D0000BF002084F83C0000BF65E7D1
S315080036902068006840F40070216808606FF4806054
S315080036A021684861192301220C492046009503F038
S315080036B0B7F908B1012051E709F10109C145FFF43D
S315080036C073AF202084F83D0000BF002084F83C003A
S315080036D000BF012042E7022040E700000200100078
S315080036E00000FFFF2DE9FC5F04460F469046994609
S315080036F0DDE90CAB0E9EFFF705FE054694F83D0086
S31508003700202870D119230122B5492046009503F0D7
S3150800371087F910B10220BDE8FC9F00BF94F83C0071
S31508003720012801D10220F6E7012084F83C0000BFF9
S315080037302068006800F0010028B92068006840F099
S315080037400100216808602068006820F4006021688C
S315080037500860222084F83D00402084F83E000020BE
S315080037602064C4F824A0A4F82AB0608D20859D485A
S31508003770E0624B46424639462046CDE9006503F0ED
S315080037809FF808B10120C6E7208D88B900BF002040
S31508003790019020684069019020688069019000BF07
S315080037A000BF2068006840F400702168086040E0A7
S315080037B0208D012818D12068006820F480602168CF
S315080037C0086000BF002001902068406901902068C9
S315080037D08069019000BF00BF2068006840F400704F
S315080037E02168086025E0F8E0208D022816D12068B7
S315080037F0006820F48060216808602068006840F44A
S3150800380000602168086000BF0020019020684069B8
S31508003810019020688069019000BF0AE000BF00207F
S31508003820019020684069019020688069019000BF76
S3150800383000BFC3E0208D03287ED8208D012815D12E
S315080038402A463146204603F0C7F908B1012062E747
S3150800385020680069616A0870606A401C6062208D91
S31508003860401E2085608D401E6085A7E0208D0228B9
S315080038702AD1334600225C492046009503F0D0F849
S3150800388008B1012047E72068006840F40070216805
S31508003890086020680069616A0870606A401C606296
S315080038A0208D401E2085608D401E60852068006939
S315080038B0616A0870606A401C6062208D401E20851F
S315080038C0608D401E608579E03346002246492046D1
S315080038D0009503F0A5F808B101201CE720680068E8
S315080038E020F480602168086020680069616A0870B1
S315080038F0606A401C6062208D401E2085608D401ED7
S3150800390060853346002238492046009503F088F83A
S3150800391008B10120FFE62068006840F400702168BD
S31508003920086020680069616A0870606A401C606205
S31508003930208D401E208500E010E0608D401E6085C9
S3150800394020680069616A0870606A401C6062208DA0
S31508003950401E2085608D401E60852FE02A46314630
S31508003960204603F039F908B10120D4E62068006939
S31508003970616A0870606A401C6062208D401E20855E
S31508003980608D401E608520684069C0F38000A8B13C
S31508003990208D032805D12068006820F480602168FE
S315080039A0086020680069616A0870606A401C606285
S315080039B0208D401E2085608D401E6085208D002844
S315080039C07FF438AF202084F83D00002084F83E00BC
S315080039D000BF84F83C0000BF9DE602209BE600007D
S315080039E0020010000000FFFF0400010010B50446A5
S315080039F01349206888420ED11248006820F48000D6
S31508003A001049086009151048FFF794FA08210E486E
S31508003A10FFF790FA12E00D49206888420ED109484E
S31508003A20006820F400000749086089150848FFF770
S31508003A3081FA4FF400710748FFF77CFA10BD0000C1
S31508003A40005800404038024000040240005C004034
S31508003A50000002400008024010B586B00446142152
S31508003A6001A8FCF711FE45492068884238D100BFF5
S31508003A70002000904248006840F4800040490860F1
S31508003A800846006800F48000009000BF00BF00BF31
S31508003A90002000903A481038006840F00200384983
S31508003AA0103908600846006800F00200009000BF60
S31508003AB000BF0815019012200290012003900320F0
S31508003AC004900420059001A92E48FFF711FB082051
S31508003AD001900920059001A92A48FFF709FB4BE048
S31508003AE029492068884247D100BF00200090244811
S31508003AF0006840F40000224908600846006800F49F
S31508003B000000009000BF00BF00BF002000901C48C6
S31508003B101038006840F00100194910390860084655
S31508003B20006800F00100009000BF00BF00BF002041
S31508003B3000900846006840F00400086008460068DF
S31508003B4000F00400009000BF00BF88150190122005
S31508003B50029001200390032004900420059001A9F7
S31508003B600A48FFF7C5FA4FF4007001900420059043
S31508003B7001A90748FFF7BCFA06B010BD0058004077
S31508003B804038024000040240005C00400000024049
S31508003B9000080240034800680349097808440149B7
S31508003BA008607047000000200800002010B50D4886
S31508003BB0006840F400700B4908600846006840F445
S31508003BC0806008600846006840F48070086003203A
S31508003BD000F0F6F80F2000F007F800F05FF8002074
S31508003BE010BD0000003C02402DE9F04188B00446B3
S31508003BF00027B84600BF002001902348006840F01F
S31508003C001000214908600846006800F0100001907D
S31508003C1000BF00BF02A903A800F0A8F9069F1FB9B4
S31508003C2000F0CCF9054602E000F0C8F9450017484F
S31508003C30B5FBF0F0A0F1010815481649086040F2F6
S31508003C40E7311448C160C0F8048000210161816031
S31508003C50816100F0DFFC064696B90E4800F0B6FD15
S31508003C6006466EB9362000F059F8102C07D2002205
S31508003C702146362000F066F80748046000E0012671
S31508003C80304608B0BDE8F0814038024040420F0097
S31508003C9000100040E05100200400002008B500BFD5
S31508003CA0002000901148006840F480400F490860E1
S31508003CB00846006800F48040009000BF00BF00BFBF
S31508003CC000200090081F006840F08050091F086017
S31508003CD00846006800F08050009000BF00BF002230
S31508003CE00F21901E00F02EF808BD0000443802404F
S31508003CF010B50146084600280BDB00F01F03012219
S31508003D009A40054B440943F82420BFF34F8FBFF36D
S31508003D106F8F00BF10BD000080E100E00146084635
S31508003D2000280DDB00BF00BF00F01F0301229A40E8
S31508003D3043099B0003F1E023C3F8002100BF00BF3D
S31508003D4000BF70472DE9F05F80460D4616460027EE
S31508003D5009F03AF9074639462A46334601F007007C
S31508003D60C0F1070ABAF1040F02D94FF0040A01E0BC
S31508003D70C0F1070AD14600F1040ABAF1070F02D2C8
S31508003D804FF0000A01E0A0F1030AD4464FF0010AF9
S31508003D900AFA09FAAAF1010A0AEA020A0AFA0CFA5E
S31508003DA04FF0010B0BFA0CFBABF1010B0BEA030B03
S31508003DB04AEA0B042146404609F00EF9BDE8F09F91
S31508003DC000BF00F00702064B19684FF6FF031940BB
S31508003DD0044B0B4343EA0221014B196000BF7047AD
S31508003DE00CED00E00000FA0570B504460D460CB966
S31508003DF0012070BD5848006800F00700A84209D2A3
S31508003E0055490D700846006800F00700A84201D021
S31508003E100120EEE7207800F0020002281DD1207864
S31508003E2000F00400042805D14C48006840F4E0502E
S31508003E304A490860207800F00800082805D1474854
S31508003E40006840F46040454908604448006820F02E
S31508003E50F000A168084341490860207800F0010095
S31508003E60A8B36068012807D13C4808380068C0F341
S31508003E704040B8B90120BCE76068022802D06068F3
S31508003E80032807D1354808380068C0F3406048B9A8
S31508003E900120AEE7314808380068C0F3400008B989
S31508003EA00120A6E72D48006820F003006168084352
S31508003EB02A490860FFF726FA064609E0FFF722FABC
S31508003EC0801B41F28831884202D9032091E707E036
S31508003ED02248006800F00C006168B0EB810FEDD154
S31508003EE01D48006800F00700A84209D91A490D7054
S31508003EF00846006800F00700A84201D0012078E7CC
S31508003F00207800F00400042807D11448006820F43B
S31508003F10E050E168084311490860207800F008007D
S31508003F20082808D10D48006820F46040216940EA55
S31508003F30C1000A49086000F061F808490968C1F338
S31508003F400311074A515CC8400649086006480068DC
S31508003F50FFF74AFE00204CE7003C024008380240C2
S31508003F60461E010898000020040000200F22026067
S31508003F700D4A126802F0030242600B4A126802F008
S31508003F80F0028260084A126802F4E052C260064AE9
S31508003F90126802F46042D2080261044A126802F00A
S31508003FA007020A607047000008380240003C0240D9
S31508003FB001480068704700009800002000B5FFF728
S31508003FC0F7FF04490968C1F38221034A515CC840D6
S31508003FD000BD000008380240561E010800B5FFF76C
S31508003FE0E7FF04490968C1F34231034A515CC840F6
S31508003FF000BD000008380240561E01082DE9F047AA
S31508004000002400250026A1462548006800F00C007B
S3150800401020B1042805D008283AD105E0DFF88490B5
S3150800402039E0DFF8849036E01D48001F006800F08C
S315080040303F041B48001F006800F4800078B11A4846
S315080040401749091F0968C1F38811A0FB01700146C9
S31508004050224600233846FCF7AFF905460EE011481C
S315080040600F49091F0968C1F38811A0FB01700146B1
S31508004070224600233846FCF79FF905460848001FE4
S315080040800068C0F30140401C4600B5FBF6F902E0A3
S31508004090DFF8109000BF00BF4846BDE8F087000073
S315080040A0083802400024F40000127A00F8B50446E5
S315080040B00CB90120F8BD207800F00100002874D062
S315080040C0F748006800F00C0004280DD0F448006892
S315080040D000F00C00082813D1F148001F006800F40E
S315080040E08000B0F5800F0BD1ED4808380068C0F3A2
S315080040F04040002859D06068002856D10120D9E7E9
S3150800410000BF6068B0F5803F08D1E5480838006808
S3150800411040F48030E249083908601EE06068B0F56E
S31508004120A02F0DD1DE480838006840F48020DC490D
S31508004130083908600846006840F4803008600CE0DA
S31508004140D7480838006820F48030D549083908600F
S315080041500846006820F48020086000BF606890B1B7
S31508004160FFF7D0F8054606E0FFF7CCF8401B6428B1
S3150800417001D903209EE7CA4808380068C0F34040C2
S315080041800028F1D011E0FFF7BDF8054606E0FFF775
S31508004190B9F8401B642801D903208BE7C0480838C2
S315080041A00068C0F340400028F1D1207800F00200F2
S315080041B002285FD1BA48006800F00C0058B1B84828
S315080041C0006800F00C0008281CD1B548001F0068DC
S315080041D000F48000B0B9B24808380068C0F340005F
S315080041E020B1E068012801D0012063E7AC4808380F
S315080041F0006820F0F800216940EAC100A84908399A
S31508004200086037E0E06800B30120A6490860FFF7B8
S3150800421079F8054606E0FFF775F8401B022801D92C
S31508004220032047E79E4808380068C0F34000002886
S31508004230F1D09B480838006820F0F800216940EA68
S31508004240C10097490839086014E0002095490860BC
S31508004250FFF758F8054606E0FFF754F8401B022812
S3150800426001D9032026E78E4808380068C0F34000C5
S315080042700028F1D1207800F0080008282CD16069C0
S31508004280A8B1012088490860FFF73CF8054606E012
S31508004290FFF738F8401B022801D903200AE78048AF
S315080042A06C300068C0F340000028F1D014E000200C
S315080042B07D490860FFF726F8054606E0FFF722F86D
S315080042C0401B022801D90320F4E675486C300068C3
S315080042D0C0F340000028F1D1207800F0040004283B
S315080042E070D100276E483830006800F0805090B9C9
S315080042F000BF002000906A483830006840F08050BF
S315080043006749383108600846006800F08050009018
S3150800431000BF00BF01276548006800F48070B0B987
S315080043206248006840F4807060490860FEF7EAFF5A
S31508004330054606E0FEF7E6FF401B022801D90320E2
S31508004340B8E65A48006800F480700028F2D000BF2A
S31508004350A068012808D152486830006840F001007A
S315080043604F49683108601DE0A06805280DD14C4802
S315080043706830006840F0040049496831086008461A
S31508004380006840F0010008600CE0454868300068A5
S3150800439020F001004249683108600846006820F0AC
S315080043A00400086000BFA068A8B1FEF7ABFF054689
S315080043B009E0FEF7A7FF401B41F28831884202D97F
S315080043C0032077E626E0364868300068C0F34000E8
S315080043D00028EED013E0FEF795FF054608E0FEF745
S315080043E091FF401B41F28831884201D9032061E6DA
S315080043F02B4868300068C0F340000028EFD1012F31
S3150800440007D127483830006820F0805024493831D1
S31508004410086000BFA069002850D02148006800F055
S315080044200C00082860D0A069022848D100201D4940
S315080044300866FEF767FF054606E0FEF763FF401BC2
S31508004440022801D9032035E6154808380068C0F364
S3150800445040600028F1D1D4E907010843616A40EABF
S3150800446081110122A06AC2EB500041EA00412C20CA
S31508004470005D41EA00613020005D41EA00700849AC
S31508004480091F0860012007490866FEF73BFF054635
S315080044900EE0FEF737FF401B022809D9032009E67C
S315080044A00838024000004742800E4742007000402C
S315080044B028480068C0F340600028EAD048E0002099
S315080044C025490866FEF71EFF054606E0FEF71AFFB1
S315080044D0401B022801D90320ECE51E480068C0F3FA
S315080044E040600028F2D133E0A069012800D1E1E557
S315080044F01848001D0668A069012827D006F480011F
S31508004500E069814222D106F03F01206A81421DD12D
S3150800451047F6C0703040616AB0EB811F16D106F4C9
S3150800452040310122A06AC2EB5000B1EB004F0DD119
S3150800453006F070612C20005DB1EB006F06D106F025
S31508004540E0413020005DB1EB007F01D00120B1E5EC
S315080045500020AFE500380240000047427047704728
S3150800456030B502460B4600BF92F83C00012801D13F
S31508004570022030BD012082F83C0000BF022082F8EC
S315080045803D00106844681068816824F07004186853
S31508004590044310684460184D1068A8421BD0106880
S315080045A0B0F1804F17D0154D1068A84213D0144D9E
S315080045B01068A8420FD0134D1068A8420BD0124DB0
S315080045C01068A84207D0114D1068A84203D0104DB4
S315080045D01068A84205D121F0800158680143106887
S315080045E08160012082F83D0000BF002082F83C006F
S315080045F000BF00BFBDE70000000001400004004006
S3150800460000080040000C0040000401400040014042
S315080046100018004010B504460CB9012010BD94F8E6
S315080046203D0028B9002084F83C00204600F026F812
S31508004630022084F83D00211D206806F049FD01206E
S3150800464084F8460000BF84F83E0001213F2001554A
S31508004650402001554120015500BF00BF012084F8C4
S31508004660420043200155442001554520015500BF0D
S31508004670012084F83D000020D0E7000038B5044644
S315080046802749206888420FD100BF0020009025489E
S31508004690006840F02000234908600846006800F0DA
S315080046A02000009000BF3AE01F49206888421AD1CE
S315080046B000BF002000901B48001D006840F4003031
S315080046C01849091D08600846006800F40030009083
S315080046D000BF00BF002205211920FFF733FB192070
S315080046E0FFF71CFB1BE011492068884217D100BF61
S315080046F0002000900B48006840F480700949086063
S315080047000846006800F48070009000BF00BF0022D1
S3150800471005212D20FFF716FB2D20FFF7FFFA38BDE0
S315080047200014004040380240004401400020004088
S31508004730014691F83D00012801D00120704702206A
S3150800474081F83D001A4B086898421BD00868B0F1FA
S31508004750804F17D0174B0868984213D0164B086835
S3150800476098420FD0154B086898420BD0144B08682E
S31508004770984207D0134B0868984203D0124B086832
S3150800478098420CD10868806800F00702062A0CD007
S315080047900868006840F001000B68186005E00868C2
S315080047A0006840F001000B6818600020C6E70000AA
S315080047B0000001400004004000080040000C0040D2
S315080047C0000401400040014000180040014691F8ED
S315080047D03D00012801D001207047022081F83D00E4
S315080047E00868C06840F001000B68D8601A4B086872
S315080047F098421BD00868B0F1804F17D0174B08684D
S31508004800984213D0164B086898420FD0154B086883
S3150800481098420BD0144B0868984207D0134B086887
S31508004820984203D0124B086898420CD108688068F1
S3150800483000F00702062A0CD00868006840F001005C
S315080048400B68186005E00868006840F001000B680E
S3150800485018600020C0E70000000001400004004086
S3150800486000080040000C00400004014000400140E0
S3150800487000180040704770B504462068C56820686F
S31508004880066906F00200022819D105F0020002287E
S3150800489015D1401F216808610120207720688069AA
S315080048A000F0030018B12046FFF7E4FF05E02046B4
S315080048B000F097F8204600F095F80020207706F0DB
S315080048C00400042819D105F00400042815D1C043B2
S315080048D021680861022020772068806900F440700A
S315080048E018B12046FFF7C6FF05E0204600F079F824
S315080048F0204600F077F80020207706F00800082800
S3150800490019D105F00800082815D1C04321680861A7
S31508004910042020772068C06900F0030018B12046FB
S31508004920FFF7A8FF05E0204600F05BF8204600F0F8
S3150800493059F80020207706F01000102819D105F044
S315080049401000102815D1C043216808610820207777
S315080049502068C06900F4407018B12046FFF78AFF46
S3150800496005E0204600F03DF8204600F03BF8002020
S31508004970207706F0010048B105F0010030B16FF06C
S31508004980010021680861204600F02EF806F0800034
S31508004990802809D105F08000802805D1C043216808
S315080049A008612046FFF7DAFD06F04000402809D1E5
S315080049B005F04000402805D1C0432168086120461B
S315080049C000F036F806F02000202809D105F020006E
S315080049D0202805D1C043216808612046FFF7BFFD9E
S315080049E070BD70477047000010B504460C49206832
S315080049F0884202D1FFF7CEF810E00A4920688842BB
S31508004A000CD009492068884208D10848C06A401C69
S31508004A100649C8620846806A401C886210BD0000C4
S31508004A2000100040004401400020004064040020BB
S31508004A307047704710B5044600BF00BF21680C31A7
S31508004A4051E8001F21F4F07021680C3141E800029A
S31508004A50002AF3D100BF00BF00BF2168143151E816
S31508004A60001F21F001002168143141E80002002AE4
S31508004A70F3D100BF206B01280ED100BF00BF21680B
S31508004A800C3151E8001F21F0100021680C3141E873
S31508004A900002002AF3D100BF2068406900F08000B8
S31508004AA0802820D100BF00BF2168143151E8001FBB
S31508004AB021F080002168143141E80002002AF3D170
S31508004AC000BFA06B78B10020A16B0865A06BFDF74D
S31508004AD0D1FE40B1A06BFDF76FFF202803D110204F
S31508004AE06064032010BD2068406900F0400040283B
S31508004AF020D100BF00BF2168143151E8001F21F002
S31508004B0040002168143141E80002002AF3D100BFB1
S31508004B10E06B78B10020E16B0865E06BFDF7AAFE53
S31508004B2040B1E06BFDF748FF202803D110206064F0
S31508004B300320D7E70020E084E0856064202084F81D
S31508004B40420084F841000020206300BFCAE770B520
S31508004B500446002520684069C0F3C01594F8410052
S31508004B60212817D1B5B100BF00BF2168143151E81B
S31508004B70001F21F080002168143141E80002002A54
S31508004B80F3D100BFA06B10B1A06BFDF773FE2046F2
S31508004B9006F010FD20684069C0F3801594F84200BD
S31508004BA0222817D1B5B100BF00BF2168143151E8DA
S31508004BB0001F21F040002168143141E80002002A54
S31508004BC0F3D100BFE06B10B1E06BFDF753FE204652
S31508004BD006F0AAFC002070BD10B504460CB90120E9
S31508004BE010BD242084F841002068C06820F40050D5
S31508004BF02168C860204600F0BFF90020606484F888
S31508004C00410084F842002063606300BF84F84000D6
S31508004C1000BF00BFE4E770472DE9F84F0446206857
S31508004C2005682068C668206847694FF00009CA46C3
S31508004C3005F00F09B9F1000F0AD105F0200038B1C7
S31508004C4006F0200020B1204606F0C7FCBDE8F88F24
S31508004C50B9F1000F7CD007F0010018B906F490707E
S31508004C60002875D005F0010030B106F4807018B13F
S31508004C70606C40F00100606405F0040030B107F094
S31508004C80010018B1606C40F00200606405F0020093
S31508004C9030B107F0010018B1606C40F004006064A0
S31508004CA005F0080048B106F0200010B907F0010029
S31508004CB018B1606C40F008006064606C002846D04B
S31508004CC005F0200028B106F0200010B1204606F0B5
S31508004CD084FC20684069C0F3801A606C00F0080004
S31508004CE010B9BAF1000F2DD0204606F01DFC206839
S31508004CF0406900F04000402820D100BF00BF21686D
S31508004D00143151E8001F21F040002168143141E8B0
S31508004D100002002AF3D100BFE06B50B17748E16B7F
S31508004D200865E06BFDF7FCFD88B1E06B016D88470F
S31508004D300DE02046FFF76FFF09E009E02046FFF780
S31508004D406AFF04E02046FFF766FF002060647DE7FF
S31508004D50206B012878D105F01000002874D006F0E1
S31508004D6010000028FAD000BF0020009020680068D4
S31508004D70009020684068009000BF00BF2068406926
S31508004D8000F04000402860D1E06B006840681FFAD8
S31508004D9080F8B8F1000F56D0A08D404553DDA4F831
S31508004DA02E80E06BC069B0F5807F43D000BF00BF9E
S31508004DB021680C3151E8001F21F4807021680C31FC
S31508004DC041E80002002AF3D100BF00BF00BF2168F6
S31508004DD0143151E8001F21F001002168143141E81F
S31508004DE00002002AF3D100BF00BF00BF21681431BA
S31508004DF051E8001F21F040002168143141E8000203
S31508004E00002AF3D100BF202084F842000020206346
S31508004E1000BF00BF21680C3151E8001F21F01000C7
S31508004E2021680C3141E80002002AF3D100BFE06B8B
S31508004E30FDF720FD02206063A08DE28D801A81B205
S31508004E402046FFF7F6FD01E742E0A08DE18D401A06
S31508004E501FFA80F8E08DD0B3B8F1000F37D000BF45
S31508004E6000BF21680C3151E8001F21F490702168B9
S31508004E700C3141E80002002AF3D100BF00BF00BF91
S31508004E802168143151E8001F21F00100216814310E
S31508004E9041E80002002AF3D100BF202084F842002E
S31508004EA00020206300BF00BF21680C3151E8001FB5
S31508004EB021F0100021680C3141E80002002AF3D1E4
S31508004EC000BF0220606341462046FFF7B2FDBDE6FB
S31508004ED005F0800030B106F0800018B1204606F0D3
S31508004EE081FDB3E605F0400030B106F0400018B188
S31508004EF0204606F04FFBA9E600BFA7E6EDB300087B
S31508004F0010B504460CB9012010BDA06900B100E037
S31508004F1000BF94F8410028B9002084F840002046D4
S31508004F2000F004F9242084F841002068C06820F4C1
S31508004F3000502168C860204606F0CEFB206800694C
S31508004F4020F49040216808612068406920F02A0012
S31508004F50216848612068C06840F400502168C8602C
S31508004F6000206064202084F8410084F84200002074
S31508004F70606300BFC8E7000010B504465E492068B4
S31508004F80884214D15D48006820F010005B4908602B
S31508004F9040215B48FDF7CEFF80215948FDF7CAFF3F
S31508004FA0E06BFDF7D1FC2520FEF7A2FEA2E05549ED
S31508004FB02068884216D15148001F006820F4003046
S31508004FC04E49091F086020214F48FDF7B3FF4021CD
S31508004FD04D48FDF7AFFFE06BFDF7B6FC2620FEF760
S31508004FE087FE87E049492068884217D14348001F51
S31508004FF0006820F480204149091F08608915424845
S31508005000FDF798FF4FF400713F48FDF793FFE06BFB
S31508005010FDF79AFC2720FEF76BFE6BE03C492068FB
S31508005020884217D13548001F006820F4002033490C
S31508005030091F0860C9143748FDF77CFF4FF48051F3
S315080050403448FDF777FFE06BFDF77EFC3420FEF76A
S315080050504FFE4FE030492068884217D12748001F85
S31508005060006820F480102549091F0860891524481E
S31508005070FDF760FF4FF400712148FDF75BFFE06B19
S31508005080FDF762FC3520FEF733FE33E0234920683E
S31508005090884214D11948006820F020001749086092
S315080050A040211F48FDF746FF80211D48FDF742FFB6
S315080050B0E06BFDF749FC4720FEF71AFE1AE019498E
S315080050C02068884216D10D48001F006820F08040ED
S315080050D00A49091F086080211348FDF72BFF4FF482
S315080050E080711148FDF726FFE06BFDF72DFC522075
S315080050F0FEF7FEFD10BD00000010014044380240D6
S315080051000004024000440040000C024000480040F1
S31508005110004C0040000002400050004000140140CE
S3150800512000080240007800400010024010B586B022
S315080051300446142101A8FBF7A7FAFE49206888420D
S3150800514070D100BF00200090FB48006840F01000B6
S31508005150F94908600846006800F01000009000BF92
S3150800516000BF00BF00200090F3481438006840F0E4
S315080051700100F149143908600846006800F001008A
S31508005180009000BF00BF00BF0020009008460068DE
S3150800519040F0020008600846006800F0020000902F
S315080051A000BF00BF4020019002200290002003901B
S315080051B0032004900720059001A9E048FDF798FF11
S315080051C0802001900720059001A9DC48FDF790FF93
S315080051D0DB48DC4908604FF0006048600021D94888
S315080051E08160C1604FF48061016100214161816184
S315080051F04FF48071C161002101624162FDF700FD33
S3150800520008B1FCF722FE00BFCE48E063846300BF06
S31508005210002205212520FEF795FD2520FEF77EFDB7
S3150800522059E3FFE7C8492068884262D100BF0020D9
S315080052300090C148001F006840F40030BE49091FAD
S3150800524008600846006800F40030009000BF00BF00
S3150800525000BF00200090B8481438006840F00800E5
S31508005260B549143908600846006800F0080000903F
S3150800527000BF00BF2020019002200290002003906A
S31508005280032004900720059001A9B048FDF730FFD8
S31508005290402001900720059001A9AC48FDF728FF9A
S315080052A0AB48AC4908604FF0006048600021A94847
S315080052B08160C1604FF480610161002141618161B3
S315080052C04FF48071C161002101624162FDF798FCCB
S315080052D008B1FCF7BAFD00BF9E48E063846300BFCF
S315080052E0002205212620FEF72DFD2620FEF716FDB5
S315080052F0F1E299492068884264D100BF00200090F5
S315080053008D48001F006840F480208B49091F0860FB
S315080053100846006800F48020009000BF00BF00BF68
S315080053200020009084481438006840F0080082493C
S31508005330143908600846006800F00800009000BFAD
S3150800534000BF8815019002200290002003900320D8
S3150800535004900720059001A97C48FDF7C9FE4FF483
S31508005360007001900720059001A97848FDF7C0FE56
S3150800537077486038794908604FF000604860002136
S3150800538076488160C1604FF4806101610021416106
S3150800539081614FF48071C161002101624162FDF7AC
S315080053A02FFC08B1FCF751FD00BF6C48E06384632D
S315080053B000BF002205212720FEF7C4FC2720FEF7A0
S315080053C0ADFC88E266492068884263D100BF0020A8
S315080053D000905948001F006840F400205649091FEC
S315080053E008600846006800F40020009000BF00BF6F
S315080053F000BF0020009050481438006840F00100B3
S315080054004D49143908600846006800F0010000900C
S3150800541000BF00BFC814019002200290002003902C
S31508005420032004900B20059001A94E48FDF760FE65
S315080054304FF4805001900B20059001A94948FDF7CB
S3150800544057FE4348483848490860400548600021E7
S3150800545045488160C1604FF4806101610021416166
S3150800546081614FF48071C161002101624162FDF7DB
S31508005470C7FB08B1FCF7E9FC00BF3B48E06384635F
S3150800548000BF002205213420FEF75CFC3420FEF71D
S3150800549045FC20E23549206888426BD100BF0020D0
S315080054A000902548001F006840F480102249091F13
S315080054B008600846006800F48010009000BF00BF2E
S315080054C000BF002000901C481438006840F0020015
S315080054D01949143908600846006800F0020000906F
S315080054E000BF00BF8815019002200290002003909B
S315080054F0032004900B20059001A91048FDF7F8FD3C
S315080055004FF4007001900B20059001A90B48FDF798
